:109D8600005EBCE2613FDD83C29C7E20A3FD1F41D5
:109D96009DC3217FFCA2401E5F01E3BD3E6082DCC5
:109DA600237D9FC1421CFEA0E1BF5D0380DE3C62B5
:109DB600BEE0025CDF81633D7C22C09E1D43A1FFA5
:109DC6004618FAA427799BC584DA3866E5BB590795
:109DD600DB856739BAE406581947A5FB7826C49A85
:109DE600653BD987045AB8E6A7F91B45C6987A2475
:109DF600F8A6441A99C7257B3A6486D85B05E7B965
:109E06008CD2306EEDB3510F4E10F2AC2F7193CD54
:109E1600114FADF3702ECC92D38D6F31B2EC0E5044
:109E2600AFF1134DCE90722C6D33D18F0C52B0EE34
:109E3600326C8ED0530DEFB1F0AE4C1291CF2D7324
:109E4600CA947628ABF517490856B4EA6937D58B14
:109E56005709EBB536688AD495CB2977F4AA481604
:109E6600E9B7550B88D6346A2B7597C94A14F6A8F4
:109E7600742AC896154BA9F7B6E80A54D7896B35E4
:109E8600FB04FD82FEC1FF60FF96FFB0FFCBFFE53E
:049E9600FFEEFFF7E5
:03D29800011D0A6B
:10E1C000901C02120B7BFFFFFFFF901C02120B271B
:01E1D000222C
:10BAFD0090FFFE120D23ECF0A3EDF090FFFD120D63
:0ABB0D0023120BFC90FFFC120D2325
:10BB1700851083851182A3A3E4F0851083851182A4
:10BB2700F0A3F0900007120D47E0FEA3E0FF851099
:10BB370083851182E0FCA3E0C39FEE6480F8EC6488
:10BB470080985051900004120D47120BDC8510832A
:10BB5700851182E0FEA3E0F5828E831206BDFF8584
:10BB67001083851182A3A3E06FFF900003120D4796
:10BB7700EFF0900003120D47E0909D8693851083A8
:10BB8700851182A3A3F0851083851182E475F001E6
:0FBB97001207EE808E851083851182A3A3E0FF35
:07BBA600900009120D23229B
:0BDE3D00901C0EEFF0A3ECF0A3EDF042
:10DE4800901C0FE0A3E0FF901C0EE0FEEF6E786FD1
:07DE5800F6E6909D8693FFA2
:01DE5F0022A0
:08D720009019D0EFF0A3EDF029
:10D728009019D0E0703DF584759850F58475911581
:10D73800F58475C908A3E025E02484F582E4349EC5
:10D74800F583E493F5CB9019D1E025E02485F582A3
:10D75800E4349EF583E493F5CA75C804E4F584D2ED
:05D76800ACC2BCD2AF11
:01D76D002299
:10D08000901BC6120B7B00000000901BCA120B7B8A
:10D0900000000000901BBD7464F0E47812F6781272
:10D0A000E6C39402748094805043E625E025E02492
:10D0B000BEF582E4341BF583E4F0E625E025E024A8
:10D0C000BFF582E4341BF583E4F0E625E025E02497
:10D0D000C0F582E4341BF583E4F0E625E025E02486
:0DD0E000C1F582E4341BF583E4F00680B155
:01D0ED002220
:10DF2900D2AFD2A9C2BBE4F584E589540F4401F507
:10DF390089758E02758CAFE4F58AD28C12D0802255
:109B2500E4901BBCF07402F0E4F0F0901BBCE0C3C1
:109B35009402748094804003029C57E025E025E060
:109B450024C1F582E4341BF583E0D394007480943A
:109B5500805003029C26901BBCE025E025E024BF35
:109B6500F582E4341BF583E06003029C26901BBC60
:109B7500E025E025E024C1F582E4341BF583E030DF
:109B8500E027901BBCE025E025E024C1F582E43404
:109B95001BF583E0D3940174809480400C7D009084
:109BA5001BBCE0FF12BBAD800A7D01901BBCE0FF32
:109BB50012BBAD901BBCE025E025E024C1F582E495
:109BC500341BF583E06401700A7D01901BBCE0FF46
:109BD50012BBAD901BBCE025E025E024C1F582E475
:109BE500341BF583E014F0901BBCE025E025E02450
:109BF500C1F582E4341BF583E06026901BBCE025AB
:109C0500E025E024C0F582E4341BF583E0FF901BDA
:109C1500BCE025E025E024BFF582E4341BF583EFA5
:109C2500F0901BBCE025E025E024BFF582E4341B61
:109C3500F583E06014901BBCE025E025E024BFF52A
:109C450082E4341BF583E014F0901BBCE004F002C1
:029C55009B3042
:019C570022EA
:03000B0002C978AF
:10C97800C0E0C0F0C083C082C0D0E8C0E0E9C0E039
:10C98800EAC0E0EBC0E0ECC0E0EDC0E0EEC0E0EFF4
:10C99800C0E012DF08901BC6120B27E47B01FAF9EE
:10C9A800F812094E901BC6120B6F901BBDE014F0D5
:10C9B800E07017901BCA120B27E4F812094E901B5F
:10C9C800CA120B6F901BBD7464F0129B2512D35AC8
:10C9D800D0E0FFD0E0FED0E0FDD0E0FCD0E0FBD01E
:10C9E800E0FAD0E0F9D0E0F8D0D0D082D083D0F00F
:03C9F800D0E0325A
:10D62A0090FFFF120D23EDF090FFFF120D23EFF094
:10D63A00851083851182E0C3940274809480502DF2
:10D64A00A3E0FF851083851182E025E025E024BE52
:10D65A00F582E4341BF583EFF0851083851182A3EC
:10D66A00E0FD851083851182E0FF12BBAD900002B8
:04D67A00120D232248
:10B69C0090FFFE120D23EAF0A3EBF090FFFF120DCA
:10B6AC0023EDF090FFFF120D23EFF0851083851131
:10B6BC0082E0C3940274809480400302B754E02566
:10B6CC00E025E024C1F582E4341BF583E070798534
:10B6DC001083851182E025E025E024BFF582E43457
:10B6EC001BF583E07062851083851182A3E025E051
:10B6FC0004FF851083851182E025E025E024C1F547
:10B70C0082E4341BF583EFF0851083851182A3A3AB
:10B71C00E0FEA3E0FF7C007D0A1207B8851083854C
:10B72C001182E025E025E024C0F582E4341BF5838A
:10B73C00EFF0851083851182E025E025E024BFF52C
:0FB74C0082E4341BF583E4F0900004120D2322F5
:10BBAD0090FFFF120D23EDF090FFFF120D23EFF02C
:06BBBD0090FFFF120D23B2
:10BBC300851083851182A3E0C3940274809480500E
:10BBD30033851083851182A3E025E025E024BEF59B
:10BBE30082E4341BF583E0601B851083851182A3F7
:10BBF300A3E070047F0180027F008510838511829A
:10BC0300A3A3EFF0851083851182E584F075840F7B
:10BC1300851083851182A3E0700F851083851182BF
:10BC2300A3A3E024FF92828019851083851182A348
:10BC3300E06401700D851083851182A3A3E024FFC6
:0BBC43009283851083851182E0F58458
:07BC4E00900003120D2322F8
:10E0C900C2AF901BC6120B279019D5120B6FD2AF96
:06E0D9009019D5120B277F
:01E0DF00221E
:06DD7E0090FFFC120D23D2
:10DD8400C2AF901BCA120B27851083851182120B18
:0CDD94006FD2AF851083851182120B271F
:07DDA000900004120D232284
:10D0110090FFFF120D23EFF090FFFF120D238510FB
:10D0210083851182A3E07005781EF608F6781DE667
:10D0310075F064A4FF08E6FC08E6C39FEC95F05088
:01D0410037B7
:10D04200851083851182E584F075840175D480E4AE
:10D05200F58475D103758401AFD2EF940074809486
:10D062008040047F0080027FFF8FD285D2D385105B
:07D0720083851182E0F584C3
:07D07900900002120D2322BA
:10E066009019E1EFF0D211E4781EF608F6E06004AC
:09E07600781DF622781D760A22BD
:10E18900C211E4781EF608F6781D76FF75FFDE7574
:03E19900FFAD22B5
:10D35A0090FFFF120D23781F06E618700106781D4C
:10D36A00E675F064A4FF08E6FC08E6C39FEC95F0B6
:02D37A0050372A
:10D37C00851083851182E584F075840175D480E471
:10D38C00F58475D103758401AFD2EF940074809449
:10D39C008040047F0080027FFF8FD285D2D385101E
:07D3AC0083851182E0F58486
:07D3B300900001120D23227E
:08DA9E009019D0EEF0A3EFF0A7
:10DAA600E4A3F0A3F09019D0E0FEA3E0FFA3E0FC0E
:10DAB600A3E0C39FEC9E50187FE87E0312C7DF7F6A
:10DAC6000112D0119019D2E475F0011207EE80D53B
:01DAD600222D
:08C7DF009019DCEEF0A3EFF06D
:0FC7E7009019DCE0FEA3E0D394FAEE9400502A00
:10C7F6009019DCE0A3E0F527D3E527940074809434
:10C80600804060752802D3E52894007480948040A7
:0AC816000500152880F0152780DECC
:10C820009019DCE0FEA3E0FFA3EEF0A3EFF0901977
:10C83000DEE0FEA3E0D394FAEE940040147FFA7E8B
:10C840000012C7DF9019DE74FF75F0061207EE8044
:10C85000DD9019DCE0FEA3E0D39400EE94004009E3
:09C86000A3E0FEA3E0FF12C7DF14
:01C8690022AC
:10DDA7004D53434246464600444843502E2E2E00CC
:10DDB700323031382D31302D3130202D20636264DF
:07DDC700393466356161008B
:04D29B00410012003C
:10AB9600E4F5849019E1F0A3F0758F049019E1E0D3
:10ABA600FEA3E0F5828E83742E93FE742F93B43445
:10ABB60007EEB41203D38001C3920EE4F58F200E84
:10ABC6002F7BFF7ADD79A7782C7C057D01120FBBE0
:10ABD600E4900007F0A37450F0A374C2F0A3744687
:10ABE600F0A374DFF0A374FFF0E4900A55F08053ED
:10ABF600758F049019E1E0FEA3E0AA06F97BFF78C1
:10AC06002C7C057D01120FBB9019E1E0FEA3E02428
:10AC160014FFE43EFAA9077BFF78557C0A7D0112F2
:10AC26000FBB9019E1E0FEA3E02428FFE43EFAA959
:10AC3600077BFF78077C007D017E007F0612067E7B
:10AC4600E4F58FE4900000F0A3F0C20B900540F00D
:10AC5600901996120BDC900540E075F010A4F58271
:10AC660085F0831206BDD3940074809480400890CA
:07AC76000540E004F080D965
:01AC7D0022B4
:06CF2F009019DE120BFC5C
:10CF35009019DE120BDC90002E1208456434700443
:10CF4500E5F0641260037F0022C2AFE4F58412E1CC
:10CF550089E47812F608F643B701758F0718E6FEDF
:10CF650008E6F5828E83E4F0758F059019DE120BC5
:10CF7500DCC00218E6FE08E6AA06F8AC027D01D080
:10CF8500027E007F3012067E53B7FEE4F58FD2AFE6
:0ACF95007F0A12E06612AB967F01DE
:01CF9F00226F
:0300230002803721
:0D803700C0E0C0F0C083C082C0D075D0088A
:10804400309972C299900004E004F0A3E0FF90001C
:1080540004E0C39F5054E0C394047480948050118E
:10806400E0240DF582E43400F583E06004D29B80C3
:0380740002C29BAA
:10807700752314D3E52394007480948040177524E6
:1080870002D3E52494007480948040050015248071
:05809700F0152380DE5E
:10809C00900004E02448F582E43409F583E0F59976
:1080AC00800BC284900005E4F0900004F030982B13
:1080BC00300A28900002E0FEA3E0C3EE94045019AD
:1080CC00900002E475F001120804FE744825F0F5E6
:1080DC008274053EF583E599F0C2982098030282DC
:1080EC0021300A03028221209A0F200C0CC2989096
:1080FC000002E4F0A3F0028221C29A900002E4751F
:10810C00F001120804FE744825F0F58274053EF562
:10811C0083E599F0C298900002E0FEA3E064014E62
:10812C00700F900548E07009900002F0A3F00282F5
:10813C0021900548E0540724029019B6F0900002F3
:10814C00E0FEA3E064024E70129019B6E064097070
:10815C000A900549E024039019B6F0900002E0FE65
:10816C00A3E0B4000EEEB4040A900002E4F0A3F015
:10817C000282219019B6E0FF900002E0FCA3E0C35C
:10818C009FEC94005003028221900002E0FEA3E0D9
:10819C0024FFFDEE34FFFC7B017A05794812BAFD11
:1081AC00900002E0FCA3E02447F58274053CF583C3
:1081BC00E06F6009900002E4F0A3F08058300C0BE3
:1081CC007A007B327D017F0012B69C7B017A0979A3
:1081DC004890FFFD120D23120BFC7B017A057948A8
:1081EC0012127A9019B7EFF0E0D394007480948057
:1081FC0040137A007B327D017F0112B69C9019B737
:10820C00E0FF12D23130090675840075EF10900032
:05821C0002E4F0A3F0F4
:0B822100D0D0D082D083D0F0D0E0326B
:01E29A002261
:10DCCF0012D35A900545E0FEA3E0D39400EE9400E2
:10DCDF00400A90054574FFF5F01207EE900545E0F8
:0DDCEF00FEA3E04E7006900000F0A3F022AE
:106572007BFF7ADD79B79019BC120BFC9019BC1223
:106582000BDC1206A4FF3395E04F600C9019BDE4BA
:1065920075F0011207EE80E47BFF7ADD79B7C00364
:1065A200C002C0019019BC120BDCD3D082D083D0C0
:1065B200E0E99582EA958340199019BC120BDC122E
:1065C20006A4642D600C9019BD74FFF5F01207EE5D
:1065D20080C69019BC120BDCEB8A8389827BFF7A1E
:1065E200DD79B7F4700A74B76582700474DD65836F
:1065F20070030268609019BDE475F0021207EE9014
:1066020019BC120BDC9000011206BDFF3395E0FEAF
:10661200C3EF9430EE64809480402D9019BC120B2D
:10662200DC9000011206BDFF3395E0FED3EF9439F2
:10663200EE6480948050119019BC120BDC90000122
:106642001206BD24D0FF804B9019BC120BDC9000C7
:10665200011206BDFF3395E0FEC3EF9461EE648044
:106662009480402D9019BC120BDC9000011206BDE3
:10667200FF3395E0FED3EF9466EE64809480501170
:106682009019BC120BDC9000011206BD24A9FF80F8
:10669200027F00EF7D00FC9019BC120BDC1206A4F5
:1066A200FF3395E0FEC3EF9430EE64809480402780
:1066B2009019BC120BDC1206A4FF3395E0FED3EF57
:1066C2009439EE64809480500E9019BC120BDC1247
:1066D20006A424D0FF80429019BC120BDC1206A43F
:1066E200FF3395E0FEC3EF9461EE6480948040270F
:1066F2009019BC120BDC1206A4FF3395E0FED3EF17
:106702009466EE64809480500E9019BC120BDC12D9
:1067120006A424A9FF80027F00EFC454F04CFCEDD4
:106722009019BC120BDC9000021206BDFF3395E0FB
:10673200FEC3EF9430EE64809480402D9019BC1219
:106742000BDC9000021206BDFF3395E0FED3EF94FE
:1067520039EE6480948050119019BC120BDC9000C9
:10676200021206BD24D0FF804B9019BC120BDC90A4
:1067720000021206BDFF3395E0FEC3EF9461EE64A2
:10678200809480402D9019BC120BDC9000021206FE
:10679200BDFF3395E0FED3EF9466EE6480948050A3
:1067A200119019BC120BDC9000021206BD24A9FF45
:1067B20080027F00EF75F010A4FFE5F04CFEEF4D74
:1067C200FF9019BC120BDC9000031206BDFD33953D
:1067D200E0FCC3ED9430EC64809480402D9019BCB1
:1067E200120BDC9000031206BDFD3395E0FCD3EDE5
:1067F2009439EC6480948050119019BC120BDC9097
:1068020000031206BD24D0FD804B9019BC120BDC94
:106812009000031206BDFD3395E0FCC3ED9461ECDC
:1068220064809480402D9019BC120BDC90000312FE
:1068320006BDFD3395E0FCD3ED9466EC6480948054
:1068420050119019BC120BDC9000031206BD24A952
:0E685200FD80027D00EEEF4D786DA60608F683
:016860002215
:09729F009019D0EFF0A3120BFCD2
:1072A8009019D1120BDC1206A464207004D209FFD5
:1072B800229019D1120BDC1206A4646160030273D8
:1072C800AE9019D4120BDC747812071D9019D412E1
:1072D8000BDC900001740512072F786DE6FE08E6B6
:1072E800EEFF9019D4120BDC900002EF12072F78F2
:1072F8006DE608E6FF9019D4120BDC900003EF123C
:10730800072F12DD7E9019D7120B6F9019D7120B29
:1073180027EFE49019D4120BDC900007EF12072F27
:107328009019D7120B277808120A939019D7120BC5
:107338006F9019D7120B27EFE49019D4120BDC9039
:107348000006EF12072F9019D7120B277808120A98
:10735800939019D7120B6F9019D7120B27EFE4905F
:1073680019D4120BDC900005EF12072F9019D712D1
:107378000B277808120A939019D7120B6F9019D718
:10738800120B27EFE49019D4120BDC900004EF12D3
:10739800072F9019D7120B277808120A939019D73C
:1073A800120B6F7F08229019D1120BDC1206A4640D
:1073B800687055900A55E0FF3395E0FEEF4E602D5A
:1073C8007B017A0A7955C003C002C0019019D11215
:1073D8000BDCE92401F9E43AA801FCAD03D001D0A3
:1073E80002D003120ED2EF3395E04F700D9019D4EE
:1073F800120BDC747812071D800B9019D4120BDC69
:1074080074FF12071D7F01229019D1120BDC12069E
:10741800A46498703E9019D1120BDCE92401F9E4B8
:107428003AFA12CF2FEF601D9019D4120BDC747842
:1074380012071D9019D4120BDC900001E412072FDB
:10744800D2097F02229019D4120BDC74FF12071D97
:107458007F01229019D1120BDC1206A4644160034B
:037468000274F2B9
:10746B009019D0E0FF3395E0FE7C007D3D12075173
:10747B00747A2FF974123EFA7B019019DB120BFC14
:10748B009019D1120BDC9000011206BD6401703C07
:10749B009019DB120BDCE92404F9E43AFA78417C0D
:1074AB00057D017E007F0412067E9019DB120BDC3A
:1074BB00900002120845FF900000E5F0F0A3EFF0FA
:1074CB009005457403F0A374E8F0800DE490000080
:1074DB00F0A3F0900545F0A3F09019D4120BDC74D7
:0774EB007812071D7F01224A
:0274F2007F0019
:0174F4002275
:08AF29009019D0EFF0A3EDF048
:10AF3100E4900002F0A3F0F584FE7F04FD7B017A2A
:10AF410000790D1211829019D1E030E02FE4A3F0C5
:10AF51009019D0E0FF9019D2E0C39F501FE0C39435
:10AF610004748094805015E0240DF582E43400F5DA
:10AF7100837401F09019D2E004F080D49019D1E0EB
:10AF810030E53D900948E0641070089019D37402CF
:10AF9100F080069019D37404F0E49019D2F090195E
:10AFA100D3E0FF9019D2E0C39F5015E0240DF58244
:10AFB100E43400F5837401F09019D2E004F080DEEE
:10AFC10090000DE024FF929B9019D0E0900005F0D5
:10AFD100752714D3E5279400748094804017752851
:10AFE10002D3E528940074809480400500152880E0
:05AFF100F0152780DED1
:0FAFF600D284900948E0F599E4900004F07F01BF
:01B005002228
:05D231009019B8EFF0B8
:10D23600E4F584C29BE0900005F0E4900004F090D1
:10D2460019B9F09019B8E0FFA3E0C39F5014E02489
:10D256000DF582E43400F583E4F09019B9E004F0AA
:02D2660080E165
:10D26800752514D3E525940074809480401775269D
:10D2780002D3E5269400748094804005001526802A
:05D28800F0152580DE19
:0AD28D00D284900948E0F5997F0172
:01D297002274
:096B0F009019D0EFF0A3120BFC69
:106B18009019D0E030E104E4FEFF229019D0E03073
:106B2800E20B9019D8E4F0A37432F0801D9019D0CC
:106B3800E030E30C9019D87475F0A37430F0800A33
:106B48009019D87401F0A374F4F0E49019D4F0A368
:106B5800F09019DAF0A3F09019D6F0A3F09019D8B4
:106B6800E0FEA3E0FF9019D6E0FCA3E0C39FEC9EF3
:106B78004003026D879019DAE0FEA3E0FF9000025F
:106B8800E0FCA3E09FEC9E4017E49019D6F0A3F038
:106B9800900002E0FEA3E0FF9019DAEEF0A3EFF018
:106BA800900948E0641A703E900002E0FEA3E06499
:106BB800014E7032900548E06478702A7B017A05AE
:106BC8007948C003C002C0019019D1120BDCA8019A
:106BD800AC02AD03D001D002D0037E007F011206C3
:106BE8007E7E007F0122900948E064A1600DE06488
:106BF8000A704690094CE064A1703E900002E0FEE5
:106C0800A3E064014E7032900548E06478702A7BF6
:106C1800017A057948C003C002C0019019D1120B4E
:106C2800DCA801AC02AD03D001D002D0037E007F06
:106C38000112067E7E007F0122900948E064A2606E
:106C48000DE0640A704690094CE064A2703E900022
:106C580002E0FEA3E064014E7032900548E06478DB
:106C6800702A7B017A057948C003C002C0019019D7
:106C7800D1120BDCA801AC02AD03D001D002D003C5
:106C88007E007F0112067E7E007F0122900002E0D6
:106C9800FEA3E0D39400EE94005003026D6E9005BD
:106CA80048E0547864786003026D6EE05407FF9002
:106CB80019D4E4F0A3EFF09019D4E0FEA3E0640740
:106CC8004E7053900002E0FEA3E0D39401EE9400CE
:106CD8004044900549E02403FFE4339019D4F0A31D
:106CE800EFF09019D4E0A3E030E735900002E0FE21
:106CF800A3E0D39402EE94004026900549E0547F27
:106D0800FEA3E02404FDE4334EFEEDFF9019D4EE1B
:106D1800F0A3EFF0800A9019D4E475F0021207EEA0
:106D28009019D4E0FEA3E0FF900002E0FCA3E0B5D8
:106D38000734ECB506309019D4E0A3E07B017A055E
:106D48007948C003C002C0019019D1120BDCA80118
:106D5800AC02AD03D001D002D00312067E9019D444
:106D6800E0FEA3E0FF227F0012D0117F647E0012B4
:106D7800C7DF9019D6E475F0011207EE026B659033
:106D880019D8E0FEA3E0FF9019D6E0FCA3E0B50710
:106D980014ECB506109019D1120BDC74FF12071D04
:086DA8007E007F0122E4FEFFE2
:016DB00022C0
:10C9FB007B017A1B792DC002C001E49019C5F0A30D
:10CA0B00F0A37402F0A37411F0E4A3F07A0079138D
:10CA1B00A3120BFC9019CD7401F0A37413F0D00189
:10CA2B00D0027D997C0412C02E9019BCEFF0E0FF70
:10CA3B003395E0FE7C007D3D120751747A2FF9741B
:10CA4B00123EFA7B01A3120BFC7A017926C003C0BC
:10CA5B0002C0019019BD120BDC90000E120CA490B9
:10CA6B0019BD120BDC900011740475F0051209212D
:01CA7B002298
:0694D9009019D0120BFCFB
:1094DF0090165CE09019DFF0E070057EFF7F9D2213
:1094EF009019DFE0640A6005E0640B700990164C78
:1094FF00120B2712A9BE12DC459019D6EFF0E0200F
:10950F00E103029627E490127CF0A3F0FE7F04FDA6
:10951F007B017A12797E1211827E007F107D007B93
:10952F00017A0079131211827B017A1979D71257B8
:10953F00999019DDEEF0A3EFF07B007A007900C06F
:10954F0003C002C0019019D7120BDCD082D083D098
:10955F00E06B7008E965827003EA65837003FEFFB4
:10956F00229019D7120BDC900013120C749019DA99
:10957F00120BFC9019DA120BDC12081A2406FFE406
:10958F0035F0FE9019DDE0FCA3E06F7002EE6C6029
:10959F0004E4FEFF229019DA120BDC90000512068C
:1095AF00BD640560149019DA120BDC9000061206E8
:1095BF00BD64616004E4FEFF229019DA120BDC90A7
:1095CF000002120845FF9019D7120BDC90002CE512
:1095DF00F08FF01209219019D7120BDC90001312A3
:1095EF000C74C003C002C0019019D0120BDC120C16
:1095FF00259019D7120BDC90001C1206BDFF901995
:10960F00D3120BDCEF12071D9019D7120BDC900051
:0B961F0019120845FFAEF022E4FEFF28
:01962A00221D
:0BA7D7009019D0EFF0A3ECF0A3EDF020
:10A7E2009019D0E0C3748094804009E09410748082
:10A7F20094804004E4FEFF229019D1E0FEA3E0D34E
:10A802009406EE648094844004E4FEFF229019D002
:10A81200E075F03DA4247AF9741235F0FA7B0190C8
:10A8220019D3120BFC7A0179269019D6120BFC90DF
:10A8320019D6120BDC900005740512072F9019D15E
:10A84200E0FEA3E0FF9019D6120BDCEE8FF01209A6
:10A85200029019D3120BDC90002C120845FF9019BC
:10A86200D6120BDC900002E5F08FF012092190194C
:10A87200D6120BDC900004E412072F9019D1E0FEEF
:10A88200A3E02406FFE43EFEA3120BDC900011EECF
:10A892008FF01209219019D3120BDC128B7E9019C2
:10A8A200D9EEF0A3EFF09019D9E0FEA3E0C394062D
:10A8B200EE940050089019D9E0A3E0FF229019D934
:0BA8C200E0FEA3E024FAFFEE34FFFEEE
:01A8CD002268
:10DFE100C20CC20FC209C20AE4900002F0A3F012EF
:0CDFF100657212AB9612DE8312C9FB228F
:062449009019D0120BFCFB
:10244F009019D0120BDC1206A45407FF9019DCE48C
:10245F00F0A3EFF09019DCE0FEA3E064074E705795
:10246F009019D0120BDC9000011206BD30E72C90B2
:10247F0019D0120BDC9000011206BD547FFE90198B
:10248F00D0120BDC9000021206BDFDEEED2404FF0E
:10249F00E43E9019DCF0A3EFF080269019D0120BD8
:1024AF00DC9000011206BD547F2403FFE433901922
:1024BF00DCF0A3EFF0800A9019DCE475F00212074C
:1024CF00EE9019DCE0FEA3E024FFFDEE34FFFC905C
:1024DF0019D0120BDC12BAFD9019D0120BDC901927
:1024EF00DCE0FCA3E024FFFDEC34FF8D82F58312CA
:1024FF0006BD6F6004E4FEFF22E49019DAF0A3F04A
:10250F009019D0120BDC1206A464B7600302289650
:10251F009019DCE0FEA3E024F7FFEE34FFFEE4FCAD
:10252F00FD9019E2120B6F9019D0120BDC90000383
:10253F001206BD9019E6F09019D0120BDC90000432
:10254F001206BDFFE4FCFDFE9019DE120B6F901911
:10255F00D0120BDC9000051206BDFFE4FCFDFEC09F
:10256F0004C005C006C0079019DE120B27780812A9
:10257F000AA6A804A905AA06AB07D007D006D0055E
:10258F00D004120A449019DE120B6F9019D0120B5F
:10259F00DC9000061206BDFFE4FCFDFEC004C00582
:1025AF00C006C0079019DE120B277808120AA6A8DA
:1025BF0004A905AA06AB07D007D006D005D0041290
:1025CF000A449019DE120B6F9019D0120BDC900099
:1025DF00071206BDFFE4FCFDFEC004C005C006C027
:1025EF00079019DE120B277808120AA6A804A9056E
:1025FF00AA06AB07D007D006D005D004120A449024
:10260F0019DE120B6F9019E6E0FF12DBE3EF703863
:10261F009019D3120BDC747912071D9019D3120B7A
:10262F00DC900001740212072F7C007D029019D3F9
:10263F00120BDC12BAFD9019D3120BDC900002EFD3
:10264F0012072F7E007F03229019DE120B27781CB2
:10265F00120A93E47B02FAF9F8C3120A82600302AA
:10266F0027209019DE120B27EFEEEDEC540FFC90A4
:10267F0019DE120B6F9019DE120B27EFEEE4FDFC43
:10268F00FBF8C3120A8270189019E6E0FFC007909A
:10269F0019DE120B279019E8120B6FD00712C753D0
:1026AF009019D0120BDCE92408F9E43AFA9019E6F4
:1026BF00E0FDC0059019DE120B279019EB120B6F7E
:1026CF009019E2120B279019EFEEF0A3EFF0D0055F
:1026DF0012B4419019D3120BDC747812071D9019A4
:1026EF00E2120B27AD07AC069019D0120BDCE924D0
:1026FF0008F9E43AFA12BAFD9019D3120BDC9000E4
:10270F0001EF12072F9019DAE4F0A37402F00228F8
:10271F00969019DE120B27781C120A93E4FBFAF934
:10272F00F8C3120A8260030228929019DE120B2757
:10273F00EFEEEDEC540FFC9019DE120B6FE4FF126D
:10274F00E20D9019E6E0FF12CBF59019DE120B2780
:10275F007810120A93EFEE540FFEE4FDFCFBFAF92A
:10276F00F8C3120A8250427F1412C3E19019DE128D
:10277F000B277818120A93EFE412C3E19019DE12B7
:10278F000B277810120A93EFE412C3E19019DE12AF
:10279F000B277808120A93EFE412C3E19019DE12A7
:1027AF000B27EFE412C3E1804C9019DE120B277850
:1027BF0008120A93EFE4FEFDFCFBFAF9F8C3120AC4
:1027CF008250227F1212C3E19019DE120B27780874
:1027DF00120A93EFE412C3E19019DE120B27EFE414
:1027EF0012C3E180107F1112C3E19019DE120B2783
:1027FF00EFE412C3E1E49019D8F0A3F09019D8E0F8
:10280F00FEA3E0FFE4FCFD9019E2120B33D3120A92
:10281F008240299019D0120BDC9019D8E0FEA3E06A
:10282F002408FFE43E8F82F5831206BDFF12C3E139
:10283F009019D8E475F0011207EE80C07FFF12CB1C
:10284F00F57F0112E20D9019D3120BDC7478120789
:10285F001D9019E2120B27AD07AC069019D0120B81
:10286F00DCE92408F9E43AFA12BAFD9019D3120BF5
:10287F00DC900001EF12072F9019DAE4F0A3740235
:10288F00F08004E4FEFF229019D0120BDC1206A494
:10289F0064BF6003022CAD9019D0120BDC900002C4
:1028AF001206BDFE9019D0120BDC9000031206BD6C
:1028BF00FDEEEDFFEE3395E0FDFC9019E2120B6F8C
:1028CF009019D0120BDC9000041206BD9019E6F09F
:1028DF009019D0120BDC9000051206BDFFE4FCFD31
:1028EF00FE9019DE120B6F9019D0120BDC900006C0
:1028FF001206BDFFE4FCFDFEC004C005C006C00704
:10290F009019DE120B277808120AA6A804A905AAA7
:10291F0006AB07D007D006D005D004120A44901991
:10292F00DE120B6F9019D0120BDC9000071206BD50
:10293F00FFE4FCFDFEC004C005C006C0079019DE11
:10294F00120B277808120AA6A804A905AA06AB0736
:10295F00D007D006D005D004120A449019DE120B0E
:10296F006F9019D0120BDC9000081206BDFFE4FC2B
:10297F00FDFEC004C005C006C0079019DE120B276C
:10298F007808120AA6A804A905AA06AB07D007D093
:10299F0006D005D004120A449019DE120B6F90195D
:1029AF00E2120B27EF2404FBE43EFAE43DF9E43C8A
:1029BF00F89019D6E0FEA3E0FFEE3395E0FDFCD3CF
:1029CF00120A824004E4FEFF229019E2120B277DC7
:1029DF00009019D3120BDCE92403F9E43AFA12112F
:1029EF00829019DE120B27781C120A93E47B02FAED
:1029FF00F9F8C3120A826003022ADD9019DE120B66
:102A0F0027EFEEEDEC540FFC9019DE120B6F9019BF
:102A1F00D3120BDCE92403F9E43AFA9019E6E0FD4E
:102A2F00C0059019DE120B279019EB120B6F90193E
:102A3F00E2120B279019EFEEF0A3EFF0D00512BFC3
:102A4F008C9019D3120BDC747F12071D9019E212B0
:102A5F000B277808120A93EF547FFFE4EF4480FFAF
:102A6F00E49019D3120BDC900001EF12072F90198D
:102A7F00E2120B27EFE49019D3120BDC900002EF58
:102A8F0012072F9019E2120B27EF2403FDE43EFCEF
:102A9F009019D3120BDC12BAFDC0079019E2120B7A
:102AAF0027EF2403FFE43EFE9019D3120BDC8F8235
:102ABF008E83D007EF12072F9019E2120B27EF2406
:102ACF0004FFE43E9019DAF0A3EFF0022CAD901959
:102ADF00DE120B27781C120A93E4FBFAF9F8C312E3
:102AEF000A826003022CA99019DE120B27EFEEED7C
:102AFF00EC540FFC9019DE120B6FE4FF12E20D90F5
:102B0F0019E6E0FF12CBF59019DE120B27781012A1
:102B1F000A93EFEE540FFEE4FDFCFBFAF9F8C31233
:102B2F000A8250427F2412C3E19019DE120B2778DC
:102B3F0018120A93EFE412C3E19019DE120B2778F3
:102B4F0010120A93EFE412C3E19019DE120B2778EB
:102B5F0008120A93EFE412C3E19019DE120B27EF6C
:102B6F00E412C3E1804C9019DE120B277808120A89
:102B7F0093EFE4FEFDFCFBFAF9F8C3120A82502230
:102B8F007F2212C3E19019DE120B277808120A93E5
:102B9F00EFE412C3E19019DE120B27EFE412C3E149
:102BAF0080107F2112C3E19019DE120B27EFE41280
:102BBF00C3E19019E2120B27EFE412C3E1E490197D
:102BCF00D8F0A3F09019D8E0FEA3E0FFE4FCFD904D
:102BDF0019E2120B33D3120A82402912BEE990195F
:102BEF00D3120BDC9019D8E0FCA3E02403FDE43CE6
:102BFF008D82F583EF12072F9019D8E475F001122B
:102C0F0007EE80C07FFF12CBF57F0112E20D901906
:102C1F00D3120BDC747F12071D9019E2120B277869
:102C2F0008120A93EF547FFFE4EF4480FFE49019FA
:102C3F00D3120BDC900001EF12072F9019E2120B49
:102C4F0027EFE49019D3120BDC900002EF12072F3D
:102C5F009019E2120B27EF2403FDE43EFC9019D3E9
:102C6F00120BDC12BAFDC0079019E2120B27EF24EA
:102C7F0003FFE43EFE9019D3120BDC8F828E83D0BC
:102C8F0007EF12072F9019E2120B27EF2404FFE42E
:102C9F003E9019DAF0A3EFF08004E4FEFF229019C2
:062CAF00DAE0FEA3E0FFE5
:012CB50022FC
:0F127A0090FFFD120D23120BFC90FFF2120D23BB
:1012890090000E120D47120BDC1206A45407FF7EC4
:1012990000900005120D47EEF0A3EFF09000051243
:1012A9000D47E0FEA3E064074E707090000E120D2A
:1012B90047120BDC9000011206BD30E73A90000E90
:1012C900120D47120BDC9000011206BD547F7F00FE
:1012D900FE90000E120D47120BDC9000021206BDA3
:1012E900FDEEEF4D2404FFE43EFE900005120D478C
:1012F900EEF0A3EFF0803190000E120D47120BDCD7
:101309009000011206BD547F2403FFE433FE9000D0
:1013190005120D47EEF0A3EFF0800D900005120DB8
:1013290047E475F0021207EE900005120D47E0FE42
:10133900A3E024FFFDEE34FFFC90000E120D4712CE
:101349000BDC12BAFD90000E120D47120BDC900057
:1013590005120D47E0FCA3E024FFFDEC34FF8D826C
:10136900F5831206BD6F6006E4FEFF022442900079
:1013790003120D47E4F090000E120D47120BDC1218
:1013890006A4120CFD13B90A148F10143B1213B9D9
:101399001A14A52014AA28167E291965331A293783
:1013A9001A9B501B3961189E701B359800001B90C1
:1013B90090000E120D47120BDC9000011206BD7F42
:1013C90000FE90000E120D47120BDC90000212066F
:1013D900BDFDEEEF4DFF90199DE0FCA3E06F70029B
:1013E900EE6C7044D20C90000604F07A007B32FD5A
:1013F9007F0012B69C90000E120D47120BDC1206EC
:10140900A4641A6003021B90900011120D47120B7D
:10141900DC900003120D47E0FF04F08F8275830012
:10142900747812072F021B90C20CE4900006F00298
:101439001B9090000E120D47120BDC900001120652
:10144900BD7F00FE90000E120D47120BDC900002CA
:101459001206BDFDEEEF4DFF90199FE0FCA3E0B52C
:10146900071AEEB50416D20C9000067402F07A0041
:101479007B327D017F0012B69C021B90C20CE49066
:101489000006F0021B90D20C9000067403F07A005B
:101499007B327D017F0012B69C021B90D209021B90
:1014A90090900011120D47120BDC900003120D47AA
:1014B900E0FF04F08F82758300747F12072F90007C
:1014C90011120D47120BDC900003120D47E0FF04C7
:1014D900F08F82758300741812072F900011120D76
:1014E90047120BDC900003120D47E0FF04F08F82D6
:1014F900758300740512072F900540E0FF900011D5
:10150900120D47120BDC900003120D47E0FE04F0A8
:101519008E82758300EF12072F90199DE0FEA3E0DC
:10152900EEFF900011120D47120BDC900003120D13
:1015390047E0FE04F08E82758300EF12072F9019A1
:101549009DE0A3E0FF900011120D47120BDC900003
:1015590003120D47E0FE04F08E82758300EF120737
:101569002F90199FE0FEA3E0EEFF900011120D47A6
:10157900120BDC900003120D47E0FE04F08E827519
:101589008300EF12072F90199FE0A3E0FF9000114D
:10159900120D47120BDC900003120D47E0FE04F018
:1015A9008E82758300EF12072F786DE6FE08E6EE4E
:1015B900FF900011120D47120BDC900003120D472A
:1015C900E0FE04F08E82758300EF12072F786DE636
:1015D90008E6FF900011120D47120BDC9000031270
:1015E9000D47E0FE04F08E82758300EF12072F8508
:1015F9001083851182E4F0851083851182E0C394FC
:1016090010748094805033E024A1F582E43419F5F4
:1016190083E0FF900011120D47120BDC90000312BA
:101629000D47E0FE04F08E82758300EF12072F85C7
:101639001083851182E004F080BD900003120D47EC
:10164900E0FD7C00900011120D47120BDC12BAFD6F
:10165900900011120D47120BDC900003120D47E0A8
:10166900F582758300EF12072F900003120D47E0F2
:1016790004F0021B9090000E120D47120BDC900033
:10168900011206BDFF900540E0FEEFC39E40030234
:021699001874C3
:10169B0090000E120D47120BDC9000011206BD7567
:1016AB00F010A4FF901996120BDCE92FF9EA35F034
:1016BB00FA90000B120D47120BFC900011120D4704
:1016CB00120BDC900003120D47E0FF04F08F8275C4
:1016DB008300747F12072F900011120D47120BDC41
:1016EB00900003120D47E0FF04F08F8275830074A6
:1016FB000D12072F90000B120D47120BDC1206A4D4
:10170B00FF900011120D47120BDC900003120D47D6
:10171B00E0FE04F08E82758300EF12072F90000B12
:10172B00120D47120BDC9000011206BDFF90001149
:10173B00120D47120BDC900003120D47E0FE04F074
:10174B008E82758300EF12072F90000B120D47123C
:10175B000BDC9000021206BDFF900011120D471218
:10176B000BDC900003120D47E0FE04F08E827583B4
:10177B0000EF12072F90000B120D47120BDC90009D
:10178B00031206BDFF900011120D47120BDC9000E7
:10179B0003120D47E0FE04F08E82758300EF1207F3
:1017AB002F90000B120D47120BDC9000041206BD9C
:1017BB00FF900011120D47120BDC900003120D4726
:1017CB00E0FE04F08E82758300EF12072F851083E5
:1017DB00851182E4F0851083851182E0C39408742F
:1017EB00809480504990000B120D47120BDCE924BA
:1017FB0005F9E43AFA851083851182E07E0029F918
:10180B00EE3AFA1206A4FF900011120D47120BDCF0
:10181B00900003120D47E0FE04F08E82758300EFFB
:10182B0012072F851083851182E004F080A79000AA
:10183B0003120D47E0FD7C00900011120D47120BB7
:10184B00DC12BAFD900011120D47120BDC90000355
:10185B00120D47E0F582758300EF12072F900003FE
:06186B00120D47E004F03D
:10187100021B90900011120D47120BDC74781207B5
:101881001D900011120D47120BDC900001E41207AC
:101891002F900003120D477402F0021B9012DD7E9F
:1018A100900007120D47120B6F900011120D471295
:1018B1000BDC747C12071D900007120D47E0FF90AE
:1018C1000011120D47120BDC900001EF12072F7B64
:1018D10001900007120D47A982AA83900001120608
:1018E100BDFF900011120D47120BDC900002EF12A8
:1018F100072F7B01900007120D47A982AA83900050
:10190100021206BDFF900011120D47120BDC900070
:1019110003EF12072F7B01900007120D47A982AA3E
:10192100839000031206BDFF900011120D47120BA8
:10193100DC900004EF12072F7C007D05900011124E
:101941000D47120BDC12BAFD900011120D47120B5C
:10195100DC900005EF12072F900003120D4774066B
:10196100F0021B9090000E120D47120BDC9000014B
:101971001206BD6401703090000E120D47120BDC8F
:101981009000021206BD7F00FE90000E120D47125C
:101991000BDC9000031206BDFDEEEF4DFF90199D8B
:1019A100EEF0A3EFF0807C90000E120D47120BDCDD
:1019B1009000011206BD6402702890000E120D47BE
:1019C100120BDC9000021206BDFF7F0090000E1288
:1019D1000D47120BDC9000031206BD4F90199DF0CC
:1019E100804190000E120D47120BDC90000112068F
:1019F100BD6403702E90000E120D47120BDC900097
:101A0100021206BD7F00FE90000E120D47120BDC84
:101A11009000031206BDFDEEEF4DFF90199FEEF011
:101A2100A3EFF0D210021B90851083851182E4F0A0
:101A3100851083851182E0C3941074809480505086
:101A410090000E120D47120BDC9000011206BDFF33
:101A5100851083851182E0C39F5035E02402FFE4A5
:101A610033FE90000E120D47120BDC8F828E831213
:101A710006BDFF851083851182E024A1F582E4343F
:101A810019F583EFF0851083851182E004F080A0C1
:101A9100E49019B0F0D210021B90200A4D90001171
:101AA100120D47120BDC747912071D900011120DF3
:101AB10047120BDC900001740112072F7C007D029C
:101AC100900011120D47120BDC12BAFD9000111299
:101AD1000D47120BDC900002EF12072F900003124A
:101AE1000D477403F0D20F021B90900011120D47A5
:101AF100120BDC747912071D900011120D47120BA5
:101B0100DC900001740212072F7C007D029000110D
:101B1100120D47120BDC12BAFD900011120D471283
:101B21000BDC900002EF12072F900003120D477497
:101B310003F0805BD2108057900011120D47120BF9
:101B4100DC747912071D90000E120D47120BDC9008
:101B510000011206BDFF900011120D47120BDC901F
:101B61000001EF12072F7C007D02900011120D473A
:101B7100120BDC12BAFD900011120D47120BDC9012
:101B81000002EF12072F900003120D477403F0902B
:101B9100000E120D47120BDC1206A454F864A0606B
:101BA100030220F190000E120D47120BDC1206A465
:101BB10064A16003021E5990000E120D47120BDC46
:101BC1009000011206BDFF900004120D47EFF09046
:101BD1000540E0FF900004120D47E0C39F4003025F
:101BE1001E3F901996120BDC900004120D47E07510
:101BF100F010A4F58285F0831206BDFF9000031258
:101C01000D47EFF0900004120D47E075F010A4FFAE
:101C1100901996120BDCE92FF9EA35F0FA900004DD
:101C21001206BD20E203021CB8900011120D4712EA
:101C31000BDC747F12071D900011120D47120BDC93
:101C4100E92402F9E43AFA900004120D47E0FF1288
:101C5100C20F900003120D47EFF0900003120D47E1
:101C6100E0FF900011120D47120BDC900001EF1202
:101C7100072F900003120D47E02402F09000031299
:101C81000D47E0FD7C00900011120D47120BDC1294
:101C9100BAFD900011120D47120BDC900003120DDA
:101CA10047E0F582758300EF12072F900003120DB4
:101CB10047E004F00220F1900003120D47E0D394B5
:101CC10006748094805003021D71900011120D471B
:101CD100120BDC747F12071D900003120D47E0FF09
:101CE100900011120D47120BDC900001EF12072F2B
:101CF100851083851182E4F0900003120D47E0FF07
:101D0100851083851182E0C39F5058900004120D05
:101D110047E075F010A4FF901996120BDCE92FF93A
:101D2100EA35F0FA90000D120C748510838511824A
:101D3100E0F5827583001206BDFF8510838511824F
:101D4100E02402FDE433FC900011120D47120BDC7C
:101D51008D828C83EF12072F851083851182E00419
:101D6100F08095900003120D47E02402F0021E045A
:101D7100900003120D47E02478FF900011120D47E7
:101D8100120BDCEF12071D851083851182E4F090A0
:101D91000003120D47E0FF851083851182E0C39F88
:101DA1005058900004120D47E075F010A4FF9019EF
:101DB10096120BDCE92FF9EA35F0FA90000D120CBE
:101DC10074851083851182E0F5827583001206BD4A
:101DD100FF851083851182E02401FDE433FC90002E
:101DE10011120D47120BDC8D828C83EF12072F85A8
:101DF1001083851182E004F08095900003120D4755
:101E0100E004F0900003120D47E0FD7C009000110A
:101E1100120D47120BDC12BAFD900011120D471280
:101E21000BDC900003120D47E0F582758300EF1281
:101E3100072F900003120D47E004F00220F19000FB
:101E410011120D47120BDC747812071D900003125A
:101E51000D477401F00220F190000E120D47120B94
:101E6100DC1206A464A260030220F190000E120DA0
:101E710047120BDC9000011206BDFF900540E0FE09
:101E8100EFC39E40030220DA90000E120D47120BA1
:101E9100DC9000021206BDFF900540E0FEEFC39EFC
:101EA10040030220DA90000E120D47120BDC900065
:101EB100021206BDFF90000E120D47120BDC9000BE
:101EC100011206BDD39F40030220DA90000E120DCD
:101ED10047120BDC9000011206BD8510838511822B
:101EE100F0A3A3E4F090000E120D47120BDC90005A
:101EF100021206BDFF851083851182E0D39F503009
:101F0100901996120BDC851083851182E075F01013
:101F1100A4F58285F0831206BDFF851083851182A9
:101F2100A3A3E02FF0851083851182E004F080B532
:101F3100900003120D47E4F0900011120D47120BAF
:101F4100DC900003120D47E0FF04F08F82758300DF
:101F5100747F12072F851083851182A3A3E0C39498
:101F610080748094805028851083851182A3A3E01A
:101F7100FF900011120D47120BDC900003120D4768
:101F8100E0FE04F08E82758300EF12072F804F85EB
:101F91001083851182A3A3E0E47480FF90001112E5
:101FA1000D47120BDC900003120D47E0FE04F08E8A
:101FB10082758300EF12072F851083851182A3A3F9
:101FC100E0FF900011120D47120BDC900003120D7F
:101FD10047E0FE04F08E82758300EF12072F900018
:101FE1000E120D47120BDC9000011206BD85108305
:101FF100851182F090000E120D47120BDC90000249
:102001001206BDFF851083851182E0D39F40030234
:1020110020A0A3E4F0901996120BDC8510838511A2
:1020210082E075F010A4F58285F0831206BDFF856C
:102031001083851182A3E0C39F50588510838511B9
:1020410082E075F010A4FF901996120BDCE92FF9CC
:10205100EA35F0FA90000D120C7485108385118217
:10206100A3E0F5827583001206BDFF900011120DE9
:1020710047120BDC900003120D47E0FE04F08E8244
:10208100758300EF12072F851083851182A3E00469
:10209100F08082851083851182E004F0021FF590A3
:1020A1000003120D47E0FD7C00900011120D471254
:1020B1000BDC12BAFD900011120D47120BDC9000DF
:1020C10003120D47E0F582758300EF12072F900090
:1020D10003120D47E004F08017900011120D471212
:1020E1000BDC747812071D900003120D477401F088
:1020F10090000E120D47120BDC1206A454F86480F6
:10210100601590000E120D47120BDC1206A454F854
:102111006488600302243890000E120D47120BDC14
:102121001206A45407FF900003120D47EFF0900030
:1021310003120D47E06407703B851083851182A36C
:1021410004F090000E120D47120BDC9000011206F4
:10215100BDFF900003120D47EFF090000E120D47E6
:10216100120BDC9000021206BDFF900004120D4715
:10217100EFF08021851083851182A3E4F090000E99
:10218100120D47120BDC9000011206BDFF900004F6
:10219100120D47EFF0900003120D47E014F0900587
:1021A10040E0FF900004120D47E0C39F400302246A
:1021B10038901996120BDC900004120D47E075F06F
:1021C10010A4F58285F0831206BDFF900003120D65
:1021D10047E0D39F4022901996120BDC9000041225
:1021E1000D47E075F010A4F58285F0831206BDFF5E
:1021F100900003120D47EFF0851083851182E4F002
:10220100900003120D47E0FF851083851182E0C322
:102211009F40030223CA900004120D47E075F0109D
:10222100A4FF901996120BDCE92FF9EA35F0FA9028
:1022310000041206BD30E2030223BE900004120D19
:1022410047E075F010A4FF901996120BDCE92FF905
:10225100EA35F0FA9000011206BD643860030223EA
:1022610035900003120D47E0D394047480948040AC
:102271005F851083851182A3E02402FFE433FE858C
:102281001083851182E07C002FFFEC3EFE90000E52
:10229100120D47120BDC8F828E831206BDFD90005A
:1022A10004120D47E075F010A4FF901996120BDC93
:1022B100E92FF9EA35F0FA90000D120C74851083BC
:1022C100851182E0F582758300ED12072F0223BE8E
:1022D100900005120D47E0FEA3E024FEFFEE34FF5F
:1022E100FE851083851182E0FDC3EF9DFFEE940012
:1022F100FE90000E120D47120BDC8F828E831206A8
:10230100BDFD900004120D47E075F010A4FF901977
:1023110096120BDCE92FF9EA35F0FA90000D120C58
:1023210074851083851182E0F582758300ED1207B3
:102331002F0223BE901996120BDC900004120D4758
:10234100E075F010A4F58285F0831206BDFF7E00D2
:10235100900005120D47E0FCA3E024FFFDEC34FFE3
:10236100FCC3ED9FFFEC9EFE851083851182E07C0E
:10237100002FFFEC3EFEA3E02FFFEC3EFE90000E8F
:10238100120D47120BDC8F828E831206BDFD900069
:1023910004120D47E075F010A4FF901996120BDCA2
:1023A100E92FF9EA35F0FA90000D120C74851083CB
:1023B100851182E0F582758300ED12072F85108368
:1023C100851182E004F002220190000E120D4712E5
:1023D1000BDC900004120D47E0FF12B99290000E41
:1023E100120D47120BDC1206A454F8648870489051
:1023F1000011120D47120BDC747812071D90000EAC
:10240100120D47120BDC900005120D47E0FEA3E010
:1024110024FFFFEE34FF8F82F5831206BDFF90008B
:1024210011120D47120BDC900001EF12072F9000E3
:1024310003120D477402F0900003120D47E0FF7E76
:01244100009A
:07244200900014120D23228B
:103CAB0012E28AEF4E601D200B1A7BFF7ADD79AF93
:103CBB0012C4797B007A0079007F807EF47DFF7CD3
:103CCB00FF12DB4990165CE06409700B12E28AEF7D
:103CDB004E6004D20B8002C20B300B19900012E025
:103CEB0070137D01FF12D62A7D017F0012BBAD90B0
:103CFB0000127401F0200B19900012E060137D008C
:103D0B007F0012D62A7D017F0012BBADE49000121A
:103D1B00F07B017A1979BCC002C0017A1979CC9079
:103D2B0019D3120BFCD001D0021294D99019C8EE02
:103D3B00F0A3EFF0D39400EE940050030241E9900E
:103D4B0019BC120BDC9019CD120BFC7B017A01799B
:103D5B002C9019BF120BFC900000E0FEA3E04E600C
:103D6B005D9019CCE0FF3395E0FE90127C75F03D31
:103D7B00EF120BD0EE75F03DA42583F583E0FEA387
:103D8B00E0FF900000E0FCA3E06F7002EC6E6003BC
:103D9B000241F99019CCE0FF3395E0FE7C007D3DAC
:103DAB00120751747E2FF974123EFA78417C057D0F
:103DBB00017E007F0412115EEF60030241F9900057
:103DCB0000E0FEA3E04E60679019CCE0FF3395E076
:103DDB00FE90127C75F03DEF120BD0EE75F03DA40A
:103DEB002583F583E0FEA3E0FF900000E0FCA3E059
:103DFB006F7002EC6E70389019CCE0FF3395E0FEDB
:103E0B007C007D3D120751747E2FF974123EFA7BB4
:103E1B000178417C057D017E007F0412115EEF333A
:103E2B0095E04F700A9005457403F0A374E8F09089
:103E3B0019C8E0FEA3E0D39413EE940140030241B2
:103E4B00F99019CD120BDCE92406F9E43AFA901932
:103E5B00C4120BFC9019CD120BDC9000041206BDA2
:103E6B005410D394007480948040047F0180027FAF
:103E7B00009019C3EFF09019CD120BDC12081AFF4A
:103E8B009019CAE5F0F0A3EFF09019CD120BDC906E
:103E9B0000041206BD9019C2F09019CAE0FEA3E00F
:103EAB002406FFE43EFE9019C8E0FCA3E06F70020D
:103EBB00EE6C60030241F99019CD120BDC900005FA
:103ECB001206BD640560109019C4120BDC1206A417
:103EDB00646160030241F97A007B327D017F00123D
:103EEB00B69C9019C3E060539019CCE0FF9019C4B5
:103EFB00120BDCC003C002C0019019BF120BDC9087
:103F0B0019D4120BFCD001D002D00312729F90195E
:103F1B00C8E4F0A3EFF09019C8E0FEA3E0D394003F
:103F2B00EE940050030241E99019CCE0FF9019C8C0
:103F3B00E0FCA3E0FD12A7D70241E99019C4120BD4
:103F4B00DC1206A464B7600D9019C4120BDC1206C8
:103F5B00A464BF70559019C4120BDCC003C002C01F
:103F6B00019019BF120BDC9019D3120BFC9019D6D0
:103F7B007404F0A3E4F0D001D002D00312244990D2
:103F8B0019C8EEF0A3EFF09019C8E0FEA3E0D394AC
:103F9B0000EE940050030241F99019CCE0FF901908
:103FAB00C8E0FCA3E0FD12A7D7229019BF120BDCCF
:103FBB0090FFFD120D23120BFC9019C4120BDC1297
:103FCB00127A9019C8EEF0A3EFF09019C8E0FEA397
:103FDB00E0D39400EE940040109019CCE0FF9019C0
:103FEB00C8E0FCA3E0FD12A7D7200C030240DC9035
:103FFB0019C4120BDC1206A4540724029019C7F043
:10400B00E0FF9019CAE0FCA3E0D39FEC94005003AF
:10401B000240DC9019C7E09019C5E48FF01207EE4F
:10402B00D20A9019C4120BDC1206A464B7600D906F
:10403B0019C4120BDC1206A464BF70549019C4127D
:10404B000BDCC003C002C0019019BF120BDC90192E
:10405B00D3120BFC9019D67404F0A3E4F0D001D06A
:10406B0002D0031224499019C8EEF0A3EFF0901977
:10407B00C8E0FEA3E0D39400EE940040109019CC5E
:10408B00E0FF9019C8E0FCA3E0FD12A7D7C20A22FB
:10409B009019BF120BDC90FFFD120D23120BFC903D
:1040AB0019C4120BDC12127A9019C8EEF0A3EFF0C0
:1040BB009019C8E0FEA3E0D39400EE94004010905A
:1040CB0019CCE0FF9019C8E0FCA3E0FD12A7D7C202
:1040DB000A300C0302418D9019CAE0FEA3E0FF9059
:1040EB0019C4120BDC78487C097D0112067ED20ABA
:1040FB009019CAE0A3E0FF9019C2E0FD12AF29EFBF
:10410B00607C900005E060077F0012D01180F39077
:10411B0019C2E0FF9019BF120BDC126B0F9019C87C
:10412B00EEF0A3EFF09019C8E0FEA3E0D39400EEFD
:10413B00940040329019C8E0A3E064014E700C90DB
:10414B0019BF120BDC1206A4F4600B7A007B327DD4
:10415B00017F0112B69C9019CCE0FF9019C8E0FCCE
:10416B00A3E0FD12A7D7900948E0641070109009E6
:10417B004AE064397008A3E0FDE4FF12D720C20ABD
:10418B00805C900006E064026005E06403704F9071
:10419B0019CAE0FEA3E0FF9019C4120BDC78487C2F
:1041AB00097D0112067ED20A9019CAE0A3E0FF90A6
:1041BB0019C2E0FD12AF29900005E060077F0012E5
:1041CB00D01180F3900948E06410701090094AE018
:1041DB0064397008A3E0FDE4FF12D720C20A30094E
:0E41EB000D7F647E0012DA9EE4F58475EF10FD
:0141F90022A3
:10E0E00075840FC2E8C2E9C2EAD2DBD2D9D2DAC261
:06E0F000ECC2EED2EB22AF
:10DBB1009019FEEFF0A3EDF075840FE0701BC2D950
:10DBC1009019FEE01392E8E0FFC313F0E01392E92D
:10DBD100E0FFC313F0E01392EA9019FFE024FF92F3
:02DBE100DA2246
:05D89B009019DEEFF022
:10D8A00075840FE4A3F09019DFE0C39408748094AA
:10D8B00080502A9019DEE0540194007480948040D6
:10D8C00003D38001C392D99019DEE0FFC313F0D2D5
:0FD8D000DBD2DBD2DBC2DBA3E004F080C9C2D91C
:01D8DF002226
:05C349009019FEEFF069
:10C34E0075840FE0F527E5273392D9E52725E0F52B
:10C35E0027D2DBD2DBD2DBC2DB3392D9E52725E055
:10C36E00F527D2DBD2DBD2DBC2DB3392D9E5272530
:10C37E00E0F527D2DBD2DBD2DBC2DB3392D9E52765
:10C38E0025E0F527D2DBD2DBD2DBC2DB3392D9E557
:10C39E002725E0F527D2DBD2DBD2DBC2DB3392D905
:10C3AE00E52725E0F527D2DBD2DBD2DBC2DB3392E9
:10C3BE00D9E52725E0F527D2DBD2DBD2DBC2DB3392
:10C3CE0092D9E52725E0F527D2DBD2DBD2DBC2DB23
:02C3DE00C2D9C2
:01C3E000223A
:10BE460075840FE49019DBF0E0FF25E0FFA2D8E44B
:10BE5600334FF0D2DBD2DBD2DBC2DBE0FF25E0FFE3
:10BE6600A2D8E4334FF0D2DBD2DBD2DBC2DBE0FF79
:10BE760025E0FFA2D8E4334FF0D2DBD2DBD2DBC21F
:10BE8600DBE0FF25E0FFA2D8E4334FF0D2DBD2DBC4
:10BE9600D2DBC2DBE0FF25E0FFA2D8E4334FF0D2CD
:10BEA600DBD2DBD2DBC2DBE0FF25E0FFA2D8E43346
:10BEB6004FF0D2DBD2DBD2DBC2DBE0FF25E0FFA214
:10BEC600D8E4334FF0D2DBD2DBD2DBC2DBE0FF2596
:10BED600E0FFA2D8E4334FF0D2DBD2DBD2DBC2DB09
:02BEE600E0FF7B
:01BEE8002237
:10DEA5009019DCEFF0A3EDF09019DCE0FFE4FD1232
:10DEB500DBB19019DDE0FF12D89B0DE4FF12DBB159
:01DEC500223A
:10DEC600901C17EFF0A3EDF0901C17E0FFE4FD1295
:10DED600DBB1901C18E0FF12C3490DE4FF12DBB161
:01DEE6002219
:0EE20D009019F5EFF075840FE024FF92EB22DC
:05D8E000901C19EFF09F
:10D8E50075840FE4A3F0901C1AE0C3940874809427
:10D8F50080502A901C19E054019400748094804053
:10D9050003D38001C392EE901C19E0FFC313F0D23C
:0FD91500ECD2ECD2ECC2ECA3E004F080C9C2EE7D
:01D9240022E0
:05C3E1009019F5EFF0DA
:10C3E60075840FE0F527E5273392EEE52725E0F57E
:10C3F60027D2ECD2ECD2ECC2EC3392EEE52725E064
:10C40600F527D2ECD2ECD2ECC2EC3392EEE527253E
:10C41600E0F527D2ECD2ECD2ECC2EC3392EEE52773
:10C4260025E0F527D2ECD2ECD2ECC2EC3392EEE565
:10C436002725E0F527D2ECD2ECD2ECC2EC3392EE13
:10C44600E52725E0F527D2ECD2ECD2ECC2EC33920C
:10C45600EEE52725E0F527D2ECD2ECD2ECC2EC33A0
:10C4660092EEE52725E0F527D2ECD2ECD2ECC2EC31
:02C47600C2EE14
:01C4780022A1
:10BEE90075840FE49019F5F0E0FF25E0FFA2EFE477
:10BEF900334FF0D2ECD2ECD2ECC2ECE0FF25E0FFFC
:10BF0900A2EFE4334FF0D2ECD2ECD2ECC2ECE0FF7A
:10BF190025E0FFA2EFE4334FF0D2ECD2ECD2ECC231
:10BF2900ECE0FF25E0FFA2EFE4334FF0D2ECD2ECD6
:10BF3900D2ECC2ECE0FF25E0FFA2EFE4334FF0D2F0
:10BF4900ECD2ECD2ECC2ECE0FF25E0FFA2EFE43347
:10BF59004FF0D2ECD2ECD2ECC2ECE0FF25E0FFA22C
:10BF6900EFE4334FF0D2ECD2ECD2ECC2ECE0FF2597
:10BF7900E0FFA2EFE4334FF0D2ECD2ECD2ECC2EC0A
:02BF8900E0FFD7
:01BF8B002293
:10E14D00E4F58475D480F58475D103F58475D2FF1B
:04E15D0075D30F2245
:05D67E009019D5EFF04A
:10D68300E0D394647480948040037464F09019D55B
:10D69300E0FCE4120347E4FBFA79C878421202275C
:10D6A3007B007AF0797F784512011E12037B901973
:10D6B300D6EEF0A3EFF0E4F5849019D6E0A3E0F5FD
:0DD6C300D29019D6E0FEA3E0EE540FF5D38F
:01D6D0002237
:10E19C0000010203040506070A0B0C0D0E0F1011EB
:02E1AC00080960
:0BD29F00481BEDFFFFFFFFFFFFFFFB40
:10CA7C007B087D0AE4FF12DAD7E49019BEF0901916
:10CA8C00BEE0C39404748094805053E025E024ED00
:10CA9C00F582E4341BF583E0FB9019BEE0FFE4FD66
:10CAAC0012DAD79019BEE0FF7BFF7D0C12DAD7901B
:10CABC0019BEE025E024EDF582E4341BF583E0FBA0
:10CACC009019BEE0FF7D0112DAD79019BEE0FF7B12
:10CADC00FF7D0D12DAD79019BEE004F080A07FFF25
:0DCAEC0012CBF5E4FF12E0F6E4FF12E10CBE
:01CAF900221A
:10DAD7009019FBEFF0A3EDF0A3EBF0E4FD7F01124B
:10DAE700DBB19019FBE05407FF25E04440FF12C368
:10DAF700499019FCE0FF12C3499019FDE0FF12C3DA
:09DB0700497D01E4FF12DBB122AB
:08DA63009019D8EFF0A3EDF0DB
:10DA6B00E4FD7F0112DBB19019D8E05407FF25E0EC
:10DA7B004441FF12C3499019D9E0FF12C34912BEAA
:10DA8B00469019DAEFF07D01E4FF12DBB19019DA61
:02DA9B00E0FFAA
:01DA9D002266
:0BA0BA009019F7EFF0A3EDF0A3EBF01E
:10A0C5009019F8E0C39408748094805007E49019BF
:10A0D500FAF0800D9019FA7401F09019F8E024F85F
:10A0E500F09019F9E06039A3E0FF9019F7E025E059
:10A0F50024EDF582E4341BF583E5822FF582E43502
:10A1050083F583C083C082E0FF9019F8E0FEF87400
:10A1150001088002C333D8FC4FD082D083F0803A47
:10A125009019FAE0FF9019F7E025E024EDF582E4B7
:10A13500341BF583E5822FF582E43583F583C083EF
:10A14500C082E0FF9019F8E0FEF87401088002C3B0
:10A1550033D8FCF45FD082D083F09019FAE0FF90F9
:10A1650019F7E025E024EDF582E4341BF583E5825B
:10A175002FF582E43583F583E0FB9019F7E0FF9036
:10A1850019FAE07003FD80027D0112DAD79019FA01
:10A19500E0FF9019F7E025E024EDF582E4341BF5A6
:10A1A50083E5822FF582E43583F583E0FB9019F78B
:10A1B500E0FF9019FAE070047D1480027D1512DA33
:01A1C500D7C2
:01A1C6002276
:10DFFD009019D6EFF0A3EDF09019D6E0FFA3E070E5
:0BE00D00047D1280027D1312DA6322F2
:10E0B100E4FD7F0312DFFD9019D5EFF0E0FF1313AC
:07E0C10013541FF4540FFF7C
:01E0C8002235
:1098AF00E4FD7F0312DFFDEFF4FFE4F47E00EF54DD
:1098BF0003FFEE3395E0FDFC9019C6120B6F7D018F
:1098CF007F0112DFFDEFF4FFE4F47E00EE3395E04D
:1098DF00FDFCC004C005C006C0079019C6120B27B7
:1098EF007808120AA6A804A905AA06AB07D007D0C4
:1098FF0006D005D004120A449019C6120B6FE4FD6E
:10990F007F0112DFFDEFF4FFE4F47E00EE3395E00C
:10991F00FDFCC004C005C006C0079019C6120B2776
:10992F007808120AA6A804A905AA06AB07D007D083
:10993F0006D005D004120A449019C6120B6FE4909A
:10994F0019CEF0A3F09019CA120B7B000000009003
:10995F0019CEE0FEA3E0C39412EE94005078901954
:10996F00CA120B27C004C005C006C007E47F01FE62
:10997F00FDFC9019CEE0FAA3E0249CF58274E13A45
:10998F00F583E493F9F8120AA69019C6120B331255
:10999F000A37EC4D4E4F6013E47F01FEFDFC90192A
:1099AF00CEE0A3E0F9F8120AA68005E4FFFEFDFC65
:1099BF00AB07AA06A905A804D007D006D005D00486
:1099CF00120A449019CA120B6F9019CEE475F00168
:0C99DF001207EE02995E9019CA120B27C5
:0199EB002259
:10D76E007D127F0312DA639019C6EFF07D137F03EB
:10D77E0012DA639019C7EFF0E4A3F09019C6E054E3
:10D78E000470079019C8E04401F09019C6E0548067
:10D79E0070079019C8E04402F09019C7E054087061
:0BD7AE0005A3E04404F09019C8E0FF60
:01D7B900224D
:06C635009019D5120BFC68
:10C63B00E49019D8F09019D8E0C3941274809480C8
:10C64B00502E9019D5120BDC9019D8E0F58275831A
:10C65B00001206BDFF9019D8E090E19C9324D9F508
:10C66B0082E43419F583EFF09019D8E004F080C51B
:10C67B00E49019D8F09019D8E0C39410748094808A
:10C68B00501CE0FD24D9F582E43419F583E0540104
:10C69B00FB7F0212A0BA9019D8E004F080D7901952
:10C6AB00E9E05401FB7D0E7F0312A0BA9019EAE07A
:0AC6BB005401FB7D0F7F0312A0BAAB
:01C6C5002252
:05CBF5009019F5EFF0BE
:10CBFA00E0C3941274809480500BE090E19C93906F
:10CC0A0019F5F080069019F574FFF0E49019F6F022
:10CC1A009019F6E0C3941074809480501FE0FD9040
:10CC2A0019F5E0FFA3E06F60047B0180027B00E45A
:10CC3A00FF12A0BA9019F6E004F080D49019F5E03A
:10CC4A00641060047B0180027B007D0C7F0312A0CC
:10CC5A00BA9019F5E0641160047B0180027B007DC3
:06CC6A000D7F0312A0BAC9
:01CC700022A1
:10E0F6009019F5EFF0E070047B0180027B007D094A
:06E106007F0312A0BA2203
:10E10C009019BFEFF0E070047B0180027B007D086A
:06E11C007F0312A0BA22ED
:0FE1D1009019D5EFF0E0FB7D0A7F0312A0BA2270
:01E29B002260
:06E278009019D5EFF02221
:06E27E00E4FFFEFDFC229E
:06E28400E4FFFEFDFC2298
:07E271009019BF120B6F2290
:105B5F00000000000000000000000000001F000017
:105B6F000000001F1F000000001F1F1F0000001F6C
:105B7F001F1F1F00001F1F1F1F1F001F1F1F1F1F83
:105B8F001F1F1F1F1F1F1F1F0C12120C00000000D2
:105B9F0000000000000000000000000000000000F6
:105BAF0000000000000000000000000000000000E6
:105BBF0000000000000000000000000000000000D6
:105BCF0000000000000000000000000000000000C6
:105BDF0000000000000000000000000000000000B6
:105BEF0000000000000000000000000000000000A6
:105BFF000000000000000000000000000000000096
:105C0F000000000000000000000000000000000085
:105C1F000000000000000000000000000000000075
:105C2F000000000000000000000000000000000065
:105C3F00000000000000000404040404000409092B
:105C4F0012000000000A0A1F0A1F0A0A040F140E8E
:105C5F00051E0419190204081313040A0A0A15125F
:105C6F000D040408000000000204080808040208DC
:105C7F0004020202040804150E1F0E15040004048A
:105C8F001F040400000000000404080000001F00AF
:105C9F00000000000000000C0C01010204081010AD
:105CAF000E11131519110E040C040404040E0E1119
:105CBF00010204081F0E11010601110E02060A123D
:105CCF001F02021F101E0101110E0608101E1111D6
:105CDF000E1F0102040808080E11110E11110E0EED
:105CEF0011110F01020C000C0C000C0C00000C0C1D
:105CFF00000C04080204081008040200001F001F13
:105D0F000000080402010204080E1101020400043D
:105D1F000E11171517100F040A11111F11111E1153
:105D2F00111E11111E0E11101010110E1E0909094E
:105D3F0009091E1F10101C10101F1F10101F10100C
:105D4F00100E11101013110F1111111F1111110E2F
:105D5F0004040404040E0101010101110E111214B7
:105D6F00181412111010101010101F111B151111F3
:105D7F001111111119151311110E11111111110EFC
:105D8F001E11111E1010100E11111115120D1E11D2
:105D9F00111E1412110E11100E01110E1F04040406
:105DAF000404041111111111110E11111111110A05
:105DBF000411111115151B1111110A040A111111DA
:105DCF00110A040404041F01020408101F0E08081E
:105DDF000808080E101008040201010E0202020248
:105DEF00020E040A11000000000000000000001F56
:105DFF000C0C080400000000000E1212120D1010FF
:105E0F00101619111E00000E1010110E0101010DB8
:105E1F0013110F00000E111E100E040A081C0808A3
:105E2F000800000F110F01061010161911111100A3
:105E3F0004000C04040E0200060202120C101012D1
:105E4F00141814120C04040404040E00000A151193
:105E5F0011110000161911111100000E1111110E60
:105E6F0000001E1119161000000F11130D01000074
:105E7F000B0C08080800000E100E011E08081C0865
:105E8F00080A040000111111130D00001111110A5D
:105E9F00040000111115150A0000110A040A11005F
:105EAF0000110A04040800001F0204081F02040462
:105EBF000804040204040400040404080404020493
:105ECF000408000008050200001F1F1F1F1F1F1FCF
:0FE1E0007DC07F0212DEA57DE07F0212DEA52248
:080003007DC07F0212DEA52280
:06C479009019D5120BFC26
:10C47F00E49019DBF09019D8F09019D8E0C3940824
:10C48F0074809480507BE044A0FD7F0212DEA59063
:10C49F0019D5E475F001120BE51206A49019DAF024
:10C4AF00E07003A304F09019DBE060069019DA74D2
:10C4BF0020F09019DAE0D3947F748094805039E49F
:10C4CF009019D9F09019D9E0C394077480948050D3
:10C4DF0027E0FFA3E075F007905B5F120BD0E582BA
:10C4EF002FF582E43583F583E493FD7F0212DEA5F9
:10C4FF009019D9E004F080CC9019D8E004F002C470
:01C50F0088A3
:01C510002208
:10AE4A00486F6C64202563003E3E3E4F4B3C3C3CC1
:10AE5A00002D2D4F46462D2D004F56455254454D37
:10AE6A00500046414E4641494C25626400505752B3
:10AE7A00204F4E00505752204F46460046414E53EF
:10AE8A00253362642525004856204F4E0048562037
:10AE9A004F464600552562643A25342E31665600DF
:10AEAA00493A25352E32664100542562643A2534E2
:10AEBA002E3166080025733A2573004F4E004F461F
:10AECA0046004E2F4100443A25303262582530322E
:10AEDA006258253032625800543A25303262582579
:10AEEA0030326258253032625800253162783A256C
:10AEFA003032625825303262582530326258003278
:10AF0A003031382D31302D3130202D2063626439B3
:0FAF1A003466356161002D2D2D2D2D2D2D2D002F
:10D2AA00411BCE00411BCF00411BD000411BD100C6
:10D2BA00441BD200000000441BD600000000441B9F
:09D2CA00DA00000000411BDE0047
:09E2570012E1E0E4901BDFF0226B
:102CB60012E0C9901BD2120B3312095BE47B0AFAAD
:102CC600F9F8D3120A8240030234C112E0C9901BFC
:102CD600D2120B6FE49019CDF09019CCF09019CB6D
:102CE600F09019CAF012E0B19019C9EFF0901BDE0E
:102CF600E070509019C9E020E30D901BCEE030E360
:102D0600069019CB7401F09019C9E020E20D901BD2
:102D1600CEE030E2069019CA7401F09019C9E0209D
:102D2600E10D901BCEE030E1069019CC7401F090D5
:102D360019C9E020E00D901BCEE030E0069019CDD9
:102D46007401F09019C9E07004901BDEF09019C967
:102D5600E0600912E0C9901BDA120B6F12E0C9A8F5
:102D660004A905AA06AB07901BDA120B27EF2470FD
:102D7600FFEE3417FEE43DFDE43CFCD3120A82402C
:102D86000A901BDFE064086002E4F0901BDFE06459
:102D9600077015901BD1E02483F9E43419FA7B01FE
:102DA6009019CF120BFC8022901BDFE06403700E9B
:102DB6007B017A19794D9019CF120BFC800C7B019F
:102DC6007A19794B9019CF120BFC9019C9E020E1C2
:102DD60003022EB99019CF120BDC1206A45401601F
:102DE60003022EB9901BCEE020E10912E0C9901B28
:102DF600D6120B6F12E0C9901BD6120B3312095B69
:102E0600E47B0AFAF9F81209A59019CEEFF0E0C3AF
:102E16009405748094805003022EB9901BDE7401D1
:102E2600F0FB7A1979BCC003C002C0017BFF7AAE01
:102E3600794A9019D8120BFC9019CEE024FBFFE4D6
:102E460034FFC313EF139019DBF0D001D002D00387
:102E56001247797B017A1979BC12C4799019CEE0B0
:102E6600C39414748094804041A3120BDC74011245
:102E7600071D901BDFE06407700B7B017A197983CD
:102E860012C6358025901BDFE0640370077F0112B0
:102E9600E278801612E2417F0112E1D1E490194EE8
:102EA600F012E0C9901999120B6F9019C9E0901BA6
:102EB600CEF0229019C9E020E003022FA79019CF87
:102EC600120BDC1206A4540164016003022FA790C2
:102ED6001BCEE020E00912E0C9901BD6120B6F1240
:102EE600E0C9901BD6120B3312095BE47B0AFAF990
:102EF600F81209A59019CEEFF0E0C39405748094FA
:102F0600805003022FA7901BDE7401F0FB7A19791B
:102F1600BCC003C002C0017BFF7AAE794A9019D8C3
:102F2600120BFC9019CEE024FBFFE434FFC313EF31
:102F360013FFC374079F9019DBF0D001D002D003B2
:102F46001247797B017A1979BC12C4799019CEE0BF
:102F5600C3941474809480403FA3120BDCE41207E0
:102F66001D901BDFE06407700B7B017A19798312D1
:102F7600C6358024901BDFE064037006FF12E278FA
:102F8600801612E241E490194DF0FF12E278E4FF58
:102F960012E1D1E490194EF09019C9E0901BCEF0E1
:102FA600229019C9E0901BCEF09019CAE0601390E8
:102FB6001BDFE02401FFE433FE7C007D0B12076378
:102FC600EDF09019CBE06013901BDFE0240AFFE4DC
:102FD60033FE7C007D0B120763EDF0901BDFE012E1
:102FE6000CFD300D0030860130A702312203314C32
:102FF6000431B80531EF06325B07331D08344C093E
:1030060034560A000034C190194EE0702190194BD5
:10301600E0D3940074809480400A7BFF7AAE7952A4
:1030260012C479227BFF7AAE795B12C47922901999
:103036004EE05478600A7BFF7AAE796312C4792237
:1030460090194EE0540770030234C17B017A197956
:10305600BCC003C002C0017BFF7AAE796C9019D860
:10306600120BFC90194EE054079019DBF0D001D0FA
:1030760002D0031247797B017A1979BC12C47922EE
:1030860090194BE0D3940074809480400A7BFF7AB9
:10309600AE797712C479227BFF7AAE797E12C47933
:1030A600227B017A1979BCC003C002C0017BFF7A7A
:1030B600AE79869019D8120BFC90194CE09019DB6A
:1030C600F0D001D002D0031247797B017A1979BC7E
:1030D60012C4799019CCE0601A90194CE0C394643C
:1030E600748094805006E0240AFF80027F64901961
:1030F6004CEFF09019CDE0601A90194CE0D3940A89
:10310600748094804006E024F6FF80027F0A9019BE
:103116004CEFF090194CE0FF12D67E2290194DE04C
:10312600D3940074809480400B7BFF7AAE79911221
:10313600C47980097BFF7AAE799712C47990194DCC
:10314600E0FF12E278227B017A1979BCC003C00243
:10315600C0017BFF7AAE799E9019D8120BFC901BAA
:10316600CFE09019DBF0901BCF25E025E0244FF54A
:1031760082E43419F583120B279019DC120B6FD0F9
:1031860001D002D0031247797B017A1979BC12C4A7
:10319600799019CCE06008901BCFE0045403F090BE
:1031A60019CDE070030234C1901BCFE02403540311
:1031B600F0227B017A1979BCC003C002C0017BFFF3
:1031C6007AAE79AA9019D8120BFC90195F120B27C8
:1031D6009019DB120B6FD001D002D0031247797B16
:1031E600017A1979BC12C479227B017A1979BCC09B
:1031F60003C002C0017BFF7AAE79B39019D8120BD7
:10320600FC901BD0E09019DBF0901BD025E025E068
:10321600246FF582E43419F583120B279019DC121A
:103226000B6FD001D002D0031247797B017A19794E
:10323600BC12C4799019CCE06008901BD0E004540D
:1032460003F09019CDE070030234C1901BD0E02446
:10325600035403F0227B017A1979BCC003C002C073
:10326600017BFF7AAE79BF9019D8120BFC901BD167
:10327600E075F010A4FF901996120BDCE92FF9EA1D
:1032860035F0FAE92415F9EA3401FA9019DB120B44
:10329600FC901BD1E02483F582E43419F583E030F9
:1032A600E721901BD1E02483F582E43419F583E00D
:1032B60030E0087BFF7AAE79C580067BFF7AAE796F
:1032C600C880067BFF7AAE79CC9019DE120BFCD053
:1032D60001D002D0031247797B017A1979BC12C456
:1032E600799019CCE06013901BD1E02401FFE43300
:1032F600FE7C007D12120763EDF09019CDE070039D
:103306000234C1901BD1E02411FFE433FE7C007D22
:1033160012120763EDF022901BD1E0FF7B017A19B0
:1033260079D2C002C0017A19099019D9120BFC7A18
:1033360019099019DC120BFCD001D00212D4D490DA
:103346001BD1E06410703C7B017A1979BCC003C0C4
:1033560002C0017BFF7AAE79D09019D8120BFC908F
:1033660019D2E09019DBF09019D3E09019DCF090B7
:1033760019D4E09019DDF0D001D002D003124779BC
:1033860002340D901BD1E06411703B7B017A1979F0
:10339600BCC003C002C0017BFF7AAE79E29019D8A7
:1033A600120BFC9019D2E09019DBF09019D3E09043
:1033B60019DCF09019D4E09019DDF0D001D002D0DC
:1033C6000312477980417B017A1979BCC003C00298
:1033D600C0017BFF7AAE79F49019D8120BFC901BD2
:1033E600D1E09019DBF09019D2E09019DCF0901939
:1033F600D3E09019DDF09019D4E09019DEF0D001F9
:10340600D002D0031247797B017A1979BC12C479AC
:103416009019CCE06013901BD1E02401FFE433FE49
:103426007C007D12120763EDF09019CDE070030267
:1034360034C1901BD1E02411FFE433FE7C007D12E1
:10344600120763EDF0227B017A05792C12C47922EA
:103456007BFF7AAF79097D2D12CC71EA494B605218
:103466007BFF7AAF79097D2D12CC71E92402F9E44C
:103476003AFA9019C6120BFC9019BC7423F07B0122
:103486007A1979BDC003C002C0019019C6120BDCBF
:103496009019D8120BFC9019DBE4F0A37407F0D056
:1034A60001D002D00312D1C97B017A1979BC12C4AA
:0B34B60079227BFF7AAF792012C479E5
:0134C10022E8
:0CD52B009019CDEFF0A3EDF0A3120BFC63
:10D53700E4FDFF12DBB19019CDE0FFC454F0FFA367
:10D54700E0540F4FFF12C349E49019D3F09019D25A
:10D55700E0FFA3E0C39F501912BE469019CFE475B0
:10D56700F001120BE5EF12071D9019D3E004F080CC
:08D57700DC7D01E4FF12DBB1D1
:01D57F002289
:10DEE7009019D5EFF0A3EDF0E4FDFF12DBB1901927
:10DEF700D5E0FFC454F0FFA3E0540F4FFF12C3490E
:01DF070022F7
:08E269007D01E4FF12DBB1228C
:0BE236009019D0EFF0E0FF12C3492266
:10962B00E4FD7F0712DEE7E49019BEF09019BEE06F
:10963B00C3940A74809480400302972FE07042E039
:10964B00FD7F0A12DEE79019C1E4F0A374F0F090ED
:10965B0019C1E0FEA3E0FFEEC4F854F0C868EFC4F4
:10966B00540F48FF12E2369019C1E0A3E0540FC427
:10967B00F8540FC868FFE4C454F04812E23612E203
:10968B00699019BEE0FD7F0C12DEE79019BEE07009
:10969B00159019C17408F0A3E4F09019BF7407F08A
:1096AB00A374FFF0800F9019BF740FF0A374FFF039
:1096BB00E4A3F0A3F09019BFE0FEA3E0FFEEC4F823
:1096CB0054F0C868EFC4540F48FF12E2369019BF2C
:1096DB00E0A3E0540FC4F8540FC868FFE4C454F07F
:1096EB004812E2369019C1E0FEA3E0FFEEC4F85435
:1096FB00F0C868EFC4540F48FF12E2369019C1E06E
:10970B00A3E0540FC4F8540FC868FFE4C454F048E6
:10971B0012E2367F3A12E23612E2699019BEE00489
:10972B00F0029637E4FD7F0D12DEE77FFF12E23683
:10973B007FFF12E236E4FF12E236E4FF12E2367FDD
:10974B001512E23612E26912E2419019C4120B7B38
:10975B00000000009019C8120B7B41F00000E4FFE1
:03976B001289BAA6
:01976E0022D8
:0589BA009019C3EFF06D
:1089BF00E0FD7F0C12DEE79019C3E07034FBFAF98B
:1089CF00783EA3120B2712022712037B9019CCEECD
:1089DF00F0A3EFF0E4FBFAF9783E9019C8120B27D9
:1089EF0012022712037B9019CEEEF0A3EFF0028B49
:1089FF00179019C3E0640270119019CCF0A3F0A383
:108A0F00740FF0A374FFF0028B179019C3E0640387
:108A1F007070FFFEFD7C40A3120B3312011EE4FBAE
:108A2F00FA79A07841120227E4FBFA7920784012F4
:108A3F000227E4FBFA7980784512011E12037B901E
:108A4F0019CCEEF0A3EFF0E4FFFEFD7C409019C8C7
:108A5F00120B3312011EE4FBFA79A07841120227A0
:108A6F00E4FBFA79207840120227E4FBFA79807848
:108A7F004512011E12037B9019CEEEF0A3EFF00208
:108A8F008B179019C3E0C3940774809480406AE0F9
:108A9F00D394097480948050607F0A7ED77D237CA5
:108AAF003CA3120B3312011EE4FBFA79207840121B
:108ABF000227E4FBFA7980784512011E12037B909E
:108ACF0019CCEEF0A3EFF07F0A7ED77D237C3C908C
:108ADF0019C8120B3312011EE4FBFA7920784012E9
:108AEF000227E4FBFA7980784512011E12037B906E
:108AFF0019CEEEF0A3EFF0800FE49019CCF0A3F0B5
:108B0F00A3740FF0A374FFF09019CEE0FEA3E0FF63
:108B1F00EEC4F854F0C868EFC4540F48FF12E236A1
:108B2F009019CEE0A3E0540FC4F8540FC868FFE4C7
:108B3F00C454F04812E2369019CCE0FEA3E0FFEEE9
:108B4F00C4F854F0C868EFC4540F48FF12E23690CF
:108B5F0019CCE0A3E0540FC4F8540FC868FFE4C465
:0E8B6F0054F04812E2367F3A12E23612E26902
:018B7D0022D5
:0BE24100E4FD7F0912DEE712E2692213
:05921B009019C6EFF000
:10922000E0FD7B017A1979C79019D27402F0FF1220
:10923000D52B9019C7E0FEA3E0FFEEC4F854F0C8A8
:1092400068FCEFC4540F48FDE4120342E4FBFA79D2
:1092500020784012011EE4FBFA798078451202273B
:109260009019C9120B6F9019C6E0120CFD928C0078
:1092700092A60192BE0292ED03930604931F0593FA
:1092800038079338089338090000934F9019C91292
:109290000B277BCD7ACC794C784312011E9019C9EB
:1092A000120B6F02934F9019C9120B27E4FBFAF9C6
:1092B000784012011E9019C9120B6F02934F90193A
:1092C000C9120B27E4FBFA79A07841120227901902
:1092D000C9120B6F9019C9120B277B0A7AD779A391
:1092E000783B1202279019C9120B6F80629019C93E
:1092F000120B277BCD7ACC79CC783D1202279019BE
:10930000C9120B6F80499019C9120B277BCD7ACCFB
:10931000794C783E1202279019C9120B6F80309059
:1093200019C9120B277B907AC279F5783E12022771
:109330009019C9120B6F80179019C9120B277B0A5D
:109340007AD77923783C1202279019C9120B6FE45F
:10935000FFFE7DC87C429019C9120B3312011EE436
:10936000FBFAF9783F12002D12A8CEE4FBFA79C877
:1093700078421202279019C9120B6F9019C9120B6B
:0193800027C5
:0193810022C9
:10D7BA007B017A1979C69019D27403F0E4FD7F01CE
:10D7CA0012D52B9019C6E0FFE4FCFDFE7810120A70
:10D7DA00A6C006C007A3E07F00FE7B00FA3395E0EF
:10D7EA00F9F8D007D006120A44A804A905AA06AB7C
:0BD7FA0007A3E0FFE4FCFDFE120A4460
:01D805002200
:10703300434D420055504752414445000132000040
:1070430000506F77657200000001194B015A000070
:107053000046616E730000000001194C013200000C
:107063000048566F6E0000000001194D0134000006
:10707300004572726F7200000001194E041800007F
:107083000155332E330000000001194F041800008E
:107093000155352E3000000000011953041800007B
:1070A3000155313200000000000119570418000097
:1070B30001553234000000000001195B0406000092
:1070C30001490000000000000001195F04180000DE
:1070D30001485664656D616E64011963041800000C
:1070E3000148566D65617300000119670406FA00D3
:1070F30001485663757272000001196B04080000A1
:1071030001543000000000000001196F0408000062
:10711300015431000000000000011973040800004D
:107123000154320000000000000119770408000038
:1071330001543300000000000001197B0408000023
:1071430001545F4F464600000001197F01320000E1
:107153000057443000000000000119830132000091
:10716300005744310000000000011984013200007F
:10717300005744320000000000011985013200006D
:10718300005744330000000000011986013200005B
:107193000057443400000000000119870132000049
:1071A3000057443500000000000119880132000037
:1071B3000057443600000000000119890132000025
:1071C30000574437000000000001198A0132000013
:1071D30000574438000000000001198B0132000001
:1071E30000574439000000000001198C01320000EF
:1071F30000574431300000000001198D01320000B6
:1072030000574431310000000001198E01320000A3
:1072130000574431320000000001198F0132000091
:10722300005744313300000000011990013200007F
:10723300005744313400000000011991013200006D
:10724300005744313500000000011992013200005B
:107253000044434200000000000119930132000082
:10726300005443420000000000011994013700005C
:1072730004535049000000000000000001340000E6
:10728300005350495F534C5400011995000000000E
:0C729300000000000000000000000000EF
:0DD2D300431996FF703F44188700000000CB
:10B2960012E18975840F75E104E4F5E275E3407502
:10B2A600A4FF75A5FF75A6FF75A7FF759DFE759E84
:10B2B6007F7580E0F590F5A075B0FF75D8FF75E84D
:10B2C600FF758A83F597F589F58475B71075840F30
:10B2D600438901758D01758F01758E029019BCF039
:10B2E600A3F09019BCE0FEA3E0C3EE9401500C90CD
:10B2F60019BCE475F0011207EE80E7438902E49079
:10B3060019BCF0A3F09019BCE0FEA3E0FFE4FCFD3D
:10B316007B507AC3F9F8D3120A6C4011E5895410B0
:10B32600700B9019BC75F0011207EE80D875970264
:10B33600E4F58475A3D775A1B7C2847F0AFE12DA35
:10B346009EC2857D08E4FF12D720D2BC12D0807A37
:10B35600007B967D037F0012B69C7A007B967D0368
:05B366007F0112B69CFE
:01B36B0022BF
:05A3E1009019BCEFF033
:10A3E600E06047E490194BF0A37464F0E4A3F090A6
:10A3F6001963120B7B00000000E49019BDF0901960
:10A40600BDE0C39412748094805015E02483F582D5
:10A41600E43419F5837401F09019BDE004F080DE90
:10A4260090197F120B7B42480000E490194EF012FF
:10A43600E0E012000312CA7C12E14D12962B90192D
:10A44600C4120B7B0000000090197F120B27901995
:10A45600C8120B6FE4FF1289BA9019C4120B7B0065
:10A4660000000090197F120B279019C8120B6F7FFE
:10A47600071289BA9019C4120B7B000000009019CC
:10A486007F120B279019C8120B6F7F081289BA909A
:10A4960019C4120B7B0000000090197F120B279045
:10A4A60019C8120B6F7F091289BA12E257E4901984
:10A4B600BDF09019BDE0C394227480948050137B44
:10A4C600007A007900E0FF12B9929019BDE004F01D
:10A4D60080E0E49018AEF01287E8E49019B3F0A398
:01A4E600F085
:01A4E7002252
:10B9920090FFFD120D23120BFC90FFFF120D23EFFF
:07B9A200F090FFFE120D23DF
:10B9A900851083851182A3A3E06423707790000337
:10B9B900120D47120BDC1206A4540785108385115A
:10B9C90082F0A37402F0851083851182E064077008
:10B9D9001A900003120D47120BDC9000011206BDEC
:10B9E900851083851182F0A37403F0851083851176
:10B9F90082E014F0E0FF7E00900003120D47120B65
:10BA0900DC851083851182A3E07C0029F9EC3AFAE0
:10BA1900780B7C197D0112067E851083851182E0E1
:10BA29009019B5F0851083851182A3A3E0248BF5C5
:09BA390082E43418F5837401F075
:07BA4200900006120D232203
:10C20F0090FFFD120D23120BFC90FFFF120D23EF79
:07C21F00F090FFFE120D2359
:10C22600851083851182A3A3E06423707085108333
:10C23600851182F0A3F0851083851182E0FEA3E0CC
:10C24600C3EE9401504B9019B3E0FFA3E06F604139
:10C256009019B3E024CBF582E43418F583E0FF901F
:10C266000003120D47120BDC851083851182E0FC5A
:10C27600A3E0F5828C83EF12072F9019B3E00454E4
:10C286003FF0851083851182E475F0011207EE8078
:0FC29600A5851083851182E0A3E0FF80027F0061
:07C2A500900006120D232298
:1087E80090188BE0602D12E24112DD7EE47B05FAE1
:1087F800F9F8D3120A82500890194BE0FF12E1D120
:10880800E490194EF012E0C9901999120B6FE49098
:10881800188BF090188CE0602D90194CE0D394647C
:108828007480948040037464F090194CE0C3940AF7
:10883800748094805003740AF090194CE0FF12D6AB
:108848007EE490188CF090188DE0600D90194DE042
:10885800FF12E278E490188DF0901894E0600E9082
:108868001963120B2712E271E4901893F090189B89
:10887800E0606F9019C4120B7B0000000090197F14
:10888800120B279019C8120B6FE4FF1289BA9019BE
:10889800C4120B7B0000000090197F120B2790195F
:1088A800C8120B6F7F071289BA9019C4120B7B008C
:1088B80000000090197F120B279019C8120B6F7FC8
:1088C800081289BA9019C4120B7B00000000901995
:1088D8007F120B279019C8120B6F7F091289BA12E1
:1088E800E241E49019BEF09019BEE0C3941274807E
:1088F8009480506EE0249CF582E43418F583E0609F
:10890800597B017A19798312C6359019BEE0248300
:10891800F582E43419F583E05402D394007480940A
:108928008040289019BEE0FF12CBF57F0112E10CC0
:10893800E4FF12E10C7FFF12CBF59019BEE024830F
:10894800F582E43419F583E054FDF09019BEE02473
:108958009CF582E43418F583E4F09019BEE004F045
:1089680080859018AEE06049901995E0FF12CBF52C
:10897800E4FD7F0312DBB1E49019BEF09019B5E075
:10898800FF9019BEE0C39F5017E0240BF582E43432
:1089980019F583E0FF12C3499019BEE004F080DCAA
:1089A8007D01E4FF12DBB17FFF12CBF5E49018AE36
:0189B800F0CE
:0189B900229B
:10DE60009019B4E0FF9019B3E0B50716A3E024CBF6
:10DE7000F582E43418F5837458F09019B4E0045432
:03DE80003FF0224E
:10DBE3009019E7EFF0E0D394117480948040037FA1
:10DBF30000229019E7E02483F582E43419F583E0E9
:10DC03005480D394007480948040047F0180027F09
:02DC13000022ED
:10BDA2007E007F167D007B017A19799D1211827EB9
:10BDB200007F4B7D007B017A19794B121182E4F5E9
:10BDC200849019BCF0A37480F0758F049019BCE0C4
:10BDD200FEA3E0AA06F97BFF789D7C197D017E0017
:10BDE2007F1612067E9019BCE4F0A37496F09019A7
:10BDF200BCE0FEA3E0AA06F97BFF784B7C197D012B
:10BE02007E007F4B12067EE4F58F9019B1E0FEA30F
:10BE1200E064347003EE6412602774FF90199DF0A1
:10BE2200A3F0A3F0A3F0FB7A70793378A17C197D9B
:10BE320001120FBB9019B17412F0A37434F07F0198
:03BE4200227F005C
:01BE450022DA
:10CCEB0012E189C2AFE4F5847812F608768043B777
:10CCFB0001758F0718E6FE08E6F5828E83E4F07562
:10CD0B008F0518F60876807B017A19799DC0021879
:10CD1B00E6FE08E6AA06F8AC027D01D0027E007F93
:10CD2B001612067E781276000876967B017A1979B0
:10CD3B004BC00218E6FE08E6AA06F8AC027D01D04D
:10CD4B00027E007F4F12067E53B7FEE4F58FD2AF03
:05CD5B007F0A12E066F2
:01CD600022B0
:107BE80012E0C9901887120B3312095BE47B0AFA7A
:107BF800F9F8D3120A824003027E3212E0C99018C3
:107C080087120B6F1298AF9019C2120B6FE490197C
:107C1800C1F09019C1E0C39412748094805045E477
:107C28007F01FEFDFCE0F9F8120AA6A3120B33123D
:107C38000A37EC4D4E4F60139019C1E02483F5824A
:107C4800E43419F583E04480F080119019C1E024F0
:107C580083F582E43419F583E0547FF09019C1E08C
:107C680004F080AE7F0112921B90194F120B6F7FA8
:107C78000512921B901953120B6F7F0412921B90DE
:107C88001957120B6F7F0312921B90195B120B6F1F
:107C980090194BE0700C90195F120B7B00000000EC
:107CA800800B7F0212921B90195F120B6F12E27EFB
:107CB800901967120B6F12E28490196B120B6FE424
:107CC800FF12921B90196F120B6F7F0712921B9075
:107CD8001973120B6F7F0812921B901977120B6F92
:107CE8007F0912921B90197B120B6FE4FFFE7D80B7
:107CF8007CBF90197F120B3312002D90196F120B55
:107D0800331202C45051E4FFFE7D807CBF90197F7E
:107D1800120B3312002D901973120B331202C45038
:107D280036E4FFFE7D807CBF90197F120B33120072
:107D38002D901977120B331202C4501BE4FFFE7DFD
:107D4800807CBF90197F120B3312002D90197B1283
:107D58000B331202C4400C90194C7464F090188CC8
:107D68007401F012D7BA9019BC120B6FE4FFFEFD34
:107D7800FC9019BC120B33D3120A82405312E0C98B
:107D8800E47B2C7A01F9F8C3120A825043E4FF120B
:107D9800E278E4FF12E1D19019BC120B27EC4D4EAA
:107DA8004F600790194EE04410F09019BC120B2751
:107DB800EC4D4E4F600790194EE04420F09019BCEE
:107DC800120B27EC4D4E4F600790194EE04440F0DF
:107DD80090194BE0605412E0C9A804A905AA06ABA3
:107DE80007901999120B27EF24F4FFEE3401FEE4F3
:107DF8003DFDE43CFCD3120A82402F12D76E901945
:107E0800C0EFF0E030E00790194EE04401F090191F
:107E1800C0E030E10790194EE04402F09019C0E04C
:0A7E280030E20790194EE04404F028
:017E3200222D
:10BA4900E4F58475EF029019BA7464F09019BAE0BC
:10BA5900D39400748094804005E014F080EE12B213
:10BA690096E4FF12E1D1C210C20F12BDA29019BA19
:10BA7900EFF0E0FF12A3E112DFE17F0A12E0669026
:10BA890019BB7401F0200D0E200E0B7A007B327D5C
:10BA9900017F0012B69C30100AC21012CCEBD20DF5
:10BAA90012BDA2300F15C20F7BFF7A70793712C40D
:10BAB900797F0A7E0012DA9E12F0009019BBE060CD
:10BAC9001C12DD7EE47B05FAF9F8D3120A82500DC7
:10BAD900E49019BBF090188B04F01287E87F0012EC
:10BAE900D011123CAB122CB6127BE81287E812DE99
:03BAF900608092D8
:01BAFC002227
:10F00000C2AF7584015398FC75FFDE75FFADE478DF
:10F0100013F618F6E4F584209848E47817F608F615
:0FF0200020983BC37818E6948818E69413502F75
:10F02F0075270AD3E52794007480948040177528BC
:10F03F0002D3E52894007480948040050015288041
:05F04F00F0152780DE32
:10F05400781806E61870C50680C2B28280B57812A8
:10F06400A699C298E6FF7E00641A600302F1BB7899
:10F0740017F608F620983BC37818E6948818E694A7
:03F0840013502FF7
:10F0870075290AD3E5299400748094804017752A5E
:10F0970002D3E52A940074809480400500152A80E5
:05F0A700F0152980DED8
:10F0AC00781806E61870C50680C220980302F01482
:10F0BC007813A699C298E47817F608F620983BC303
:0BF0CC007818E6948818E69413502F83
:10F0D700752B0AD3E52B9400748094804017752C08
:10F0E70002D3E52C940074809480400500152C8091
:05F0F700F0152B80DE86
:10F0FC00781806E61870C50680C220980302F01432
:10F10C007813A699C298E47817F608F620983BC3B2
:0BF11C007818E6948818E69413502F32
:10F12700752D0AD3E52D9400748094804017752EB1
:10F1370002D3E52E940074809480400500152E803C
:05F14700F0152D80DE33
:10F14C00781806E61870C50680C220980302F014E1
:0AF15C007813A699C298D284C299D4
:10F16600752F14D3E52F9400748094804017753062
:10F1760002D3E530940074809480400500153080F9
:05F18600F0152F80DEF2
:06F18B007599783099FD32
:10F1910075310AD3E531940074809480401775323B
:10F1A10002D3E532940074809480400500153280CA
:05F1B100F0153180DEC5
:10F1B600C28402F976EF64504E600302F2C67817F5
:10F1C600F608F620983BC37818E6948818E6941358
:02F1D600502FB8
:10F1D80075330AD3E53394007480948040177534EE
:10F1E80002D3E5349400748094804005001534807F
:05F1F800F0153380DE7C
:10F1FD00781806E61870C50680C220980302F01430
:0AF20D007813A699C298D284C29922
:10F21700753514D3E535940074809480401775369E
:10F2270002D3E5369400748094804005001536803B
:05F23700F0153580DE3A
:08F23C007599793099FDC29922
:10F24400753714D3E537940074809480401775386B
:10F2540002D3E5389400748094804005001538800A
:05F26400F0153780DE0B
:08F269007599013099FDC2996D
:10F27100753914D3E5399400748094804017753A38
:10F2810002D3E53A940074809480400500153A80D9
:05F29100F0153980DEDC
:06F29600E4F5993099FD3A
:10F29C00753B0AD3E53B9400748094804017753C11
:10F2AC0002D3E53C940074809480400500153C80AA
:05F2BC00F0153B80DEAF
:10F2C100C28402F9767812E6FF7E006401600302CF
:06F2D100F359D284C2993A
:10F2D700753D14D3E53D9400748094804017753EC6
:10F2E70002D3E53E940074809480400500153E806B
:05F2F700F0153D80DE72
:08F2FC007599783099FDC29963
:10F30400753F14D3E53F9400748094804017754092
:10F3140002D3E54094007480948040050015408039
:05F32400F0153F80DE42
:06F32900E4F5993099FDA6
:10F32F0075410AD3E541940074809480401775426B
:10F33F0002D3E5429400748094804005001542800A
:05F34F00F0154180DE15
:10F35400C28402F976EF64024E600302F4837817E4
:10F36400F608F620983BC37818E6948818E69413B8
:02F37400502F18
:10F3760075430AD3E543940074809480401775441E
:10F3860002D3E544940074809480400500154480BF
:05F39600F0154380DECC
:10F39B00781806E61870C50680C220980302F01490
:10F3AB007813A699C298E408F618E6FF13B3928275
:10F3BB00EF25E0FEC3E49400EE94F0502CE6FD7FC5
:10F3CB000025E0FEC394E05020ED20E023E4F5841B
:10F3DB0043B701758F037819EEF608EFF6F5828EB9
:10F3EB0083F053B7F0F58F8004781476FFE4F5843F
:04F3FB00D284C2995D
:10F3FF00754514D3E5459400748094804017754685
:10F40F0002D3E54694007480948040050015468031
:05F41F00F0154580DE40
:08F424007599783099FDC29939
:10F42C00754714D3E5479400748094804017754851
:10F43C0002D3E54894007480948040050015488000
:05F44C00F0154780DE11
:08F451007814E6F5993099FDED
:10F4590075490AD3E5499400748094804017754A28
:10F4690002D3E54A940074809480400500154A80CF
:05F47900F0154980DEE2
:10F47E00C28402F9767812E66403600302F67078AD
:10F48E0017F608F620983BC37818E6948818E69489
:03F49E0013502FD9
:10F4A100754B0AD3E54B9400748094804017754CDA
:10F4B10002D3E54C940074809480400500154C8083
:05F4C100F0154B80DE98
:10F4C600781806E61870C50680C220980302F01464
:10F4D6007813A699C298E47817F608F620983BC3E5
:0BF4E6007818E6948818E69413502F65
:10F4F100754D0AD3E54D9400748094804017754E84
:10F5010002D3E54E940074809480400500154E802E
:05F51100F0154D80DE45
:10F51600781806E61870C50680C220980302F01413
:10F526007815A699C2987813E6FF139282EF25E024
:10F53600FEC3E49400EE94F0400302F014E625E0E6
:10F54600FCC394E0400302F014E4F58443B701756C
:10F556008F017815E675F020A42400FFE5F03C78CD
:10F5660019F608A607E4F5847816F67816E6C39425
:10F5760020748094805063E408F608F620983BC314
:0BF586007818E6948818E69413502FC4
:10F59100754F0AD3E54F94007480948040177550DD
:10F5A10002D3E5509400748094804005001550808A
:05F5B100F0154F80DEA3
:10F5B600781806E61870C50680C220980302F01473
:10F5C60078190806E618860670010614F5828E83F9
:10F5D600E599F0C2987816068091E4F58453B7F061
:08F5E600F58FF584D284C2996F
:10F5EE00755114D3E5519400748094804017755270
:10F5FE0002D3E55294007480948040050015528029
:05F60E00F0155180DE43
:08F613007599783099FDC29948
:10F61B00755314D3E553940074809480401775543C
:10F62B0002D3E554940074809480400500155480F7
:05F63B00F0155380DE14
:06F64000E4F5993099FD8C
:10F6460075550AD3E5559400748094804017755615
:10F6560002D3E556940074809480400500155680C8
:05F66600F0155580DEE7
:10F66B00C28402F9767812E6FD7C00640460030222
:10F67B00F78F7817F608F620983BC37818E694882E
:06F68B0018E69413502F55
:10F6910075570AD3E55794007480948040177558C4
:10F6A10002D3E55894007480948040050015588079
:05F6B100F0155780DE9A
:10F6B600781806E61870C50680C220980302F01472
:10F6C6007813A699C298E625E0781BF6087600E43A
:10F6D6007814F67817F608F6781B0806E6188606F4
:10F6E60070010614F5828E83E493781426F6781852
:10F6F60006E6187001067818E6B400DC18E6B402CF
:05F70600D7D284C29976
:10F70B00755914D3E5599400748094804017755A39
:10F71B0002D3E55A940074809480400500155A80FA
:05F72B00F0155980DE1D
:08F730007599783099FDC2992A
:10F73800755B14D3E55B9400748094804017755C06
:10F7480002D3E55C940074809480400500155C80C9
:05F75800F0155B80DEEE
:08F75D007814E6F5993099FDDE
:10F76500755D0AD3E55D9400748094804017755EDD
:10F7750002D3E55E940074809480400500155E8098
:05F78500F0155D80DEBF
:10F78A00C28402F976ED64054C600302F96A7817BF
:10F79A00F608F620983BC37818E6948818E694137E
:02F7AA00502FDE
:10F7AC00755F0AD3E55F9400748094804017756090
:10F7BC0002D3E5609400748094804005001560804D
:05F7CC00F0155F80DE76
:10F7D100781806E61870C50680C220980302F01456
:10F7E1007813A699C298E47817F608F620983BC3D7
:0BF7F1007818E6948818E69413502F57
:10F7FC0075610AD3E561940074809480401775623A
:10F80C0002D3E562940074809480400500156280F8
:05F81C00F0156180DE23
:10F82100781806E61870C50680C220980302F01405
:0AF831007815A699C298D284C299F6
:10F83B00756314D3E56394007480948040177564EA
:10F84B0002D3E564940074809480400500156480B5
:05F85B00F0156380DEE2
:08F8600075997F3099FDC299F2
:10F86800756514D3E56594007480948040177566B7
:10F8780002D3E56694007480948040050015668084
:05F88800F0156580DEB3
:10F88D007599203099FD7813E625E0FC7815E6751D
:10F89D00F020A42400FFE5F03C781BF608A607E451
:10F8AD007814F67816F67816E6C394207480948052
:04F8BD005053C29949
:10F8C100756714D3E5679400748094804017756858
:10F8D10002D3E56894007480948040050015688027
:05F8E100F0156780DE58
:10F8E600781BE6FE08E6F5828E83E493F599309957
:10F8F600FD781B0806E618860670010614F5828E4A
:0EF9060083E493781426F678160680A1C29941
:10F91400756914D3E5699400748094804017756AFE
:10F9240002D3E56A940074809480400500156A80CF
:05F93400F0156980DE02
:08F939007814E6F5993099FD00
:10F94100756B0AD3E56B9400748094804017756CD5
:10F9510002D3E56C940074809480400500156C809E
:05F96100F0156B80DED3
:10F96600C284800C7812E664067005F58475EF1083
:0CF976007812E66407600302F014D2AFC0
:01F982002262
:05C753009019E7EFF072
:10C75800E09019ECF0E4FF12E20D7F0112E0F69090
:10C7680019ECE0FF12CBF57F0612C3E17FFF12CB75
:10C77800F59019ECE0FF12CBF57FD812C3E19019C0
:10C78800E8120B277810120A93EFE412C3E190190C
:10C79800E8120B277808120A93EFE412C3E1901904
:10C7A800E8120B27EFE412C3E17FFF12CBF59019D3
:10C7B800ECE0FF12CBF57F0512C3E112BEE9901938
:10C7C800EDEFF0E020E0F47FFF12CBF5E4FF12E09C
:06C7D800F67F0112E20DE4
:01C7DE002238
:0BB441009019E7120BFC9019EAEDF0E7
:10B44C00E09019F1F0E4FF12E20D7F0112E0F690AA
:10B45C0019F1E0FF12CBF57F0612C3E17FFF12CB8F
:10B46C00F59019F1E0FF12CBF57F0212C3E19019B0
:10B47C00EB120B277810120A93EFE412C3E1901928
:10B48C00EB120B277808120A93EFE412C3E1901920
:10B49C00EB120B27EFE412C3E1E49019F3F0A3F0E5
:10B4AC009019EFE0FEA3E0FF9019F3E0FCA3E0C3DA
:10B4BC009FEC9E50249019E7120BDC9019F3E0FEE0
:10B4CC00A3E0F5828E831206BDFF12C3E19019F33F
:10B4DC00E475F0011207EE80C77FFF12CBF59019CF
:10B4EC00F1E0FF12CBF57F0512C3E112BEE9901912
:10B4FC00F2EFF0E020E0F47FFF12CBF5E4FF12E076
:06B50C00F67F0112E20DC2
:01B512002216
:0BBF8C009019E7120BFC9019EAEDF091
:10BF9700E09019F1F0E4FF12E20D7F0112E0F69054
:10BFA70019F1E0FF12CBF57F0312C3E19019EB12F1
:10BFB7000B277810120A93EFE412C3E19019EB12E2
:10BFC7000B277808120A93EFE412C3E19019EB12DA
:10BFD7000B27EFE412C3E1E49019F2F0A3F09019F4
:10BFE700EFE0FEA3E0FF9019F2E0FCA3E0C39FECB3
:10BFF7009E502412BEE99019E7120BDC9019F2E06B
:10C00700FCA3E0F5828C83EF12072F9019F2E475F9
:10C01700F0011207EE80C77FFF12CBF5E4FF12E0B5
:06C02700F67F0112E20D9C
:01C02D0022F0
:10D4D4009019D5EFF0A3120BFCE4FF12E20D7F01CB
:10D4E40012E0F69019D5E0FF12CBF57F9F12C3E14D
:10D4F40012BEE99019D6120BDCEF12071D12BEE919
:10D504009019D9120BDCEF12071D12BEE99019DC39
:10D51400120BDCEF12071D7FFF12CBF5E4FF12E0C4
:07D52400F67F0112E20D2267
:0300000002C51125
:10C51100787FE4F6D8FD75102075110075816F02E2
:02C52100C55EF5
:05D2E00042164A0000A7
:10DDF50090166274FFF07E027F247D007B017A1607
:10DE050079631211827E007F167D007B017A167977
:04DE15004C02118228
:0FDB49009019D0EBF0A3EAF0A3E9F0A3120B6F51
:10DB58007E007F047D007B017A1B79A612118290DA
:10DB6800165C7401F09019D0E0FBA3E0FAA3E0F989
:04DB7800A31253C2DF
:01DB7C002286
:10DF6900E4FFFE90165CE060157407F07B007A0010
:0EDF790079007D007C001253CDE490165CF020
:01DF87002277
:06A9BE009019E0120B6F7E
:10A9C40090165DE0600302AA9A90165CE0C39409B5
:10A9D400500302AA9A7B007A0079009019E012537E
:10A9E400C29019E4EEF0A3EFF064014E700302AAE2
:10A9F4009290165CE0B40A47E47B02FAF9F89016E8
:10AA04004CE0FCA3E0FDA3E0FEA3E0FF1209A59047
:10AA14001654E0F8A3E0F9A3E0FAA3E0FBC3120A9A
:10AA240082701C901654E0FCA3E0FDA3E0FEA3E0BA
:10AA3400FFE47B02FAF9F81209A5901654804C90B1
:10AA4400165CE0B40B48E47B08FAF9F890164CE085
:10AA5400FCA3E0FDA3E0FEA3E0FF1209A5901658B5
:10AA6400E0F8A3E0F9A3E0FAA3E0FBC3120A8270C2
:10AA74001D901658E0FCA3E0FDA3E0FEA3E0FFE474
:10AA84007B02FAF9F81209A5901658120B6F90166A
:10AA94005C7409F080089019E4E4F0A304F09019C0
:06AAA400E4E0FEA3E0FF68
:01AAAA002289
:10AD660090165DE0600302AE4990165CE0C394095C
:10AD7600500302AE4990164BE004F0700690164A56
:10AD8600E004F090164AE07004A3E0646470289032
:10AD9600164AF0A3F0901650E0FCA3E0FDA3E0FEF7
:10ADA600A3E024FFFFEE34FFFEED34FFFDEC34FF9D
:10ADB600FC901650120B6F901654E0FCA3E0FDA316
:10ADC600E0FEA3E0FF901650E0F8A3E0F9A3E0FA56
:10ADD600A3E0FBD3120A82506AE4FFFEFDFC901644
:10ADE60050E0F8A3A3A3E0C3120A82700590165C94
:10ADF600F022901658E0FCA3E0FDA3E0FEA3E0FFDE
:10AE0600901650E0F8A3E0F9A3E0FAA3E0FBD31212
:10AE16000A82500790165C740BF022901654E0FCE0
:10AE2600A3E0FDA3E0FEA3E0FF901650E0F8A3E048
:10AE3600F9A3E0FAA3E0FBD3120A82500690165C4F
:03AE4600740AF09B
:01AE490022E6
:0B53C200E0FCA3E0FDA3E0FEA3E0FF81
:0F53CD009019E6EBF0A3EAF0A3E9F0A3120B6F3F
:1053DC00E49019EDF0A3F0A3F0A3F09019FCF0A366
:1053EC00F090165CE07003025790E064076004E0F4
:1053FC00B40A109019FE7401F0A37416F0A3745E35
:10540C00F0800E9019FE7401F0A3741BF0A37429A4
:10541C00F0901A9AE4F0A37443F0A37411F0E4A38F
:10542C00F0A304F0A37416F0A37463F0A37402F059
:10543C00A37424F09019FEE0FBA3E0FAA3E0F97D3D
:10544C00447C0012623F9019F1EFF0C364809480A9
:10545C005003025781E0FF3395E0FE7C007D3D1246
:10546C000751747A2FF974123EFA9019F37401F003
:10547C00A3EAF0A3E9F09019EDE07002A3E0600359
:10548C000257719019F2F09019E6E0FBA3E0FAA331
:10549C00E0F9A3E0FCA3E0FDA3E0FEA3E0FF124FC4
:1054AC00D49019F6120B6F9019FCE0FCA3E0FDEC04
:1054BC0090166BF0EDA3F09019FEE0FBA3E0FAA3BD
:1054CC00E0F97401901B296B7008E965827003EA9E
:1054DC006583700790166204F08005E4901662F004
:1054EC007B017A167963C003C002C0019019F3E006
:1054FC00FBA3E0FAA3E0F990000E120CA49019F3B0
:10550C00E0FBA3E0FAA3E0F9900011740275F0241B
:10551C00120921128B7E9019EFEEF0A3EFF090168A
:10552C005CE0B4070B9019EDE4F0A304F0025754BF
:10553C009019F2E02401FEE4339019FAF0A3CEF0B6
:10554C00C39019EFE06480948050159019FAE0FE36
:10555C00A3E0FF7C007D6412075112E04C0257451A
:10556C009016627401F07B017A167963901A0574B7
:10557C0002F0A37424F09019FAE0FEA3E0FF7C0083
:10558C007D64120751901A07EEF0A3EFF09019F119
:10559C00E0FF12860C9019EFEEF0A3EFF0D394001D
:1055AC00EE64809480500302572790166AE0FFE463
:1055BC00FCFDFE7808120AA6A804A905AA06AB07EA
:1055CC00901669E0FFEB4FFFEAFEE9FDE8FC780876
:1055DC00120AA6A804A905AA06AB07901668E0FF54
:1055EC00EB4FFFEAFEE9FDE8FC7808120AA6A804D6
:1055FC00A905AA06AB07901667E0FFEB4FFFEAFE82
:10560C00E9FDE8FC9019F6E0F8A3E0F9A3E0FAA3B1
:10561C00E0FBC3120A826003025727901663E06412
:10562C0002600302572790165CE024FD602324F9E6
:10563C00601F14601C240A600302571B12000EBF6B
:10564C00020C90165C7403F012DF8802573B025771
:10565C001B12000EEF6405600302571078A67C1B2A
:10566C007D017B017A167973FE7F0412067E12DFB0
:10567C00A612DFC412976F901650120B6F90165033
:10568C00E0FCA3E0FDA3E0FEA3E0FF90164C120BA0
:10569C006F12DF8874FFFFFEFDFC901650E0F8A33C
:1056AC00E0F9A3E0FAA3E0FBC3120A82700790169C
:1056BC005D04F0803FE47B02FAF9F8901650E0FCB0
:1056CC00A3E0FDA3E0FEA3E0FF1209A5901654127F
:1056DC000B6FE47B08FAF9F8901650E0FCA3E0FDA0
:1056EC00A3E0FEA3E0FF1209A5901658120B6FE47D
:1056FC0090165DF090165C7409F09019EDE4F0A32F
:10570C0004F0802B12000EBF020302557280009031
:10571C0019ED74FFF0A3749CF080149019FAE0FE5C
:10572C00A3E0FF9019FDE02FF09019FCE03EF09003
:10573C0019EDE07002A3E0700F9019F2E004F0E0B4
:10574C00C3940350030254939019EFE0FEA3E0FFBF
:10575C00D39400EE6480948040030254829019ED3F
:10576C00EEF0A3EFF090166274FFF09019F1E0FFE9
:10577C0012BC55800F9019F1E0FE3395E09019EDB5
:0C578C00F0A3CEF09019EDE0FEA3E0FFCA
:0157980022EE
:0F4FD400901A01EBF0A3EAF0A3E9F0A3120B6F20
:104FE30090165CE024FD700302509C24FC601424A2
:104FF300FD700302509C14700302509C240A60034A
:1050030002513A12E229EF2401FFE43EFEE433FDAC
:10501300E433FC7810120AA6C004C005C006C0071A
:1050230012E229EF2401FFE43EFED003D002D001B7
:10503300D000EB4FFFEA4EFEE9FDE8FC901A0812A0
:105043000B6F901A08E0FCA3E0FDA3E0FEA3E0FFD2
:10505300901667EFF0901A08A3A3A3E07808120A4A
:1050630093901668EFF0901A08E0FCA3E0FDA3E02C
:10507300FEA3E0FF7810120A93901669EFF0901ADE
:1050830008E0FCA3E0FDA3E0FEA3E0FF7818120A0A
:105093009390166AEFF002514490166AE0FFE4FC25
:1050A300FDFE901A08120B6F901A08E0FCA3E0FDB6
:1050B300A3E0FEA3E0FF7808120AA6A804A905AAA4
:1050C30006AB07901669E0FFEB4FFFEAFEE9FDE848
:1050D300FC901A08120B6F901A08E0FCA3E0FDA3E2
:1050E300E0FEA3E0FF7808120AA6A804A905AA0611
:1050F300AB07901668E0FFEB4FFFEAFEE9FDE8FC23
:10510300901A08120B6F901A08E0FCA3E0FDA3E0CD
:10511300FEA3E0FF7808120AA6A804A905AA06AB15
:1051230007901667E0FFEB4FFFEAFEE9FDE8FC900E
:105133001A08120B6F800A901A08120B7B000000EA
:10514300009016637401F0A3F0A37406F07E007F51
:10515300047D007B017A1679771211827E007F0429
:105163007D007B017A16797B121182787F7C167D14
:10517300017B017A0079077E007F0612067E901A72
:1051830001A3E0FAA3E04A601478CF7C167D019076
:105193001A01E0FBA3A3E0F9120FBB8005E490160C
:1051A300CFF0901A0C7401F0A37417F0A3744FF0AE
:1051B300901A0CE0FBA3E475F001120804A9F0FABD
:1051C300746312071D901A0CE0FBA3E475F001123F
:1051D3000804A9F0FA748212071D901A0CE0FBA3CD
:1051E300E475F001120804A9F0FA745312071D9034
:1051F3001A0CE0FBA3E475F001120804A9F0FA7499
:105203006312071D901A0CE0FBA3E475F00112086A
:1052130004A9F0FA743512071D901A0CE0FBA3E4FD
:1052230075F001120804A9F0FA740112071D901613
:105233005CE024FD605A24FC700302536E24FD706D
:105243000302533B14700302533B240A60030253CB
:10525300A390166D7480F07E007F047D007B017A3D
:105263001679731211827E007F047D007B017A160A
:10527300796F121182901A0CE0FBA3E475F001120E
:105283000804A9F0FA740112C2BE129E9A0253696D
:1052930090166D7480F07E007F047D007B017A168A
:1052A300796F12118212C2AC12CDD7901A0CEBF0A7
:1052B300A3EAF0A3E9F0901A0CE0FBA3E475F00174
:1052C300120804A9F0FA743212071D901A0CE0FBBD
:1052D300A3E475F001120804A9F0FA740412071D7F
:1052E300E4FF74732FF582E43416F583E0FE901A1D
:1052F3000CE0FBA3E475F001120804A9F0FAEE1226
:10530300071D0FEFB404DB901A0CE0FBA3E0FAA334
:10531300E0F9129EA512CAFA12CD61901A0CEBF0B5
:10532300A3EAF0A3E9F07E007F047D007B017A16F7
:1053330079731211820253A3E490166DF0FE7F0479
:10534300FD7B017A167973121182786F7C167D01C9
:105353007B017A1B79A67E007F0412067E12C2AC03
:10536300129E9A12CAFA12CD61802AE490166DF049
:10537300FE7F04FD7B017A167973121182901A0C59
:10538300E0FBA3E475F001120804A9F0FA74071214
:10539300C2BE12CDD7901A0CEBF0A3EAF0A3E9F04A
:1053A300901A0CE0FBA3E0FAA3E0F974FF12071DC7
:0E53B300901A08E0FCA3E0FDA3E0FEA3E0FFDB
:0153C10022C9
:10B75B007B017A177953901A08EBF0A3EAF0A3E96F
:10B76B00F02437F9EA3401FAA3EBF0A3EAF0A3E9EA
:10B77B00F0901A08E0FBA3E0FAA3E0F91206A4FE8E
:10B78B00B50702807EEEF46029901A0BE0FBA3E074
:10B79B00FAA3E0F9C003C002C001901A08A3E0FAB3
:10B7AB00A3E0F9D3D082D083D0E0E99582EA9583E8
:10B7BB00400B901A08E4F0A3F0A3F08046EE701C47
:10B7CB00901A09E475F0011207EE901A08E0FBA33A
:10B7DB00E0FAA3E0F91206A460E68095901A09E45A
:10B7EB0075F0011207EE901A08E0FBA3E0FAA3E054
:10B7FB00F91206A404FEFD901A09E48DF01207EE6F
:0EB80B0002B77C901A08E0FBA3E0FAA3E0F974
:01B81900220C
:10000E00E4FC7F3512B75BE94A60079000021206E6
:04001E00BDFCAF0472
:0100220022BB
:10976F00901A01120B7B000000007F3312B75B9041
:10977F001A05EBF0A3EAF0A3E9F0AE024E70030274
:10978F0098A0901A06E475F0021207EE901A05E001
:10979F00FBA3E0FAA3E0F91206A4FFE4FCFDFE78B8
:1097AF0018120AA6901A01120B6F901A06E475F0A0
:1097BF00011207EE901A01E0F8A3E0F9A3E0FAA373
:1097CF00E0FBC000C001C002C003A3E0FBA3E0FAAE
:1097DF00A3E0F91206A4FFE4FCFDFE7810120AA61E
:1097EF00D003D002D001D000EB2FFFEA3EFEE93DBF
:1097FF00FDE83CFC901A01120B6F901A06E475F00D
:10980F00011207EE901A01E0F8A3E0F9A3E0FAA322
:10981F00E0FBC000C001C002C003A3E0FBA3E0FA5D
:10982F00A3E0F91206A4FFE4FCFDFE7808120AA6D5
:10983F00D003D002D001D000EB2FFFEA3EFEE93D6E
:10984F00FDE83CFC901A01120B6F901A06E475F0BC
:10985F00011207EE901A01E0F8A3E0F9A3E0FAA3D2
:10986F00E0FBC001C002C003A3E0FBA3E0FAA3E04A
:10987F00F91206A4FFE4FCFDFED003D002D001EBE9
:10988F002FFFEE3AFEED39FDEC38FC901A01120B6A
:0F989F006F901A01E0FCA3E0FDA3E0FEA3E0FF41
:0198AE002297
:10DF88007F3612B75BE94A6014740229F9E43AFA59
:0DDF9800785E7C167D017E007F0412067EFF
:01DFA5002259
:10C2AC00901A0CE0FBA3E475F001120804A9F0FA53
:10C2BC00740312071D901A0CE0FBA3E0FAA3E0F93B
:0BC2CC00901A0FEBF0A3EAF0A3E9F0DA
:10C2D700901A0FE0FBA3E475F001120804A9F0FA25
:10C2E700743D12071D901A0FE0FBA3E475F00112CD
:10C2F7000804A9F0FA740712071D901A0FE0FBA3B0
:10C30700E475F001120804A9F0FA740112071DE49C
:10C31700FF74072FF582E43400F583E0FE901A0FCF
:10C32700E0FBA3E475F001120804A9F0FAEE120786
:10C337001D0FEFB406DB901A0FE0FBA3E0FAA3E0B2
:01C34700F9FC
:01C3480022D2
:0BCDD700901A0CEBF0A3EAF0A3E9F0C7
:0BCDE200901A0FEBF0A3EAF0A3E9F0B9
:10CDED00901A0FE0FBA3E475F001120804A9F0FA04
:10CDFD00743612071D901A0FE0FBA3E475F00112B3
:10CE0D000804A9F0FA740412071DE4FF745E2FF5EF
:10CE1D0082E43416F583E0FE901A0FE0FBA3E4756F
:10CE2D00F001120804A9F0FAEE12071D0FEFB40479
:0CCE3D00DB901A0FE0FBA3E0FAA3E0F981
:01CE490022C6
:0BCAFA00901A0CEBF0A3EAF0A3E9F0A7
:0BCB0500901A0FEBF0A3EAF0A3E9F098
:10CB1000901A0FE0FBA3E475F001120804A9F0FAE3
:10CB2000740C12071D7B017A05792C12E138901ADA
:10CB30000FE0FBA3E475F001120804A9F0FAEF126C
:10CB4000071DE4FEEEC39F5023742C2EF582E434BF
:10CB500005F583E0FD901A0FE0FBA3E475F00112E8
:10CB60000804A9F0FAED12071D0E80D8901A0FE004
:07CB7000FBA3E0FAA3E0F9CA
:01CB7700229B
:109E9A00901A0CEBF0A3EAF0A3E9F0901A04E0FCA4
:099EAA00A3E0FDA3E0FEA3E0FF2C
:109EB300901A0FEBF0A3EAF0A3E9F0A3120B6FE4FF
:109EC300FFFEFDFC901A12E0F8A3E0F9A3E0FAA369
:109ED300E0FBC3120A82700A901A12120B7B000075
:109EE3008CA0901A0FE0FBA3E475F001120804A9FB
:109EF300F0FA743312071D901A0FE0FBA3E475F018
:109F030001120804A9F0FA740412071D901A12E052
:109F1300FCA3E0FDA3E0FEA3E0FF7818120A9390F0
:109F23001A0FE0FBA3E475F001120804A9F0FAEF9D
:109F330012071D901A12E0FCA3E0FDA3E0FEA3E0CC
:109F4300FF7810120A93901A0FE0FBA3E475F00157
:109F5300120804A9F0FAEF12071D901A12E0FCA3ED
:109F6300E0FDA3E0FEA3E0FF7808120A93901A0F26
:109F7300E0FBA3E475F001120804A9F0FAEF12075D
:109F83001D901A12A3A3A3E0FF901A0FE0FBA3E412
:109F930075F001120804A9F0FAEF12071D901A0FC9
:099FA300E0FBA3E0FAA3E0F922BF
:0BCD6100901A0CEBF0A3EAF0A3E9F03D
:10CD6C00901A0FEBF0A3EAF0A3E9F0901A0FE0FB96
:10CD7C00A3E475F001120804A9F0FA743712071D28
:10CD8C00901A0FE0FBA3E475F001120804A9F0FA65
:10CD9C00740212071D901A0FE0FBA3E475F0011248
:10CDAC000804A9F0FA740112071D901A0FE0FBA3F6
:10CDBC00E475F001120804A9F0FA740312071D902F
:0BCDCC001A0FE0FBA3E0FAA3E0F9223D
:10DFA6007F0112B75BE94A6014740229F9E43AFA70
:0DDFB60078B07C1B7D017E007F0412067E8A
:01DFC300223B
:10DFC4007F0312B75BE94A6013740229F9E43AFA51
:0CDFD40078B47C1B7D017E000F12067EDD
:01DFE000221E
:05D2E500421B220000C5
:10D15C00E4901B24F0A3F0F9A3C9F0A3F0A3E9F029
:10D16C007E007F047D007B017A1B79821211827E06
:10D17C00007F047D007B017A1B79311211827E00C5
:10D18C007F047D007B017A1B792D1211827E007F3A
:10D19C00497D007B017A1B7935121182901B2C740E
:10D1AC00FFF0901B2BF0901B2AF0901B29F0901B8A
:0DD1BC007E74E0F0E4A3F0A3F0A304F022E1
:10DC450012A1C7901A17EFF030E21012908EC3EFB1
:10DC550064809480401212A6DF800D901A17E03080
:0DDC6500E606128EEF12AC7E901A17E0FF5B
:01DC7200228F
:10A1C700E4901B24F0A3F012822CD3EF9400EE64EA
:10A1D70080948050037F002212D6D1EF901A79F035
:10A1E700A3E4F012D6D1901A7AE02FF0901A79E012
:10A1F7003EF0E0FEA3E0FFD394EEEE94055004EFAB
:10A207004E700612E1227F0022900A72E0FBA3E063
:10A21700FAA3E0F9901A79E0FEA3E0FFE92FF9EA43
:10A227003EFAA3EBF0A3EAF0A3E9F0901A7BA3E0D0
:10A23700FAA3E0D39012769582EA9583500E901A8E
:10A247007BE0F9A3A3E0901B26C9802C900A72A398
:10A25700E0FAA3E0FFC374769FFF74129AFEC390DF
:10A267001A7AE09FFF901A79E09EFE74762FF974B0
:10A277000E3EFA901B267401F0A3EAF0A3E9F01250
:10A28700C86AEF1460090470037F20227F0022123E
:10A2970074F5901A78EFF06004E030E30512AC7EB5
:10A2A7008025901A78E0FF20E00620E10330E217CE
:10A2B700901A987401F0A3741BF0A374AAF07B01A1
:0CA2C7007A1B798212B513901A78E0FF20
:01A2D3002268
:10799A00901A4CEDF0901A49EBF0A3EAF0A3E9F043
:1079AA004A70037F8522901662E0FEF46017901AEF
:1079BA0049E0FBA3E0FAA3E0F912081A644445F08F
:1079CA0060037FA422EE6401601D78A67C1B7D0102
:1079DA007B017A1B792D7E007F0412115EEF3395AD
:1079EA00E04F70037F8522901A4EE02414F0901A1B
:1079FA004DE03400F0901B23E004F07006901B2247
:107A0A00E004F0901B22E0FFA3E0901A55CFF0A308
:107A1A00EFF0901A49E0FBA3E0FAA3E0F990001D09
:107A2A001206BD901A4C30E406E0FF74048004E0AC
:107A3A00FF7440901A57F0A3EFF0901A4DE0FCA3A0
:107A4A00E0FDE4901A95F0A3F0901A57E0FFA3E046
:107A5A00901A97CFF0A3EFF0A37401F0A3741BF070
:107A6A00A374A6F0901A49E0FBA3E0FAA3E0240469
:107A7A00F9E43AFA901A9CEBF0A3EAF0A3E9F0E4ED
:107A8A00A3F0901A55E0FAA3E0FB7F007E45126D41
:107A9A00B1901A4F120B6F901A4FE0FCA3E0FDA3AE
:107AAA00E0FEA3E0FF7808120A93A3EFF0901A4FC2
:107ABA00A3A3E0FEA3E0FF901A54EFF0901A4CE063
:107ACA00B40107E4901A59F08012901662E0B401EA
:107ADA00047F0180027F00901A59EFF0901A49E062
:107AEA00FBA3E0FAA3E0F9901A59E0901A5FF07D3F
:107AFA00007C08129382EF64016001227F4512E044
:107B0A0098E4FF12E098901A4DE0FF12E098901A5C
:107B1A004DA3E0FF12E098901A55E0FF12E098900A
:107B2A001A55A3E0FF12E098E4FF12E098E4FF126E
:107B3A00E098901A49E0FBA3E0FAA3E0F990001D4F
:107B4A001206BD30E4047F0480027F4012E0989060
:107B5A001A4CE0FF12E098901A53E0FF12E0989056
:107B6A001A54E0FF12E098901BA6E0FF12E09890EA
:107B7A001BA7E0FF12E098901BA8E0FF12E0989084
:107B8A001BA9E0FF12E098901A49E0FBA3E0FAA3D0
:107B9A00E0F99000041206BDFF12E098901A49E03D
:107BAA00FBA3E0FAA3E0F99000051206BDFF12E07C
:107BBA0098901A49E0FBA3E0FAA3E0F990000612B4
:107BCA0006BDFF12E098901A49E0FBA3E0FAA3E091
:0D7BDA00F99000071206BDFF12E0987F0130
:017BE700227B
:10AC7E00901B26E0FBA3E0FAA3E0F9C003C002C0DC
:10AC8E0001900A72E0FBA3E0FAA3E0F9D082D08330
:10AC9E00D0E06B7008E965827003EA658370030289
:10ACAE00AD65901B26E0FBA3E0FAA3E0F9C003C05C
:10ACBE0002C001900A72A3E0FAA3E0F9C3D082D0D9
:10ACCE0083D0E0E99582EA9583501F900A72A3A380
:10ACDE00E0AE02FF901B26A3E0FAA3E0C39FFFEABB
:10ACEE009E901A81F0A3EFF08027901B26A3E0FA26
:10ACFE00A3E0AE02FF900A72A3E0FAA3E0C39FFFA7
:10AD0E00EA9EFEC3E49F901A82F074049E901A810C
:10AD1E00F0901277E0FEA3E0FFD3901A82E09F90AE
:10AD2E001A81E09E400302E122C2AF901A81E0FE3A
:10AD3E00A3E0FFC3901278E09FF0901277E09EF0B0
:10AD4E00901B26E0F9A3E0FAA3E0900A72C9F0A3E3
:07AD5E00EAF0A3E9F0D2AF17
:01AD650022CB
:1074F500E4901A86F012D6D1901A83EFF0E0FE548C
:107505000FA3F0EEC4540F64046003027748E0FF54
:10751500C394055003027748EF25E025E0F0C394B6
:1075250014A3F012D6D1901A7EEFF012D6D1EF90B7
:107535001B24F0A3E4F012D6D1901B25E02FF09088
:107545001B24E03EF0C3A3E09414901B24E09400B8
:1075550050037F002212D6D1EF901A87F0A3E4F0F2
:1075650012D6D1901A88E02FF0901A87E03EF012DB
:10757500D6D1EF901A89F0A3E4F012D6D1901A8AE9
:10758500E02FF0901A89E03EF0A3E030E507901A6D
:1075950086E04410F012D6D1901A7FEFF012D6D1C2
:1075A500901A80EFF014601D14602324F1600D24FF
:1075B5000B7024901A86E04401F08022901A86E030
:1075C5004402F08019901A86E04404F08010901A65
:1075D50086E04440F08007901A86E04408F012D611
:1075E500D1901A81EFF012D6D1901A82EFF012D60F
:1075F500D1901B82EFF012D6D1901B83EFF012D6FB
:10760500D1901B84EFF012D6D1901B85EFF0901B23
:1076150082E0FFC394E04009EFD394EF50037F006D
:107625002212D6D1901B31EFF012D6D1901B32EF3A
:10763500F012D6D1901B33EFF012D6D1901B34EF58
:10764500F012D580EF7047901BA6E0FF901B31E04C
:10765500FE6F6004EEF47033901BA7E0FF901B32C1
:10766500E0FE6F6004EEB4FF22901BA8E0FF901BC4
:1076750033E0FE6F6004EEB4FF11901BA9E0FF90AC
:107685001B34E0FE6F6007EEF460037F0022901A62
:1076950083E0FE901A7EE0FDEDFFC006C007901B5B
:1076A50024E0FCA3E0FD901A89E0FFA3E0901A9581
:1076B500CFF0A3EFF0901A7FE0FEA3E0FBEBFF9085
:1076C5001A97EEF0A3EFF0A37401F0A3741BF0A3D7
:1076D5007431F0A37401F0A3741BF0A37482F090CD
:1076E5001A85E0901A9FF0901A87E0FAA3E0FBD084
:1076F50007D006126DB1901A8B120B6F901A8BE0A2
:10770500FCA3E0FDA3E0FEA3E0FF7808120A939036
:107715001A81E0B50711901A8BA3A3A3E0FF901A75
:1077250082E0FEEF6E60037F0022901A84E0FFC3C3
:10773500901B25E09FF0901B24E09400F0901A86A2
:05774500E0FF227F00BF
:01774A00221C
:10D58000E4901A8FF078317C1B7D017B017A1B7946
:10D590007EFE7F0412115EEF7005901A8F04F090EA
:10D5A0001A8FE0702A7B017A1B793112C6CEE94AC4
:10D5B000601D9000061206BD60159000071206BDA2
:10D5C000FF64016004EFB40206901A8F7401F090BA
:04D5D0001A8FE0FFCF
:01D5D4002234
:0E6DB100901A91ECF0A3EDF0A3EAF0A3EBF042
:106DBF00E4FCFD901AA0120B6F901AA0E0F8A3E06C
:106DCF00F9A3E0FAA3E0FBC000C001C002C003902A
:106DDF001A99E0FBA3E0FAA3E0F99000011206BDB7
:106DEF00FD1206A4FEEDFFE4FCFDD003D002D0019E
:106DFF00D000EB2FFFEA3EFEED39FDEC38FC901A88
:106E0F00A0120B6F901AA0E0F8A3E0F9A3E0FAA389
:106E1F00E0FBC000C001C002C003901A99E0FBA3C1
:106E2F00E0FAA3E0F99000021206BDFE90000312F3
:106E3F0006BDFDEDFFE4FCFDD003D002D001D00074
:106E4F00EB2FFFEA3EFEED39FDEC38FC901AA01255
:106E5F000B6F901AA0E0F8A3E0F9A3E0FAA3E0FB10
:106E6F00901A91E0FEA3E0FFE4FCFDEB2FFFEA3E5A
:106E7F00FEED39FDEC38FC901AA0120B6F901AA0A2
:106E8F00E0F8A3E0F9A3E0FAA3E0FB901A93E0FE89
:106E9F00A3E0FFE4FCFDEB2FFFEA3EFEED39FDEC36
:106EAF0038FC901AA0120B6F901AA0E0F8A3E0F92B
:106EBF00A3E0FAA3E0FB901A95E0FEA3E0FFE4FC49
:106ECF00FDEB2FFFEA3EFEED39FDEC38FC901AA0EA
:106EDF00120B6F901AA0E0F8A3E0F9A3E0FAA3E079
:106EEF00FB901A97E0FEA3E0FFE4FCFDEB2FFFEA17
:106EFF003EFEED39FDEC38FC901AA0120B6F901A84
:106F0F00A0E0F8A3E0F9A3E0FAA3E0FBC000C00102
:106F1F00C002C003901A9CE0FBA3E0FAA3E0F99033
:106F2F0000011206BDFD1206A4FEEDFFE4FCFDD02C
:106F3F0003D002D001D000EB2FFFEA3EFEED39FD6A
:106F4F00EC38FC901AA0120B6F901AA0E0F8A3E097
:106F5F00F9A3E0FAA3E0FBC000C001C002C0039098
:106F6F001A9CE0FBA3E0FAA3E0F99000021206BD21
:106F7F00FE9000031206BDFDEDFFE4FCFDD003D033
:106F8F0002D001D000EB2FFFEA3EFEED39FDEC38C9
:106F9F00FC901AA0120B6F901A9FE0606120E05EC8
:106FAF00E4901AA6F0901A9FE0FF901AA6E0C39FF4
:106FBF00504C12D6D1EF901AA4F0A3E4F012D6D110
:106FCF00901AA5E02FF0901AA4E03EF0901AA0E0DE
:106FDF00F8A3E0F9A3E0FAA3E0FBA3E0FEA3E0FF30
:106FEF00E4FCFDEB2FFFEA3EFEED39FDEC38FC90A3
:106FFF001AA0120B6F901AA6E02402F080A7901A25
:10700F00A0E0FCA3E0FDA3E0FEA3E0FF12CFA09061
:10701F001AA0120B6F901AA0E0FCA3E0FDA3E0FEF4
:03702F00A3E0FFDC
:01703200223B
:10908E00901A1974FFF012D6D1901A18EFF06408E6
:10909E006003029212901B24E0FEA3E0FFD39448DB
:1090AE00EE94004003029212C3EF9404EE9400502B
:1090BE0003029212E4901A9AF0A3F0A304F0E4A330
:1090CE00F0F9A3C9F0A3F0A3E9F0E4A3F0A3F07BB9
:1090DE00017A1B7982FDFC12623F901A19EFF0C3E0
:1090EE0064809480500302921212D6D1901A18EF17
:1090FE00F0901B25E024FEFE901B24E034FF901A16
:10910E001BF0A3CEF0901A19E0901B35F0901A1BAD
:10911E00E0FCA3E0FDEC901B36F0EDA3F0901A1CE2
:10912E0024FEF0901A1BE034FFF012D6D1901A1ADA
:10913E00EFF012D6D1901A1AE02408F0C39408501A
:10914E00010F901A1AE0901B38F0A3EFF0901A1D41
:10915E007401F0A3741BF0A3743AF0900A72A3E0AA
:10916E00FAA3E0FFC374769FFF74129ACF2401CF47
:10917E003400901A20F0FCA3EFF0FD901A1BE0FED5
:10918E00A3E0FFD39DEE9C501AA3E0FBA3E0FAA34D
:10919E00E0F8AC02AD03900A72E0FBA3E0FAA3E0A4
:1091AE00F9805E901A20E0FEA3E0FF901A1DE0FB0E
:1091BE00A3E0FAA3E0F8AC02AD03900A72E0FBA3C1
:1091CE00E0FAA3E0F912067E901A20E0FEA3E0FF7B
:1091DE00C3901A1CE09FF0901A1BE09EF0E0FCA3D7
:1091EE00E0FDC004C005A3E0FBA3E0FAA3E02FF965
:1091FE00EA3EA801FCAD037B017A0E7977D007D049
:0C920E000612067E12AC7E901A19E0FFDA
:01921A002231
:10A6DF00901B35E0901A1AF0C364809480500302E7
:10A6EF00A7D6E0FFFD3395E0FC90129875F03DED95
:10A6FF00120BD0EC75F03DA42583F583E020E00329
:10A70F0002A7D6EF3395E0FE7C007D3D1207517412
:10A71F007A2FF974123EFA7B01901A1BEBF0A3EA21
:10A72F00F0A3E9F090001B1206BD6401600302A7BD
:10A73F00D6901B36E0901A18F0A3E4F0901B37E088
:10A74F00FF901A19E02FF0901A18E03400F0E0FE95
:10A75F00A3E0FFD39446EE940050647A1B7938C07F
:10A76F0003C002C001901A1BE0FBA3E0FAA3E0F9BB
:10A77F0090000E120CA4901A1BE0FBA3E0FAA3E0CA
:10A78F00F9900011EE8FF0120921EF2402FFE43E41
:10A79F00901A4DF0A3EFF07D0112799AEF6020E44B
:10A7AF00FF12E098E4FF12E098901A1BE0FBA3E081
:10A7BF00FAA3E0F9901A18E0FCA3E0FD12DA279053
:07A7CF001A1AE0FF12BC554D
:01A7D6002260
:10E12200C2AF12DE19901B267401F0A3740EF0A385
:06E132007477F0D2AF2269
:10DF4900901A9AEFF07B017A0A7977900A69EBF0D7
:10DF5900A3EAF0A3E9F0A3EBF0A3EAF0A3E9F02226
:10DE19007B017A0E7977900A72EBF0A3EAF0A3E915
:10DE2900F0900A6FEBF0A3EAF0A3E9F0E49012771F
:04DE3900F0A3F02240
:0EE21B0012DE19E4FF12DF49E4901279F022BE
:10D9EA00901279E0601F7B017A1A79957D587C0242
:10D9FA0012C5A37B017A1A799512D3BAEF700690F1
:10DA0A001279E070EE901279E070057F0112DF4919
:0CDA1A00901279E070047F0180027F0010
:01DA260022DD
:10E07F00C2AF438901758C60758A7FD28CD2A9E4B7
:09E08F00900A75F0A3F0D2AF2253
:10DF0800C28C758C60758A7FD28C900A76E004F09A
:10DF18007006900A75E004F012DCCF12AD6602D9E3
:01DF2800698F
:10DE83007E037FD07D007B017A12797A1211821290
:10DE9300D15C12E07F12E1FE12DDF512E1EF12E236
:01DEA3004C32
:01DEA400225B
:10C02E00C003C002C0019019C5E0FFA3E0901A9AA8
:10C03E00CFF0A3EFF09019C8E0901A9CF09019C9B8
:10C04E00E0901A9DF09019CAE0F9A3E0FAA3E090EF
:10C05E001A9EC9F0A3EAF0A3E9F09019CDE0FFA370
:10C06E00E0901AA1CFF0A3EFF0D001D002D00312CE
:10C07E00623F9019CFEFF09019C8E06406703D90C2
:10C08E0019CFE0FFC3648094804031EF3395E0FE1A
:10C09E007C007D3D120751747A2FF974123EFA7BA3
:10C0AE00019019C7E0FF12A4E8D3EF64809480508A
:10C0BE000B9019CFE0FF12BC557F84229019CFE070
:01C0CE00FF72
:01C0CF00224E
:10623F00901A95EBF0A3EAF0A3E9F0A3ECF0A3ED2D
:01624F00F05E
:10625000901AA37482F0901A9CE0FE1460181460E7
:106260001524FC601124F5600D240D700E901A9D0C
:10627000E0B420078000E4901AA3F0901AA3E0FF96
:10628000B4820122901A95E0FBA3E0FAA3E0F91290
:1062900006A4FFC394E0400DEFD394EF5007901A8B
:1062A0009DE04410F0901A98E07002A3E0700EEEAA
:1062B00064066036901A9CE0B41102802D901A9CFE
:1062C000E0B40607A3E030E402801F1206A464E0F5
:1062D00070219000011206BD70199000021206BDD7
:1062E00070119000031206BD7009901AA37485F016
:1062F00002656C901A9AE0FCA3E0FD901A95E0FB11
:10630000A3E0FAA3E0F9901A9CE0901AAEF0901A7C
:1063100098E0FEA3E0FF1299EC901AA4EBF0A3EA38
:10632000F0A3E9F04A602C901AA4E0FBA3E0FAA3E2
:10633000E0F990001C1206BD75F03DA42498F5828A
:10634000E5F03412F583E030E009901AA37481F08F
:1063500002656C12DD28901AA3EFF06480700302CE
:10636000656C7E007F3DC006C0077F00C007E0FF70
:106370003395E0FE7C007D3D120751747A2FF9744D
:10638000123EFA7B01D005D007D006121182901A76
:10639000A3E0FF3395E0FE7C007D3D120751747A47
:1063A0002FF974123EFA7B01A3EBF0A3EAF0A3E904
:1063B000F0901AA3E090001C12072F901A98E0FFAB
:1063C000A3E0CF8FF0120902901A9AE0FEA3E0FF3B
:1063D000901AA4E0FBA3E0FAA3E0F9900002EE8F8C
:1063E000F0120921901A95E0FBA3E0FAA3E0F9125C
:1063F00006A4FF901AA4E0FBA3E0FAA3E0F9900042
:1064000004EF12072F901A95E0FBA3E0FAA3E0F93E
:106410009000011206BDFF901AA4E0FBA3E0FAA3CE
:10642000E0F9900005EF12072F901A95E0FBA3E02A
:10643000FAA3E0F99000021206BDFF901AA4E0FB57
:10644000A3E0FAA3E0F9900006EF12072F901A9547
:10645000E0FBA3E0FAA3E0F99000031206BDFF9071
:106460001AA4E0FBA3E0FAA3E0F9900007EF1207FB
:106470002F901A9DE0FF64207044901A9CE0640401
:10648000703C901BAAE090000812072F901BABE015
:1064900090000912072F901BACE090000A12072F02
:1064A000901BADE090000B12072F901BAEE0900008
:1064B0000C12072F901BAFE090000D12072F901ABF
:1064C0009CE0FE901AA4E0FBA3E0FAA3E0F99000A0
:1064D0001BEE12072F90001DEF12072F901A9EE05F
:1064E000FBA3E0FAA3E0F9EA494B604EA3E0FCA36A
:1064F000E0FD4C6045C003C002C001901AA4E0FB5F
:10650000A3E0FAA3E0F9900013120CA4901A9EE005
:10651000FBA3E0FAA3E02DF9EA3CFAE924FFF9EA4B
:1065200034FFFAC003C002C001901AA4E0FBA3E04C
:10653000FAA3E0F9900016120CA4EEB4060E901A1D
:10654000A4E0FBA3E0FAA3E0F912AAAB901AA3E03F
:10655000FF3395E0FE90129875F03DEF120BD0EEF0
:1065600075F03DA42583F583E04401F0901AA3E083
:01657000FF2B
:016571002207
:108D4200901BE1EBF0A3EAF0A3E9F0901BE0EFF057
:108D5200901BE974FFF0A37489F0E4A3F0A3F0C3BD
:108D6200EF64809480400B901BE0E0FD648094905F
:108D720040057EFF7F8522EDFF3395E0FE9012983D
:108D820075F03DEF120BD0EE75F03DA42583F5830F
:108D9200E020E0057EFF7F862290165CE0FF7005F2
:108DA2007EFF7F9D22901662E0B4FF1AEF640A6094
:108DB20004EFB40B1190164CE0FCA3E0FDA3E0FE1F
:108DC200A3E0FF12A9BE12CB78901BE0E0FF33951F
:108DD200E0FE7C007D3D120751747A2FF974123E39
:108DE200FA901BE67401F0A3EAF0A3E9F0901BE10C
:108DF200E0FBA3E0FAA3E0F9EA494B6034A3E0FE0A
:108E0200A3E0FF4E602BC003C002C001901BE6E04E
:108E1200FBA3E0FAA3E0F990000E120CA4901BE66B
:108E2200E0FBA3E0FAA3E0F9900011EE8FF0120943
:108E320021901BE6E0FBA3E0FAA3E0F990001B12ED
:108E420006BD64066003028ED4901BE6E0FBA3E03D
:108E5200FAA3E0F912841D901BEBEEF0A3EFF0D31E
:108E62009400EE648094804060901BE9E0B4FF239C
:108E7200A3E0B4891E901BE0E0FF7B007A0079003A
:108E8200E4901A05F0A3128603901BE9EEF0A3EF1B
:108E9200F080D6901BE9E0FEA3E0FFC3EE6480946D
:108EA200805011EF64877002EEF46008A3EEF0A325
:108EB200EFF08015901BE6E0FBA3E0FAA3E0F99047
:108EC200002412084545F07080901BEBE0FEA3E001
:108ED200FF22901BE6E0FBA3E0FAA3E0F990001B5F
:0C8EE2001206BDB41103028B7EE4FEFFFB
:018EEE002261
:10E1AE00901C00E0FDA3E0901A05CDF0A3ED1286C1
:02E1BE0003223A
:09860300F0A37402F0A37458F016
:0D860C00901A02EBF0A3EAF0A3E9F0AD072D
:10861900E4901A09F0A3F0C3ED648094804007ED5B
:108629006480949040030286FAEDFB3395E0FA905A
:10863900129875F03DEB120BD0EA75F03DA4258335
:10864900F583E020E0057EFF7F862290165CE070CE
:10865900057EFF7F9D227C007D3DAF03AE021207A0
:1086690051747A2FF974123EFA901A0B7401F0A31F
:10867900EAF0A3E9F0901A02E0FBA3E0FAA3E0F91B
:10868900EA494B604EA3E0FEA3E0FF4E6045C003FC
:10869900C002C001901A0BE0FBA3E0FAA3E0F99035
:1086A9000013120CA4901A02E0FBA3E0FAA3E02F36
:1086B900F9EA3EFAE924FFF9EA34FFFAC003C002F5
:1086C900C001901A0BE0FBA3E0FAA3E0F9900016B1
:1086D900120CA4901A0BE0FBA3E0FAA3E0F99000B6
:1086E9001B1206BDB4110F900013120C74E94A70E5
:1086F900057EFF7F8522901A0BE0F9A3E0FAA3E03B
:10870900A3C9F0A3EAF0A3E9F0901A07E0FCA3E0FB
:10871900FD4C60097B017A1A791112C5A312DC4557
:10872900901A16EFF054077029901A07E07002A307
:10873900E0600C7B017A1A791112D3BAEF60057ED9
:10874900FF7F872212CB7812E294BF9AD07EFF7FF7
:108759009A22901A16E0FF20E2C3EF30E0197B015C
:108769007A1A790B1234C2901A09EEF0A3EFF0BE0F
:10877900FF1DBFFA1A805F901A16E030E1117B01E4
:108789007A1A790B125799901A09EEF0A3EFF09023
:108799001A0EE0FBA3E0FAA3E0F9C003C002C0018E
:1087A900901A0BE0FBA3E0FAA3E0F9D082D083D0C2
:1087B900E06B7008E965827003EA65836018901AB6
:1087C9000EE0F9A3E0FAA3E0901A0BC9F0A3EAF0CE
:0E87D900A3E9F0028726901A09E0FEA3E0FF54
:0187E700226F
:05B8D700901C06EFF0DB
:10B8DC00C3648094804008E0FD6480949040057EB1
:10B8EC00FF7F8522EDFF3395E0FE90129875F03DB9
:10B8FC00EF120BD0EE75F03DA42583F583E020E02C
:10B90C00057EFF7F862290165CE0700D901C06E091
:10B91C00FF12BC557EFF7F9D22901C06E0FF3395E5
:10B92C00E0FE7C007D3D120751747A2FF974123EB3
:10B93C00FA7B01A3EBF0A3EAF0A3E9F090001B1251
:10B94C0006BDB4060E901C07E0FBA3E0FAA3E0F9D9
:10B95C0012D9AB901C06E0FF3395E0FE901298755F
:10B96C00F03DEF120BD0EE75F03DA42583F583E48A
:10B97C00F0901C07E0FBA3E0FAA3E0F9E4F5F01269
:05B98C000902E4FEFFCA
:01B991002293
:05BC5500901A95EFF0CC
:10BC5A00C3648094804008E0FD6480949040057E2F
:10BC6A00FF7F8522EDFF3395E0FE90129875F03D37
:10BC7A00EF120BD0EE75F03DA42583F583E020E0AA
:10BC8A00057EFF7F8622901A95E0FF3395E0FE7CC1
:10BC9A00007D3D120751747A2FF974123EFA7B0126
:10BCAA00A3EBF0A3EAF0A3E9F090001B1206BDB4DF
:10BCBA00060E901A96E0FBA3E0FAA3E0F912D2F975
:10BCCA00901A95E0FF3395E0FE90129875F03DEFDB
:10BCDA00120BD0EE75F03DA42583F583E4F0901A9B
:10BCEA0096E0FBA3E0FAA3E0F9E4F5F0120902E416
:02BCFA00FEFF4B
:01BCFC002225
:10DA270090165CE06033E94A601390001B1206BD54
:10DA3700B4060A90002074FF1206EA80009012795B
:10DA47007401F0126861E4901279F0D3EF9400EE5C
:0BDA57006480948040057F01227F9DC9
:01DA620022A1
:10DCFC00EE7024EF24EC601314601024FC601024EC
:10DD0C00D4601024F570107D81800E7D02800A7D18
:0BDD1C000480067D088002E4FDAF05D6
:01DD270022D9
:1099EC00901AA7EEF0A3EFF0A3ECF0A3EDF0A3EB2D
:0799FC00F0A3EAF0A3E9F07B
:109A0300901662E0901AB3F0901AB0E4F0A3F0A3BA
:109A1300F0901AABA3E0FAA3E04A7003029B19E4A7
:109A2300901AAFF0901AAFE0FFC394104003029B6B
:109A33001975F03DEFA4247AF582E5F03412F5832D
:109A4300E0FEA3E0FF901AA7E0FCA3E0FDEF6D703A
:109A530002EE6C6003029B10901AAFE0FF75F03DBD
:109A6300A4247CF582E5F03412F583E0FCA3E0FD49
:109A7300901AA9E0FAA3E0FBED6B7002EC6A6003B5
:109A8300029B1075F03DEFA42495F582E5F03412A6
:109A9300F583E0FF901AAEE0FEEF6E7070901AB39C
:109AA300E0B40124901AAFE075F03DA4247EF9746C
:109AB3001235F0A801FC7D017B017A1B79297E0018
:109AC3007F0412115EEF6029901AAFE075F03DA498
:109AD300247EF9741235F0A801FC7D01901AABE0E5
:109AE300FBA3E0FAA3E0F97E007F0412115EEF709E
:109AF3001C901AAFE075F03DA4247AF9741235F086
:109B0300FAA37401F0A3EAF0A3E9F08009901AAF75
:109B1300E004F0029A27901AB0E0FBA3E0FAA3E076
:019B2300F948
:019B2400221E
:10DD28007F80E4FEEEFD3395E0FC90129875F03D9F
:10DD3800ED120BD0EC75F03DA42583F583E020E0CF
:0ADD480004AF0680050EEEB410DAF9
:01DD520022AE
:04E28A0012E1752206
:0B579900901A17EBF0A3EAF0A3E9F070
:1057A40012D6D1EF901A20F0A3E4F012D6D1901AB9
:1057B40021E02FF0901A20E03EF012D6D1EF901A9B
:1057C4001EF0A3E4F012D6D1901A1FE02FF0901A25
:1057D4001EE03EF0E0FEA3E0FFA3E0FCA3E0FD7BBF
:1057E400017A1B7982901AAE7411F01299EC901A16
:1057F4002AEBF0A3EAF0A3E9F04A6003025891907F
:105804001A1EE0FEA3E0FF7B017A1B7982901AAE98
:105814007411F0E4FDFC1299EC901A2AEBF0A3EA5F
:10582400F0A3E9F04A7025901A1EE0FEA3E0FF7B86
:10583400017A1B792D901AAE7411F0E4FDFC1299D3
:10584400EC901A2AEBF0A3EAF0A3E9F0901A2AE00C
:10585400FBA3E0FAA3E0F94A6012901A20E0FFA348
:10586400E0900002CF8FF012092180217B007A00A2
:105874007900C003C002C001901A17E0FBA3E0FA4C
:10588400A3E0F9120C2512AC7EE4FEFF22901A2A42
:10589400E0FBA3E0FAA3E0F9C003C002C001901A40
:1058A40017E0FBA3E0FAA3E0F9120C25901A2AE012
:1058B400FBA3E0FAA3E0F99000041206BD70549033
:1058C400001D1206BD30E423901B31E09000041249
:1058D400072F901B32E090000512072F901B33E036
:1058E40090000612072F901B348021901B82E090B9
:1058F400000412072F901B83E090000512072F90DD
:105904001B84E090000612072F901B85E09000078F
:1059140012072F12D6D1EF901A24F0A3E4F012D676
:10592400D1901A25E02FF0901A24E03EF0C3A3E0B2
:105934009408901A24E0940050227B007A007900A5
:10594400C003C002C001901A17E0FBA3E0FAA3E071
:10595400F9120C2512AC7E7EFF7FFF2212D6D1EF06
:10596400901A1CF0A3E4F012D6D1901A1DE02FF087
:10597400901A1CE03EF0901A26120B7B00000000E7
:10598400E4901A2DF0A3F0901A1CE07002A3E060DA
:1059940042901A24E0FCA3E0FD901A20E0FFA3E06B
:1059A400901A4ECFF0A3EFF0A37401F0A3741BF090
:1059B400A37431F0A37401F0A3741BF0A37482F0F8
:1059C400901A1EE0FAA3E0FB7F11127E33901A2690
:1059D400120B6F901A25E024F8F0901A24E034FF9B
:1059E400F0E0FEA3E0FF901A22EEF0A3EFF04E7079
:1059F40003025ADDE4901A1BF0901A22E0FEA3E0A1
:105A0400FF901A2AE0FBA3E0FAA3E0F912E2601285
:105A1400D6D1901A1AEFF0901A1CE07002A3E0603D
:105A240057901A1BE0901A1A700FE0901A2DF0A3E9
:105A3400E4F0901A1B04F0803FE0FF901A2EE02F50
:105A4400F0901A2DE03400F0901A26E0F8A3E0F963
:105A5400A3E0FAA3E0FB901A2DE0FEA3E0FFE4FC30
:105A6400FDEB2FFFEA3EFEED39FDEC38FC901A26E3
:105A7400120B6FE4901A1BF0901A1AE0FF901A2A86
:105A8400E0FBA3E0FAA3E0F912BCFD901A2274FF34
:105A9400F5F01207EE45F06003025A13901A1CE069
:105AA4007002A3E06047901A1BE06041901A26E060
:105AB400F8A3E0F9A3E0FAA3E0FB901A2DE0FEA31B
:105AC400E0FFE4FCFDEB2FFFEA3EFEED39FDEC3890
:105AD400FC901A26120B6F8014901A2AE0FBA3E0A4
:105AE400FAA3E0F9900019E4F5F0120921901A1CC8
:105AF400E07002A3E0603E901A26E0FCA3E0FDA360
:105B0400E0FEA3E0FF12CFA0901A26120B6F901AAA
:105B14001CE0FEA3E0FFE4FCFD901A26E0F8A3E0FD
:105B2400F9A3E0FAA3E0FBC3120A82600812AC7E78
:105B34007EFF7FFC22901A2AE0FBA3E0FAA3E0F99F
:105B440012E28E12AC7E901A2AE0FBA3E0FAA3E0E4
:0A5B5400F9900019120845FFAEF0A9
:015B5E002224
:0B8B7E00901A01EBF0A3EAF0A3E9F06D
:108B89004A70057EFF7F8522901A01E0FBA3E0FA77
:108B9900A3E0F912DC73901A04EEF0A3EFF04E7023
:108BA90003FEFF22901A01E0FBA3E0FAA3E0F9908B
:108BB900000E120C74901A08EBF0A3EAF0A3E9F086
:108BC900901A05E02408FF901A04E03400FE901A78
:108BD90006F0FCA3EFF0FD901A01E0FBA3E0FAA375
:108BE900E0F912081AFBAAF0C002C003901A01E0CA
:108BF900FBA3E0FA900002120845FF901A4EE5F037
:108C0900F0A3EFF0A37401F0A3741BF0A374A6F012
:108C1900901A01A3A3E02404F9E43AFA901A53EB59
:108C2900F0A3EAF0A3E9F0D003D0027F11127E335A
:108C3900C007901A08E0FBA3E0FAA3E0F9901A0430
:108C4900E0FFA3E0901A50CFF0A3EFF0D007129FF6
:108C5900AC12CFA0901A0BEEF0A3EFF0901A01E03E
:108C6900FBA3E0FAA3E0F990001B1206BDFD901AE0
:108C790006E0FFA3E0901A4DCFF0A3EFF0901A01A0
:108C8900A3A3E012799AEF64016003028D27901A79
:108C990001E0FBA3E0FAA3E0F912081AE5F0FF12DC
:108CA900E098901A01E0FBA3E0FAA3E0F912081A90
:108CB900FF12E098901A01E0FBA3E0FAA3E0F99013
:108CC9000002120845E5F0FF12E098901A01E0FB56
:108CD900A3E0FAA3E0F9900002120845FF12E09818
:108CE900901A06E0FF12E098901A06A3E0FF12E03E
:108CF90098901A0BE0FF12E098901A0BA3E0FF126C
:108D0900E098901A01E0FBA3E0FAA3E0F9A3E0FCE4
:108D1900A3E0FD12DA27D3EF648094805006EF3385
:108D290095E0FE22901A01E0FBA3E0FAA3E0F99096
:088D39000011120845FFAEF025
:018D4100220F
:105EDF00901A9074FFF012D6D1EF4E600302623920
:105EEF0012D6D1EF64014E600302623912D6D1EFA0
:105EFF0064084E600302623912D6D1EF4E6003027E
:105F0F00623912D6D1EF64064E600302623912D69F
:105F1F00D1EF64044E600302623912D6D1EF4E60A6
:105F2F000302623912D6D1EF24FE700302617004AE
:105F3F006003026239E4901A81F012D6D1901A816F
:105F4F00E0248AF582E4341AF583EFF0901A81E0A9
:105F5F0004F0E0C3940640E2E4901A81F012D6D127
:105F6F00901A81E02486F582E4341AF583EFF090DD
:105F7F001A81E004F0E0C3940440E2E4901A81F047
:105F8F0012D6D1901A81E004F0E0C3940640F1E4F8
:105F9F00901A81F012D6D1901A81E02482F582E412
:105FAF00341AF583EFF0901A81E004F0E0C3940403
:105FBF0040E2901BA6E0FF901A82E06F600302623E
:105FCF0039901BA7E0FF901A83E06F6003026239DC
:105FDF00901BA8E0FF901A84E06F60030262399073
:105FEF001BA9E0FF901A85E06F60030262397B0105
:105FFF00901A9804F0A3741AF0A3748AF07A1A799D
:10600F008612B51374FF901A9AF0A3F0A37404F0DC
:10601F00A37420F0A3E4F0A3F0A3F0A3F0A3F07B0C
:10602F00017A1A798674FFFDFC12623F901A91EF84
:10603F00F0C3648094805003026239901662E0F4DA
:10604F00600302616512D9EAEF7003026165901A6D
:10605F0091E0FF3395E0FE7C007D3D120751747A8D
:10606F002FF974123EFA7B01A3EBF0A3EAF0A3E938
:10607F00F0E4FD12DC15E4FF12E0987F0212E098C5
:10608F00E4901A81F0901A81E0FFC39406501774C0
:10609F00072FF582E43400F583E0FF12E098901AA1
:1060AF0081E004F080DFE4901A81F0901A81E0FF24
:1060BF00C39404501774822FF582E4341AF583E0E9
:1060CF00FF12E098901A81E004F080DFE4901A81CB
:1060DF00F0901A81E0FFC394065027901A92E0FBCC
:1060EF00A3E0FAA3E02408F9E43AFA7E00E92FF9D5
:1060FF00EE3AFA1206A4FF12E098901A81E004F02B
:10610F0080CFE4901A81F0901A81E0FFC39404507D
:10611F0027901A92E0FBA3E0FAA3E02404F9E43AF3
:10612F00FA7E00E92FF9EE3AFA1206A4FF12E09870
:10613F00901A81E004F080CF901A92E0FBA3E0FA6E
:10614F00A3E0F9E4FDFC12DA27D3EF6480948040DA
:10615F0005E4901A90F0901A91E0FF12BC5502627C
:10616F0039E4901A81F012D6D1901A81E0248AF581
:10617F0082E4341AF583EFF0901A81E004F0E0C363
:10618F00940640E2E4901A81F012D6D1901A81E081
:10619F002486F582E4341AF583EFF0901A81E00437
:1061AF00F0E0C3940440E2E4901A81F012D6D1904B
:1061BF001A81E004F0E0C3940640F1E4901A81F0F4
:1061CF0012D6D1901A81E02482F582E4341AF58335
:1061DF00EFF0901A81E004F0E0C3940440E2901BCA
:1061EF00A6E0FF901A82E06F7040901BA7E0FF902F
:1061FF001A83E06F7034901BA8E0FF901A84E0B50B
:10620F000728901BA9E0FF901A85E0B5071C901A8C
:10621F00987401F0A3741AF0A3748AF07B017A1AB0
:0F622F00798612B513E4901A90F0901A90E0FF60
:01623E00223D
:0FE1EF007E007F6E7D007B017A1A79B402118267
:03B51300901A95F6
:10B5160012CEBD901A9BEBF0A3EAF0A3E9F04A70B5
:10B526000E12CE4A901A9BEBF0A3EAF0A3E9F09034
:10B536001A9BE0FBA3E0FAA3E0F990000A1206BD0D
:10B5460030E00302B5D9E9240AF9E43AFA1206A46E
:10B55600440112071DE4FF901A95E0FBA3E0FAA34D
:10B56600E0F98F827583001206BDFE901A9BE0FB00
:10B57600A3E0FAA3E0F98F82758300EE12072F0F7E
:10B58600EFB404D3E4FF901A98E0FBA3E0FAA3E03B
:10B59600F98F827583001206BDFE901A9BE0FBA30D
:10B5A600E0FAA3E02404F9E43AFAEF7C0029F9EC86
:10B5B6003AFAEE12071D0FEFB406CB901A9BE0FB8A
:10B5C600A3E0FAA3E0240AF9E43AFA1206A454FE28
:03B5D60012071D3C
:01B5D900224F
:03B00600901A6439
:10B0090012CEBD901A67EBF0A3EAF0A3E9F04A600B
:10B019000302B0D7F9901A67C9F0A3F0A3E9F07455
:10B02900FF901A9AF0A3F0A37404F0A37420F0A37C
:10B03900E4F0A3F0A3F0A3F0A3F0901A64E0FBA35B
:10B04900E0FAA3E0F974FFFDFC12623F901A6BEF7E
:10B05900F0C3648094804076E0FF3395E0FE7C0085
:10B069007D3D120751747A2FF974123EFAA37401C7
:10B07900F0A3EAF0A3E9F0E4901A6AF0901A6CE000
:10B08900FBA3E0FAA3E0F912A5E4EF6039901A6C8A
:10B09900E0FBA3E0FAA3E0F912D925EF601C901AAE
:10B0A90064E0FBA3E0FAA3E0F912CEC5901A67EBBE
:10B0B900F0A3EAF0A3E9F04A700C901A6AE004F0F0
:10B0C900E0C3940640B6901A6BE0FF12BC55901A83
:09B0D90067E0FBA3E0FAA3E0F933
:01B0E200224B
:08CEBD00EBF0A3EAF0A3E9F099
:0BCEC500901A9EEBF0A3EAF0A3E9F046
:10CED000E4A3F0901AA1E0FFC3940A504BEF75F061
:10CEE0000BA424B4F9741A35F0FA7B01C003C00214
:10CEF000901A9EE0FBA3E0FAA3E0F8AC02AD03D0E9
:10CF000002D0037E007F0412115EEF7013901AA10D
:10CF1000E075F00BA424B4F9741A35F0FA7B012201
:0ECF2000901AA1E004F080AB7B007A0079004B
:01CF2E0022E0
:10CE4A00E4901A9EF0901A9EE0FFC3940A501FEFD6
:10CE5A0075F00BA424B4F582E4341AF583E0700665
:10CE6A00901A9EE0803E901A9EE004F080D712E26B
:10CE7A00297C007D0A120763901A9EEDF0901A9E93
:10CE8A00E0FF75F00BA424BEF582E4341AF583E0C2
:10CE9A0030E010901A9EE004F0E075F00A84E5F0A4
:10CEAA00F080DAEF75F00BA424B4F9741A35F0FAAD
:02CEBA007B01FA
:01CEBC002253
:0BA5E400901A6FEBF0A3EAF0A3E9F07F
:10A5EF00E4901A73F0901662E06401700302A6D92A
:10A5FF0012D9EAEF700302A6D9901A6FE0FBA3E01D
:10A60F00FAA3E0F97D0112DC15E4FF12E0987F0157
:10A61F0012E098E4901A72F0901A72E0FFC3940659
:10A62F00501774072FF582E43400F583E0FF12E032
:10A63F0098901A72E004F080DFE4901A72F0901A8A
:10A64F0072E0FFC39404501774A62FF582E4341BF5
:10A65F00F583E0FF12E098901A72E004F080DFE4D7
:10A66F00901A72F0E4FF12E098901A72E004F0E092
:10A67F00C3940640EFE4901A72F0901A72E0FFC391
:10A68F0094045027901A6FE0FBA3E0FAA3E0240490
:10A69F00F9E43AFA7E00E92FF9EE3AFA1206A4FF2E
:10A6AF0012E098901A72E004F080CF901A6FE0FBDE
:10A6BF00A3E0FAA3E0F9E4FDFC12DA27D3EF6480FC
:0FA6CF0094804006901A737401F0901A73E0FFA4
:01A6DE002259
:0BD92500901A6FEBF0A3EAF0A3E9F00A
:10D930007B017A1A79737D587C0212C5A37B017A28
:10D940001A797312D3BAEF701D12A1C7901A72EF31
:10D95000F030E5037F0122901A72E0FF60DF20E3E0
:08D96000DC12AC7E80D77F00D1
:01D96800229C
:0ED2EA00441BB8C0A80202441BA6C0A8020341
:0BDC7300901A0DEBF0A3EAF0A3E9F01B
:10DC7E0090000E120C74E94A7004FEFF8014901A84
:10DC8E000DE0FBA3E0FAA3E0F9900011120845FFA6
:02DC9E00AEF0E6
:01DCA0002261
:09E26000900019E4F5F002092117
:0BBCFD00901A2FEBF0A3EAF0A3E9F08F
:10BD0800900013120C74E94A700302BDA1901A2F17
:10BD1800E0FBA3E0FAA3E0F9900013120C74C0034F
:10BD2800C002C001901A2FE0FBA3E0FAA3E0F9904B
:10BD38000019120845D001D002D00329F9EA35F0DC
:10BD4800FA901A32EBF0A3EAF0A3E9F0901A2FE088
:10BD5800FBA3E0FAA3E0F9900016120C74C003C02C
:10BD680002C001901A32A3E0FAA3E0F9D3D082D03E
:10BD780083D0E0E99582EA9583501E901A32E0FB61
:10BD8800EF12071D901A2FE0FBA3E0FAA3E0F99049
:09BD98000019E475F0011208B570
:01BDA100227F
:03E28E007F0122EB
:10C17000901A37EBF0A3EAF0A3E9F0901A37E0FB4E
:10C18000A3E0FAA3E0F9900011120845FDACF0D34A
:10C19000EF9DEE9C40028004AC06AD07AE04AF05F7
:10C1A000900011120845D39400E5F09400401E90D1
:10C1B0001A37E0FBA3E0FAA3E02411F9E43AFA12FB
:10C1C000081AC39FFDE5F09E8DF0120902901A3700
:10C1D000E0FBA3E0FAA3E0F9900011120845D39424
:10C1E00000E5F09400400A90000EA3EE8FF00208E4
:10C1F000B57B007A007900C003C002C001901A37F5
:0FC20000E0FBA3E0FAA3E0F990000E120CA422D9
:03E291007F0022E9
:03E294007F0022E6
:03E297007F0022E3
:0BE24C00C2AF12E21BD2AF12B0E322FF
:10C86A00901A8074FFF090165CE06078E4901A7F6A
:10C87A00F012D6D1901A7FE004F0E0C3940640F19A
:10C88A00E4901A7FF012D6D1901A7FE024AAF5829A
:10C89A00E4341BF583EFF0901A7FE004F0E0C394D0
:10C8AA000640E212D6D1901A7EEFF012D6D1901A33
:10C8BA007EE0B40821EF24FA600C24067018901A5E
:10C8CA00807401F08010901662E064016008125EC4
:10C8DA00DF901A80EFF0901A80E0D3648094805041
:09C8EA000312AC7E901A80E0FFFD
:01C8F3002222
:0B938200901A5AEBF0A3EAF0A3E9F008
:10938D004A70037F852290165CE070037F9D22AEAC
:10939D0004AF05ED60030294D6EE24F86003029449
:1093AD00D6901A5AE0FBA3E0FAA3E0F990001D1243
:1093BD0006BD30E440900008740112072F9000099B
:1093CD00E412072F90000A745E12072F9000051209
:1093DD0006BD547F90000B12072F9000061206BD9C
:1093ED0090000C12072F9000071206BD90000D1271
:1093FD00072F0294B0901A5FE060030294B0901BA7
:10940D00B4E0FFF4601EEF601BE92404F9E43AFABE
:10941D00901A677401F0A3741BF0A374A6F0127771
:10942D004BEF6012901A5AE0FBA3E0FAA3E024047C
:10943D00F9E43AFA80067B017A1B79B412B00690F2
:10944D001A60EBF0A3EAF0A3E9F0901A60A3E0FA3A
:10945D00A3E04A604BE4A3F0901A63E0FFC39406C7
:10946D005041901A60E0FBA3E0FAA3E02404F9E474
:10947D003AFA7E00E92FF9EE3AFA1206A4FD901A97
:10948D005AE0FBA3E0FAA3E02408F9E43AFAE92F45
:10949D00F9EE3AFAED12071D901A63E004F080B868
:1094AD007FA12212D9EAEF70037F8F22901A5AE022
:1094BD00FBA3E0FAA3E0F9901A5FE0FD12C8F47F78
:0B94CD000812E098E4FF12E0987F0115
:0194D8002271
:10DC1500E94A602B12C8F47F0812E0987F0612E0EB
:10DC250098E4FF12E0987F0112E0987F0812E098CF
:10DC3500E4FF12E0987F0612E0987F0412E0982234
:10E01800900A6CE0FBA3E0FAA3E0F91206A4FF90D3
:09E028000A6DE475F0011207EE27
:01E0310022CC
:10D85200900A6FE0FBA3E0FAA3E0F9EF12071D9034
:10D862000A70E475F0011207EE900A6FA3E0FAA3C2
:10D87200E0D39012769582EA9583400E900A6F74F7
:10D8820001F0A3740EF0A37477F0901278E004F024
:09D892007006901277E004F02208
:0BC8F400901A95EBF0A3EAF0A3E9F026
:10C8FF004A6075ED6016E4A3F07FFF12E098901A7E
:10C90F0098E004F0E0C3940640EF8036E4901A9864
:10C91F00F0901A98E0FFC394065027901A95E0FB09
:10C92F00A3E0FAA3E02408F9E43AFA7E00E92FF92C
:10C93F00EE3AFA1206A4FF12E098901A98E004F06B
:10C94F0080CFE4901A98F0901A98E0FFC3940650A5
:10C95F001774072FF582E43400F583E0FF12E09897
:08C96F00901A98E004F080DF4B
:01C97700229D
:0B774B00901A64EBF0A3EAF0A3E9F051
:107756009000011206BDFFE4FCFDFE7810120AA699
:10776600C004C005C006C007901A64E0FBA3E0FA97
:10777600A3E0F91206A4FFE4FCFDFE7818120AA69F
:10778600D003D002D001D000EF4BFFEE4AFEED4908
:10779600FDEC48FCC004C005C006C007901A64E0B2
:1077A600FBA3E0FAA3E0F99000021206BDFFE4FC99
:1077B600FDFE7808120AA6D003D002D001D000EF51
:1077C6004BFFEE4AFEED49FDEC48FCC004C005C087
:1077D60006C007901A64E0FBA3E0FAA3E0F9900064
:1077E600031206BDFFD003D002D001D000EB4FFF3D
:1077F600EAFEE9FDE8FC901A6A120B6F901BB1E0F5
:10780600FFE4FCFDFE7810120AA6C004C005C006FF
:10781600C007901BB0E0FFE4FCFDFE7818120AA634
:10782600D003D002D001D000EF4BFFEE4AFEED4967
:10783600FDEC48FCC004C005C006C007901BB2E0C2
:10784600FFE4FCFDFE7808120AA6D003D002D001A0
:10785600D000EF4BFBEE4AFAED49F9EC48F8A3E00D
:10786600FFEB4FFFEAFEE9FDE8FC901A6E120B6F84
:10787600901A6EE0FCA3E0FDA3E0FEA3E0FF901AE1
:107886006AE0F8A3E0F9A3E0FAA3E05FFFEA5EFE90
:10789600E95DFDE85CFC901A72120B6F901A67E0C6
:1078A600FBA3E0FAA3E0F99000011206BDFFE4FC99
:1078B600FDFE7810120AA6C004C005C006C0071255
:1078C60006A4FFE4FCFDFE7818120AA6D003D00237
:1078D600D001D000EF4BFFEE4AFEED49FDEC48FC2F
:1078E600C004C005C006C007901A67E0FBA3E0FA13
:1078F600A3E0F99000021206BDFFE4FCFDFE780845
:10790600120AA6D003D002D001D000EF4BFFEE4AF8
:10791600FEED49FDEC48FCC004C005C006C007905A
:107926001A67E0FBA3E0FAA3E0F99000031206BD94
:10793600FFD003D002D001D000EB4FFFEAFEE9FDF5
:10794600E8FC901A6A120B6F901A6EE0FCA3E0FD39
:10795600A3E0FEA3E0FF901A6AE0F8A3E0F9A3E033
:10796600FAA3E05FFFEA5EFEE95DFDE85CFC901AC3
:1079760072E0F8A3E0F9A3E0FAA3E0FBC3120A82DF
:107986007007901A7604F08005E4901A76F0901A43
:0379960076E0FF99
:0179990022CB
:10B0E30090C00BE0FE90C00AE07C002400FFEC3E21
:10B0F300FEEF7003EE64306002803BE4FFFE12E07B
:10B1030032EF640E7003EE6463600280297F207E59
:10B113000012E032EF7003EE64036002801812DD68
:10B1230053E4FDFC7F22FE12E1667F227E0012E0E3
:10B1330032EF540F60057EFF7F8B227F0A12E1619D
:10B143007F0212E1617D807C097F047E0112E1664A
:10B15300E4FDFC7F067E0112E166900008E0FE90AC
:10B163000007E0FDEEFCED7F587E0112E1669000E2
:10B173000AE0FE900009E0FDEEFCED7F5A7E01122D
:10B18300E16690000CE0FE90000BE0FDEEFCED7F2D
:10B193005C7E0112E166E4FDFC7F187E0112E1662C
:10B1A300E4FDFC7F167E0112E1667DC07C007F1208
:0AB1B3007E0112E1667E007F01229A
:10686100901A95EBF0A3EAF0A3E9F0A3ECF0A3ED05
:01687100F036
:10687200E4901AA4F0A3F0A3F0900A69E0FBA3E06D
:10688200FAA3E0F9C003C002C001900A6CE0FBA3C6
:10689200E0FAA3E0F9D082D083D0E06B7008E9651A
:1068A200827003EA65837003026B06900A6CA3E0B0
:1068B200FAA3E0AE02FF900A69A3E0FAA3E0C39F45
:1068C200FFEA9E901AA0F0A3EFF0901A98E0FEA3C0
:1068D200E0FF4E6029901A95E0FBA3E0FAA3E0F9ED
:1068E20090000E120C74E94A6014901AACEBF0A3FB
:1068F200EAF0A3E9F0EF5401901AA6F0801A901A78
:10690200A1E030E013E4FF12E098901AA1E004F055
:106912007006901AA0E004F0901AA0E0FEA3E0FF37
:10692200901A99E02FFF901A98E03EFE901AA2F07A
:10693200A3EFF0D394EEEE94054002806290C0047F
:1069420074C0F0A3E4F0901AA2E0FEA3E090C006A7
:10695200F0EEA3F07B017A1A79A77D057C0012C5BF
:10696200A37B017A1A79A712D3BAEF70187F387E07
:106972000112E032EE30E0E9901AA2E0FFA3E0A3B8
:10698200CFF0A3EFF0901AA4E07002A3E070057EAE
:10699200FF7F8F227F387E0112E032EF30E7057EE3
:1069A200FF7F8C22E4901A9AF0A3F0901AA0E0FEE6
:1069B200A3E0FFC3901A9BE09F901A9AE09E504872
:1069C200900A6CE0FBA3E0FAA3E0F91206A490C0DF
:1069D20000F0900A6DE475F0011207EE900A6CE087
:1069E200FBA3E0FAA3E0F91206A490C001F0900A1A
:1069F2006DE475F0011207EE901A9BE02402F0900C
:106A02001A9AE03400F080A3901AA6E0600E901A61
:106A120099E024FFF0901A98E034FFF0E4901A9A7B
:106A2200F0A3F0901A98E0FEA3E0FFC3901A9BE057
:106A32009F901A9AE09E503E901AACE0FBA3E47538
:106A4200F001120804A9F0FA1206A490C000F09016
:106A52001AACE0FBA3E475F001120804A9F0FA12E3
:106A620006A490C001F0901A9BE02402F0901A9ABA
:106A7200E03400F080AD901AA6E06015901AACE008
:106A8200FBA3E0FAA3E0F91206A490C000F0A3E48D
:106A9200F0901A9C120B7B000000007F407E0D7D5F
:106AA200037C00901A9CE0F8A3E0F9A3E0FAA3E0CB
:106AB200FBC3120A82504D7F287E0112E032901AE7
:106AC2009AEEF0A3EFF0EE5486FEEF54C04E600C47
:106AD200901AA474FFF0A3748CF08028901A9AE0A4
:106AE20020E021901A9CE0FCA3E0FDA3E0FEA3E0DD
:106AF2002401FFE43EFEE43DFDE43CFC901A9C12BE
:0C6B02000B6F8097901AA4E0FEA3E0FF48
:016B0E002264
:10822C00E4901A87F0A3F07F247E0112E032EE2056
:10823C00E03B7B017A1A79827D057C0012C5A37B19
:10824C00017A1A798212D3BAEF70137F247E01124D
:10825C00E032EE30E0E9901A87E4F0A304F0901AD3
:10826C0087E07002A3E070057EFF7F872290C0013B
:10827C00E0FE90C000E07C002400FFEC3E901A7EF3
:10828C00F0A3EFF0901A7EE0FEA3E0FF12E29C90C8
:10829C00C001E0FE90C000E07C002400FFEC3E90AA
:1082AC001A80F0A3EFF0901A80E0FCA3E0FD5401DB
:1082BC00901A89F0901277E0FEA3E0FFC374FE9F42
:1082CC00FF74039EFED3ED9FEC9E40030283FF9050
:1082DC001A80E0FEA3E0FF901A87EEF0A3EFF0EE19
:1082EC00FF12D852901A80A3E0FF12D852901A892C
:1082FC00E0600E901A81E024FFF0901A80E034FFC9
:10830C00F0E4FFFED3901A81E09F901A80E09E501B
:10831C00030283AE90C000E0FD900A6FE0FBA3E087
:10832C00FAA3E0F9ED12071D900A6FA3E475F001B2
:10833C001207EEFAD3901276E5F09582EA95834017
:10834C000E900A6F7401F0A3740EF0A37477F09082
:10835C00C001E0FD900A6FE0FBA3E0FAA3E0F9EDA9
:10836C0012071D900A6FA3E475F0011207EEFAD301
:10837C00901276E5F09582EA9583400E900A6F7420
:10838C0001F0A3740EF0A37477F0901278E024023D
:10839C00F0901277E03400F074022FFFE43EFE02FE
:1083AC008310901A89E0606090C000E0FF900A6F23
:1083BC00E0FBA3E0FAA3E0F9EF12071D900A6FA30C
:1083CC00E475F0011207EEFAD3901276E5F095827F
:1083DC00EA9583400E900A6F7401F0A3740EF0A31B
:1083EC007477F0901278E004F07006901277E00445
:1083FC00F080157D407C007F027E0112E166901AB0
:10840C008774FFF0A3748DF0901A87E0FEA3E0FF51
:01841C00223D
:10E03200EF90C00AF0EEA3F090C00DE0FE90C00C8D
:0AE04200E07C002400FFEC3EFE220B
:05E16100E4FDFC7E015D
:0FE16600EF90C00AF0EEA3F0EDA3F0ECA3F022CF
:10DD53007D407C007F147E0112E1667F021E12E08B
:10DD63004C7F017E0012E04C7F147E0112E0327F73
:0BDD7300367E0112E032EF30E7E722BD
:01E29C00225F
:10E175007F347E0112E032EF30E7057E007F012219
:03E18500E4FEFFB6
:01E188002274
:107E3300901A49EFF0A3ECF0A3EDF0A3EAF0A3EB63
:017E4300F04E
:107E4400901A50E0FBA3E0FAA3E0F99000011206B7
:107E5400BDFD1206A4FEEDFFE4FCFD901A56120BC4
:107E64006F901A56E0F8A3E0F9A3E0FAA3E0FBC090
:107E740000C001C002C003901A50E0FBA3E0FAA3C3
:107E8400E0F99000021206BDFE9000031206BDFD4B
:107E9400EDFFE4FCFDD003D002D001D000EB2FFFB6
:107EA400EA3EFEED39FDEC38FC901A56120B6F9049
:107EB4001A56E0F8A3E0F9A3E0FAA3E0FBC000C07F
:107EC40001C002C003901A53E0FBA3E0FAA3E0F957
:107ED4009000011206BDFD1206A4FEEDFFE4FCFDB8
:107EE400D003D002D001D000EB2FFFEA3EFEED39E3
:107EF400FDEC38FC901A56120B6F901A56E0F8A35A
:107F0400E0F9A3E0FAA3E0FBC000C001C002C00393
:107F1400901A53E0FBA3E0FAA3E0F99000021206E2
:107F2400BDFE9000031206BDFDEDFFE4FCFDD00391
:107F3400D002D001D000EB2FFFEA3EFEED39FDEC7C
:107F440038FC901A56120B6F901A56E0F8A3E0F919
:107F5400A3E0FAA3E0FB901A49E0FFE4FCFDFEEB8A
:107F64002FFFEE3AFEED39FDEC38FC901A56120B59
:107F74006F901A56E0F8A3E0F9A3E0FAA3E0FB90AF
:107F84001A4AE0FEA3E0FFE4FCFDEB2FFFEA3EFE0D
:107F9400ED39FDEC38FC901A56120B6F901A56E02E
:107FA400F8A3E0F9A3E0FAA3E0FB901A4CE0FEA3E7
:107FB400E0FFE4FCFDEB2FFFEA3EFEED39FDEC387B
:107FC400FC901A56120B6F901A56E0F8A3E0F9A32E
:107FD400E0FAA3E0FB901A4EE0FEA3E0FFE4FCFD10
:107FE400EB2FFFEA3EFEED39FDEC38FC901A5612F9
:107FF4000B6F901A49E0B4112B901A56E0F8A3E0E5
:10800400F9A3E0FAA3E0FB901A4AE0FEA3E0FFE440
:10801400FCFDEB2FFFEA3EFEED39FDEC38FC901A37
:1080240056120B6F901A56E0FCA3E0FDA3E0FEA3EA
:02803400E0FF6B
:018036002227
:109FAC00901A49120B6F901A4DEBF0A3EAF0A3E94B
:019FBC00F0B4
:109FBD00A3E07002A3E0700302A0AB901A50E0FC86
:109FCD00A3E0FD5401901A54F0ECC313FFED139070
:109FDD001A50CFF0A3EFF0901A5074FFF5F012085D
:109FED000445F06068901A4DE0FBA3E475F0011292
:109FFD000804A9F0FA1206A4901A52F0A3E4F09006
:10A00D001A4DE0FBA3E475F001120804A9F0FA1251
:10A01D0006A4FF901A53E02FF0901A52E03400F08E
:10A02D00901A49E0F8A3E0F9A3E0FAA3E0FB901A37
:10A03D0052E0FEA3E0FFE4FCFDEB2FFFEA3EFEED58
:10A04D0039FDEC38FC901A49120B6F808A901A5426
:10A05D00E0604B901A4DE0FBA3E0FAA3E0F9120685
:10A06D00A47F00FE901A52F0A3EFF0901A52EEF07A
:10A07D00A3EFF0901A49E0F8A3E0F9A3E0FAA3E00A
:10A08D00FB901A52E0FEA3E0FFE4FCFDEB2FFFEA8C
:10A09D003EFEED39FDEC38FC901A49120B6F901A0B
:0CA0AD0049E0FCA3E0FDA3E0FEA3E0FFFF
:01A0B9002284
:10CFA0008052901AA7E0FCA3E0FDA3E0FEA3E0FFFF
:10CFB0007810120A93EC4D4E4F6041901AA7A3A32C
:10CFC000E0FEA3E0FFE4FDFCC004C005C006C0070E
:10CFD000901AA7E0FCA3E0FDA3A3E07810120A9347
:10CFE000D003D002D001D000EF2BFFEE3AFEED3996
:10CFF000FDEC38FC901AA7120B6F80A6901AA7E0E0
:10D00000FCA3E0FDA3E0FEA3E0FF120A51E4FDFC57
:01D0100022FD
:10C5A300901AAFEBF0A3EAF0A3E9F0A3ECF0A3ED4C
:10C5B300F012E229901AAFE0FBA3E0FAA3E0F9EE50
:10C5C3008FF0120902901AAFE0FBA3E0FAA3E0F99F
:10C5D30012081AFF901AB3E02FFF901AB2E035F059
:10C5E3009000028FF0120921900002120845FFAE5D
:10C5F300F012081AFDACF0D39FEC9E901AAFE0FB4B
:10C60300A3E0FAA3E0F95006900004E48020C3E419
:10C613009DFFE49CFEC3901AB3E09FFF901AB2E023
:10C623009E9000028FF012092190000474011207FA
:02C633002F22B4
:0BD3BA00901AAFEBF0A3EAF0A3E9F03B
:10D3C50012E229901AAFE0FBA3E0FAA3E0F990007E
:10D3D500041206BD601E12081AFDC3EF9DEE95F0FE
:10D3E5005030900002120845FDD3EF9DEE95F040B8
:10D3F500217F0122900002120845FDD3EF9DEE9595
:10D40500F0500C12081AFDC3EF9DEE95F050037F06
:04D4150001227F0071
:01D4190022F0
:0CE22900C2AF900A75E0FEA3E0FFD2AF88
:01E2350022C6
:10E04C007B017A1A7901AD07AC0612C5A37B017A64
:09E05C001A790112D3BAEF60F445
:01E065002298
:10E09800900A69E0FBA3E0FAA3E0F9EF12071D90EC
:09E0A8000A6AE475F0010207EEBA
:10D6D100900A72E0FBA3E0FAA3E0F91206A4FFC2EC
:10D6E100AF901278E024FFF0901277E034FFF0D28F
:10D6F100AF900A73E475F0011207EE900A72A3E08D
:10D70100FAA3E0D39012769582EA9583400E900AAF
:0ED71100727401F0A3740EF0A37477F07E0022
:01D71F0022E7
:10AAAB00901AA7EBF0A3EAF0A3E9F0901AA7A3E0A2
:10AABB00FAA3E04A700302AB95901AA7E0FBA3A39D
:10AACB00E0F9900020743C12072F90002674027559
:10AADB00F00012092112E229E4FCFDC004C005C0FC
:10AAEB0006C007901AA7E0FBA3E0FAA3E0F99000D9
:10AAFB001C1206BDFFE4FE7810120AA6D003D0028A
:10AB0B00D001D000EF2BFFEE3AFEED39FDEC38FC17
:10AB1B00EF2401FFE43EFEE43DFDE43CFC901AA76C
:10AB2B00E0FBA3E0FAA3E0F9900034120B039000D2
:10AB3B001FE412072F900022E412072F900021E44C
:10AB4B0012072F900024E4F5F0120921900023E462
:10AB5B0012072F900028120BAC0000000090002C65
:10AB6B00120BAC00000000900030120BAC00000088
:10AB7B0000900038E4F5F012092190003AE4F5F06A
:0BAB8B0012092190003CE412072F2269
:0EA4E8009019D0EFF0A3EBF0A3EAF0A3E9F097
:10A4F6004A60239019D1E0FBA3E0FAA3E0F99000AB
:10A506001C1206BD75F03DA42498F582E5F03412C0
:10A51600F583E020E0037F86229019D0E014600ED8
:10A526001460432402705590001F7401803390001C
:10A536001F740212072F7D0212B822D3EF64809493
:10A5460080400F7B017A1979D47DA07C8C12C5A33B
:10A55600802D9019D1E0FBA3E0FAA3E0F990001F4B
:10A56600E412072F80199019D1E0FBA3E0FAA3E0CB
:10A57600F990001F740112072F7F01227F0022909D
:10A5860019D1E0FBA3E0FAA3E0F990001F1206BD83
:10A59600FF64046036EF60339019D0E0B4011C7B91
:10A5A600017A1979D412D3BAEF60109019D1E0FB71
:10A5B600A3E0FAA3E0F912D2F980109019D1E0FBDA
:10A5C600A3E0FAA3E0F912D41A80B49019D1E0FB03
:0DA5D600A3E0FAA3E0F990001F1206BDFFFC
:01A5E3002255
:0B34C200901A17EBF0A3EAF0A3E9F06A
:1034CD00901A317401F0A3741AF0A3741EF0901ABF
:1034DD0017E0F9A3E0FAA3E0901A34C9F0A3EAF0DB
:1034ED00A3E9F07B017A1A79201241FAEF700812E4
:1034FD00AC7E7EFF7FFD22901A17E0FBA3E0FAA3BE
:10350D00E0F9120C05901A24EBF0A3EAF0A3E9F010
:10351D0090001F1206BDB40A004003023807903513
:10352D0032F82828730235500235A50236A7023627
:10353D001602382302373C0237AD0238070238072E
:10354D000237ED12AC7E901A24E0FBA3E0FAA3E063
:10355D00F99000211206BD20E23B12DB88901A245F
:10356D00E0FBA3E0FAA3E0F990001D1206BDB44004
:10357D002490001C1206BDFF12BC557B007A007909
:10358D0000C003C002C001901A17E0FBA3E0FAA32C
:10359D00E0F9120C2502380212AC7E901A24E0FBE1
:1035AD00A3E0FAA3E0F99000211206BDFF30E2037B
:1035BD0002388030E41212DB88901A2DEFF0D364BC
:1035CD008094804041023B62901A24E0FBA3E0FA14
:1035DD00A3E0F990002C120AB9900028120B037D7C
:1035ED001212B822901A2DEFF0D3648094804016F9
:1035FD00901A24E0FBA3E0FAA3E0F990001F7403F6
:10360D0012072F023880023CA1901A24E0FBA3E0A0
:10361D00FAA3E0F99000211206BDFF30E40754062D
:10362D00700302382312AC7E901A24E0FBA3E0FA5B
:10363D00A3E0F99000211206BD30E21812AAAB905A
:10364D001A24E0FBA3E0FAA3E0F990001F74011225
:10365D00072F8043901A24E0FBA3E0FAA3E0F99032
:10366D0000211206BD30E12C900028120AB9EF247A
:10367D00FFFFEE34FFFEED34FFFDEC34FFFC900058
:10368D002C120B3FC3120A82700A901A247D12125B
:10369D00B81A800312DB7D02388012AC7E901A249A
:1036AD00E0FBA3E0FAA3E0F99000211206BD30E2A1
:1036BD00030238A5901A24E0FBA3E0FAA3E0F990E9
:1036CD0000211206BDFF30E40320E12512DB8890B6
:1036DD001A2DEFF0D3648094804013901A24E0FBF0
:1036ED00A3E0FAA3E0F9900020743C0237A7023C56
:1036FD00A1901A24E0FBA3E0FAA3E0F990001F7457
:10370D000412072F12D5D512B1BD901A2DEFF0D39B
:10371D00648094804016901A24E0FBA3E0FAA3E0A5
:10372D00F9900020743C12072F023B81023CA1123C
:10373D00AC7E901A24E0FBA3E0FAA3E0F9900022FE
:10374D001206BD30E0447D1112DCABD3EF648094E2
:10375D00804037901A24E0FBA3E0FAA3E02438F967
:10376D00E43AFA7D327C0012C5A3901A24E0FBA343
:10377D00E0FAA3E0F912D5D512B1BD901A2DEFF0F4
:10378D00D3648094805003023CA4901A24E0FBA3E0
:10379D00E0FAA3E0F990001F740612072F023957C3
:1037AD00901A24E0FBA3E0FAA3E0F99000221206A0
:1037BD00BD30E00312D5D512AC7E12B1BD901A2DDD
:1037CD00EFF0D3648094804014901A24E0FBA3E0C2
:1037DD00FAA3E0F990001FE412072F8018023CA114
:1037ED00901A24E0FBA3E0FAA3E0F990001FE41285
:1037FD00072F12AC7E7EFF7FFA22901A24E0FBA3E6
:10380D00E0FAA3E0F990001F1206BDD3940A40061A
:10381D0012D2F9023C9C901A24E0FBA3E0FAA3E03B
:10382D00F9900028120AB9901A29120B6F90002CEA
:10383D00120AB9901A29E0F8A3E0F9A3E0FAA3E07F
:10384D00FBC3120A82602F12B5DA12AC7E901A24D5
:10385D00E0FBA3E0FAA3E0F99000211206BD20E2FF
:10386D001212B1C8901A2DEFF0D3648094805003DA
:10387D00023CA4023957901A24E0FBA3E0FAA3E01E
:10388D00F99000211206BD30E23512AC7E901A245B
:10389D00E0FBA3E0FAA3E0F990001C1206BDFF12B5
:1038AD00BC557B007A007900C003C002C001901A9C
:1038BD0017E0FBA3E0FAA3E0F9120C25023C9C9063
:1038CD001A24E0FBA3E0FAA3E0F99000211206BD53
:1038DD0030E11712AC7E12DB7D901A2DEFF0D36420
:1038ED0080948040028063023CA1901A24E0FBA3E7
:1038FD00E0FAA3E0F99000211206BD20E40612AC17
:10390D007E023C68901A24E0FBA3E0FAA3E0F99054
:10391D00001F1206BD64046008900020743C12075D
:10392D002F90001F740412072FD3901B25E09400D5
:10393D00901B24E09402401812AC7E12B1BD901A77
:10394D002DEFF0D3648094804003023C68023CA1CB
:10395D00E4901A27F0A3F0901A20E0F8A3E0F9A361
:10396D00E0FAA3E0FBC000C001C002C003A3E0FB6E
:10397D00A3E0FAA3E0F99000231206BDFF901B25EA
:10398D00E02FFD901B24E03400FC12081AFBAAF076
:10399D00C002C003901A24E0FBA3E0FA90000212CB
:1039AD000845FF901A4EE5F0F0A3EFF0A37401F077
:1039BD00A3741BF0A374A6F0901A24A3A3E024040F
:1039CD00F9E43AFA901A53EBF0A3EAF0A3E9F0D038
:1039DD0003D0027F06127E33D003D002D001D00077
:1039ED00EB2FFFEA3EFEE93DFDE83CFC901A20126C
:1039FD000B6F901B24E0FEA3E0FF901A1CEEF0A3CA
:103A0D00EFF04E7003023ADFE4901A1BF0A3E0FED4
:103A1D00A3E0FF901A24E0FBA3E0FAA3E0F912E281
:103A2D006012D6D1901A1AEFF0A3E0901A1A700F07
:103A3D00E0901A27F0A3E4F0901A1B04F0803FE009
:103A4D00FF901A28E02FF0901A27E03400F0901A1A
:103A5D0020E0F8A3E0F9A3E0FAA3E0FB901A27E039
:103A6D00FEA3E0FFE4FCFDEB2FFFEA3EFEED39FD8A
:103A7D00EC38FC901A20120B6FE4901A1BF0901A80
:103A8D001AE0FF901A24E0FBA3E0FAA3E0F912BCC0
:103A9D00FD901B2474FFF5F01207EE45F070829037
:103AAD001A1BE06041901A20E0F8A3E0F9A3E0FAB8
:103ABD00A3E0FB901A27E0FEA3E0FFE4FCFDEB2F53
:103ACD00FFEA3EFEED39FDEC38FC901A20120B6F2B
:103ADD008014901A24E0FBA3E0FAA3E0F9900019FA
:103AED00E4F5F0120921901A20E0FCA3E0FDA3E01B
:103AFD00FEA3E0FF12CFA0901A20120B6F901A1E9A
:103B0D00E0FEA3E0FFE4FCFDA3E0F8A3E0F9A3E0F1
:103B1D00FAA3E0FBC3120A82600812AC7E7EFF7F1F
:103B2D00FC2212B5DA901A1CE07002A3E070281284
:103B3D00AC7E901A24E0FBA3E0FAA3E0F990002CF0
:103B4D00120AB9900028120B039000221206BD3004
:103B5D00E003023C02801D901A24E0FBA3E0FAA3CF
:103B6D00E0F912E28E901A2DEFF012AC7E901A2D24
:103B7D00E0B4A204E4FEFF22901A24E0FBA3E0FAD5
:103B8D00A3E0F990002C120B3F901A1CE0FEA3E06D
:103B9D00FFEF2BFFEE3AFEE439FDE438FC901A24DA
:103BAD00E0FBA3E0FAA3E0F9900028120B039000CC
:103BBD00221206BD20E03E901A24E0FBA3E0FAA3FA
:103BCD00E0F990001D1206BDFF30E00A90001112C1
:103BDD00084545F06004EF20E01212B1C8901A2D8F
:103BED00EFF0D3648094805003023CA4901A1CE043
:103BFD00FEA3E0FF22901A24E0FBA3E0FAA3E0F974
:103C0D00900028120AB9EF2401FFE43EFEE43DFDC9
:103C1D00E43CFC900028120B0312B1C8901A2DEF52
:103C2D00F0D364809480406C901A24E0FBA3E0FAFA
:103C3D00A3E0F990001F740912072FE92438F9E465
:103C4D003AFA7D327C0012C5A3901A2412DCA190A1
:103C5D001A2DEFF0D36480948040057EFF7F89227A
:103C6D00901A24E0FBA3E0FAA3E0F990001C1206E1
:103C7D00BDFF12BC557B007A007900C003C002C0A5
:103C8D0001901A17E0FBA3E0FAA3E0F9120C257ED0
:0D3C9D00FF7FFF22901A2DE0FF3395E0FE1F
:013CAA0022F7
:0BB5DA00901A24E0FBA3E0FAA3E0F9C4
:0BB5E500901A2EEBF0A3EAF0A3E9F0AF
:10B5F000900024120845FF901A31E5F0F0A3EFF017
:10B60000900034120AB9901A33120B6F901A31E07D
:10B610007002A3E0700302B69B901A2EE0FBA3E039
:10B62000FAA3E0F9900030120B3FC000C001C00245
:10B63000901A31E0FEA3E0FFE4FCFDA3E0F8A3E0F4
:10B64000F9A3E0FAA3E02FFFEA3EFEED39FDEC3866
:10B65000FCD002D001D000C3120A82703E901A3191
:10B66000E0FEA3E0FF901A2EE0FBA3E0FAA3E0F9CE
:10B6700012C170901A2EE0FBA3E0FAA3E0F990004B
:10B6800024E4F5F0120921900020743C12072F9059
:0BB690000030120AB9900034120B03C6
:01B69B00228C
:0B841D009019DFEBF0A3EAF0A3E9F0F8
:108428004A70057EFF7F85229019DFE0FBA3E0FA02
:10843800A3E0F990001F1206BDFDC3940250057E0B
:10844800FF7FFA229000201206BD6006EDD3940A41
:10845800400812D2F97EFF7FFF229019DFE0FBA3CC
:10846800E0FAA3E0F990001F1206BD64027027E944
:108478002438F9E43AFA12D3BAEF60179019DF7D7D
:108488000212B81A9019E4EFF0D364809480500374
:108498000285D002851C9019DFE0FBA3E0FAA3E077
:1084A800F990002412084545F06029E92438F9E4D8
:1084B8003AFA12D3BAEF7003FEFF229019DFE0FBFD
:1084C800A3E0FAA3E02438F9E43AFA7D327C0012FA
:1084D800C5A380449019DFE0FBA3E0FAA3E0F9907C
:1084E800001F1206BDC39405402EE92438F9E43A6A
:1084F800FA12D3BAEF60219019DFE0FBA3E0FAA3E8
:10850800E02438F9E43AFA7D327C0012C5A39019C8
:10851800DF12DCA1E4FEFF229019DFE0FBA3E0FA02
:10852800A3E0F912DC739019E2EEF0A3EFF09019D2
:10853800DFE0FBA3E0FAA3E0F9900024EE8FF0124D
:108548000921EF4E7003FEFF22900026120845FF16
:10855800AEF0D39019E3E09F9019E2E09E4005EE5B
:10856800F0A3EFF0D39019E3E094009019E2E094BF
:108578000240067402F0A3E4F0900024120845FFBC
:108588009019E2E065F07003A3E06F60057EFF7F5D
:10859800FE22900021741812072F124B979019E4AD
:1085A800EFF06401600280209019DFE0FBA3E0FA9D
:1085B800A3E0F9A3E0FCA3E0FD12DA279019E4EFA9
:1085C800F0D3648094805007E0FF3395E0FE22905A
:1085D80019DFE0FBA3E0FAA3E02438F9E43AFA7DD6
:1085E800327C0012C5A39019DFE0FBA3E0FAA3E0F8
:0A85F800F9900024120845FFAEF0D0
:018602002255
:10D2F900901A99EBF0A3EAF0A3E9F0901A99A3E048
:10D30900FAA3E04A604A901A99E0FBA3A3E0F990D6
:10D31900001FE412072F7B007A007900C003C002C6
:10D32900C001901A99E0FBA3E0FAA3E0F990000E7E
:10D33900120CA4901A99E0FBA3E0FAA3E0F990007B
:10D3490011E4F5F0120921900024E4F5F012092105
:01D3590022B1
:10C0D000901C11EBF0A3EAF0A3E9F0901C11A3E08F
:10C0E000FAA3E04A700302C16F901C11E0FBA3A306
:10C0F000E0F9900024E4F5F01209217B007A007940
:10C1000000C003C002C001901C11E0FBA3E0FAA331
:10C11000E0F990000E120CA4901C11E0FBA3E0FAD1
:10C12000A3E0F9900011E4F5F012092190001F122C
:10C1300006BDFF64036009EF64046004EFB4072FD9
:10C14000901C11E0FBA3E0FAA3E02438F9E43AFAEA
:10C150007D327C0012C5A3901C11E0FBA3E0FAA382
:10C16000E0F990001F740512072F7D1112DCAB223D
:10D9AB00901C14EBF0A3EAF0A3E9F0901C14E0FB3D
:10D9BB00A3E0FAA3E0F94A602512C0D0901C14E052
:10D9CB00FBA3E0FAA3E0F990001F1206BDFFD3946E
:0FD9DB0000400BEFD3940A500512D41A80DE22BD
:0BD41A009019D9EBF0A3EAF0A3E9F0B1
:10D42500E49019DDF0A3F012DC459019DCEFF03043
:10D43500E0137B017A1979D91234C29019DDEEF027
:10D44500A3EFF080109019DCE030E1097B017A1937
:10D4550079D90257999019DDE0F47004A3E0648945
:10D4650060119019D9E0FBA3E0FAA3E0F94A600343
:03D4750012841D01
:01D478002291
:0B41FA00901A2EEBF0A3EAF0A3E9F00E
:10420500E4901A4CF012D6D1EF901A39F0A3E4F0ED
:1042150012D6D1901A3AE02FF0901A39E03EF012FA
:10422500D6D1EF901A37F0A3E4F012D6D1901A3810
:10423500E02FF0901A37E03EF012D6D1901A40EFF9
:10424500F012D6D1901A41EFF012D6D1901A42EF62
:10425500F012D6D1901A43EFF012D6D1901A44EF4E
:10426500F012D6D1901A45EFF012D6D1901A46EF3A
:10427500F012D6D1901A47EFF0901A40E0FEA3E075
:10428500FFE4FCFD901A4D120B6F901A4DE0F8A358
:10429500E0F9A3E0FAA3E0FB901A42E0FEA3E0FFF9
:1042A500E4FCFDEB2FFFEA3EFEED39FDEC38FC901A
:1042B5001A4D120B6F901A4DE0F8A3E0F9A3E0FA3E
:1042C500A3E0FB901A44E0FEA3E0FFE4FCFDEB2F26
:1042D500FFEA3EFEED39FDEC38FC901A4D120B6FEE
:1042E500901A4DE0F8A3E0F9A3E0FAA3E0FB901AD9
:1042F50046E0FEA3E0FFE4FCFDEB2FFFEA3EFEED0A
:1043050039FDEC38FC901A4D120B6F12D6D1901A6C
:104315003FEFF012D6D1901A3EEFF0901A4DE0F82B
:10432500A3E0F9A3E0FAA3E0FB901A3FE0FE901AA0
:104335003EE0FDEDFFE4FCFDEB2FFFEA3EFEED392F
:10434500FDEC38FC901A4D120B6F901A3FE054F0BB
:10435500F0E01313543FFFF0C3901B25E09F901B23
:1043650024E094004008901A3FE09412500302455F
:1043750095901A3FE0FFC3901B25E09FF0901B240A
:10438500E09400F012D6D1EF901A3BF0A3E4F012BE
:10439500D6D1901A3CE02FF0901A3BE03EF0901AEF
:1043A5004DE0F8A3E0F9A3E0FAA3E0FB901A3BE0A7
:1043B500FEA3E0FFE4FCFDEB2FFFEA3EFEED39FD39
:1043C500EC38FC901A4D120B6F12D6D1EFF9901AFA
:1043D50031E0FBA3E0FAA3E0C975F000120902126F
:1043E500D6D1901A31E0FBA3E0FAA3E0F9EE8FF005
:1043F50012087D901A3FE0C39412901A3DF0901A6E
:104405004DE0F8A3E0F9A3E0FAA3E0FBC000C0018A
:10441500C002C00312D6D1EFFEE4FCFDD003D002EA
:10442500D001D0002BFFEA3EFEED39FDEC38FC90C3
:104435001A4D120B6F901A4DE0F8A3E0F9A3E0FABC
:10444500A3E0FBC000C001C002C00312D6D1E4FC4A
:10445500FDD003D002D001D000EB2FFFEA3EFEEDE8
:1044650039FDEC38FC901A4D120B6F901A3DE02483
:10447500FEF0E07089901A4DE0FCA3E0FDA3E0FE9C
:10448500A3E0FF901A2EE0FBA3E0FAA3E0F9120ADD
:10449500E9901A37E0FEA3E0FFA3E0FCA3E0FD7B73
:1044A500017A1B7982901AAE7406F01299EC901A73
:1044B50048EBF0A3EAF0A3E9F04A600302463D9019
:1044C5001A37E0FEA3E0FF7B017A1B7982901AAED2
:1044D5007406F0E4FDFC1299EC901A48EBF0A3EA9F
:1044E500F0A3E9F04A7025901A37E0FEA3E0FF7BC0
:1044F500017A1B792D901AAE7406F0E4FDFC129931
:10450500EC901A48EBF0A3EAF0A3E9F0901A48E022
:10451500FBA3E0FAA3E0F94A6020901A3EE030E1FF
:1045250019901A39E0FFA3E0900002CF8FF012092D
:1045350021901A4C7401F002463D901A3EE030E29B
:1045450002804D901A37E0FEA3E0FF12DCFC901AC2
:104555004BEFF0901A37E0FCA3E0FDA3E0FFA3E0EA
:10456500901A9ACFF0A3EFF0A37406F0901A4BE0DF
:10457500901A9DF0A3E4F0A3F0A3F0A3F0A3F07BC1
:10458500017A1B798212623FC3EF64809480501DCB
:104595007B007A007900C003C002C001901A34E0A4
:1045A500FBA3E0FAA3E0F9120C257F0022EF339577
:1045B500E0FE7C007D3D120751747A2FF974123E9E
:1045C500FA7B01901A48EBF0A3EAF0A3E9F090001A
:1045D5001FE412072F901B24E0FEA3E0FF4E601B93
:1045E500E4FD901A40E0F8A3E0F9A3E0FAA3E02F78
:1045F500FFEA3EFEED39FDEC388018901A40E0FCEC
:10460500A3E0FDA3E0FEA3E02401FFE43EFEE43DBC
:10461500FDE43CFC901A48E0FBA3E0FAA3E0F99026
:104625000028120B03901A48E0FBA3E0FAA3E0F977
:1046350090001D744012072F901A48E0FBA3E0FA82
:10464500A3E0F9C003C002C001901A34E0FBA3E067
:10465500FAA3E0F9120C25901A3EE0FF901A48E003
:10466500FBA3E0FAA3E0F9900022EF12072F9000D8
:1046750021EF12072F901A3BE0FFA3E0900026CF11
:104685008FF0120921901A3FE090002312072F9016
:104695001A40E0FCA3E0FDA3E0FEA3E0FF90002CA0
:1046A500120B03901A44E0FCA3E0FDA3E0FEA3E097
:1046B500FF900030120B03901A4CE0B40113901ACE
:1046C50048E0FBA3E0FAA3E0F990001F740112078C
:1046D5002F901A48E0FBA3E0FAA3E0F9900004123A
:1046E50006BD7028901B82E090000412072F901BD6
:1046F50083E090000512072F901B84E090000612BE
:0E470500072F901B85E090000712072F7F0101
:014713002283
:0B4B9700901A3BEBF0A3EAF0A3E9F05A
:104BA2009000211206BDFF901A48F09000241208CE
:104BB20045FD901A46E5F0F0A3EDF0EF30E13DE05F
:104BC2002418F0901A46E03400F0901A457460F010
:104BD200901A3F120B7B00000204901A3FE0FCA3E4
:104BE200E0FDA3E0FEA3E02400FFEE3402FEE43D7C
:104BF200FDE43CFC901A3F120B6F801E901A47E0B6
:104C02002414F0901A46E03400F0901A457450F0E3
:104C1200901A3F120B7B00000000901A3FE0F8A3AD
:104C2200E0F9A3E0FAA3E0FBC000C001C002C003A8
:104C3200901A46E0FCA3E0FD901A3BE0FBA3E0FAE9
:104C4200A3E0F912081AFBAAF0C002C003901A3BB3
:104C5200E0FBA3E0FA900002120845FF901A4EE52D
:104C6200F0F0A3EFF0A37401F0A3741BF0A374A6F9
:104C7200F0901A3BA3A3E02404F9E43AFA901A5301
:104C8200EBF0A3EAF0A3E9F0D003D0027F06127E94
:104C920033D003D002D001D000EB2FFFEA3EFEE971
:104CA2003DFDE83CFC901A3F120B6F901A3FE0F872
:104CB200A3E0F9A3E0FAA3E0FBC000C001C002C078
:104CC20003901A3BE0FBA3E0FAA3E0F99000341250
:104CD2000845FFE4FCFDD003D002D001D000EB2F49
:104CE200FFEA35F0FEED39FDEC38FC901A3F120B6D
:104CF2006F901A3FE0F8A3E0F9A3E0FAA3E0FBC04B
:104D020000C001C002C003901A3BE0FBA3E0FAA37B
:104D1200E0F9900036120845FFE4FCFDD003D00212
:104D2200D001D000EB2FFFEA35F0FEED39FDEC3873
:104D3200FC901A3F120B6F901A3FE0F8A3E0F9A320
:104D4200E0FAA3E0FBC000C001C002C003901A3B1E
:104D5200E0FBA3E0FAA3E0F9900028120845FFE483
:104D6200FCFDD003D002D001D000EB2FFFEA35F0DA
:104D7200FEED39FDEC38FC901A3F120B6F901A3F92
:104D8200E0F8A3E0F9A3E0FAA3E0FBC000C001C091
:104D920002C003901A3BE0FBA3E0FAA3E0F9900003
:104DA2002A120845FFE4FCFDD003D002D001D00056
:104DB200EB2FFFEA35F0FEED39FDEC38FC901A3F9F
:104DC200120B6F901A3FE0F8A3E0F9A3E0FAA3E018
:104DD200FB901A45E0FE901A48E0FDEDFFE4FCFD71
:104DE200EB2FFFEA3EFEED39FDEC38FC901A3F1244
:104DF2000B6F901A3FE0FCA3E0FDA3E0FEA3E024CA
:104E020000FFEE3402FEE43DFDE43CFC901A3F124A
:104E12000B6F901A3FE0FCA3E0FDA3E0FEA3E0FFCE
:104E2200901A3BE0FBA3E0FAA3E0F990000E120C0B
:104E320074C003C002C001901A3BE0FBA3E0FAA3D6
:104E4200E0F9900024120845FB901A50E5F0F0A317
:104E5200EBF0D001D002D003129FAC901A3F120B9C
:104E62006F901A3FE0FCA3E0FDA3E0FEA3E0FF1277
:104E7200CFA0901A3F120B6F901A3FA3A3E0FFA39B
:104E8200E0A3CFF0A3EFF0901A3BE0FBA3E0FAA37C
:104E9200E0F990001B1206BDFD901A46E0FFA3E068
:104EA200901A4DCFF0A3EFF0901A3BA3A3E0127932
:104EB2009AEF6401600122901A3BE0FBA3E0FAA39F
:104EC200E0F912081AE5F0FF12E098901A3BE0FBB5
:104ED200A3E0FAA3E0F912081AFF12E098901A3B35
:104EE200E0FBA3E0FAA3E0F9900002120845E5F026
:104EF200FF12E098901A3BE0FBA3E0FAA3E0F990DE
:104F02000002120845FF12E098E4901A3EF0901A4F
:104F12003EE0FFC364809484502A901A3BE0FBA3D6
:104F2200E0FAA3E02434F9E43AFAEF3395E0FEE93B
:104F32002FF9EA3EFA1206A4FF12E098901A3EE018
:104F420004F080CAE4901A3EF0901A3EE0FFC36477
:104F5200809484502A901A3BE0FBA3E0FAA3E02459
:104F620028F9E43AFAEF3395E0FEE92FF9EA3EFA3E
:104F72001206A4FF12E098901A3EE004F080CA9054
:104F82001A45E0FF12E098901A48E0FF12E0987F7D
:104F92000212E098E4FF12E098901A43E0FF12E058
:104FA20098901A43A3E0FF12E098E4FF12E098E41D
:104FB200FF12E098901A48E030E1147F0212E09864
:104FC2007F0412E0987F0212E098E4FF12E0987FDB
:014FD20001DD
:014FD30022BB
:04D5D5007F017E0054
:10D5D900901A2EEEF0A3EFF0A3EBF0A3EAF0A3E983
:10D5E900F0901A30E0FBA3E0FAA3E0F990003012C2
:10D5F9000AB9900034120B0390002C120B3F901AB9
:10D609002EE0FEA3E0FFEF2BFFEE3AFEE439FDE446
:10D6190038FCA3E0FBA3E0FAA3E0F9900028020B91
:01D6290003FD
:10D47900901A38EBF0A3EAF0A3E9F0901A38E0FB30
:10D48900A3E0FAA3E0F9900021ED12072F7B007ABF
:10D49900007900C003C002C001901A38E0FBA3E084
:10D4A900FAA3E0F990000E120CA4901A38E0FBA33D
:10D4B900E0FAA3E0F9900011E4F5F01209219000D7
:0BD4C90024E4F5F0120921124B972219
:0ADCA100E0FBA3E0FAA3E0F97D1117
:0BDCAB00901A2FEBF0A3EAF0A3E9F0C1
:10DCB60012D479EFB40111901A2FE0FBA3E0FAA376
:08DCC600E0F9E4FDFC12DA278D
:01DCCE002233
:08B81A00E0FBA3E0FAA3E0F952
:10B82200901A31EDF0901A2EEBF0A3EAF0A3E9F0B2
:10B832009000201206BDB43C24901A2EE0FBA3E037
:10B84200FAA3E0F9900028120AB9EF2401FFE43EBE
:10B85200FEE43DFDE43CFC900028120B03901A2EFE
:10B86200E0FBA3E0FAA3E0F9A3E0FD12D479901A79
:10B8720032EFF064017058901A2EE0FBA3E0FAA3B5
:10B88200E0F9E4FDFC12DA27901A32EFF0D364807B
:10B892009480403B901A2EE0FBA3E0FAA3E0243808
:10B8A200F9E43AFA7D327C0012C5A3901A2EE0FB2D
:10B8B200A3E0FAA3E0F9900034120AB9EF2401FFE1
:10B8C200E43EFEE43DFDE43CFC900034120B0390A8
:04B8D2001A32E0FF47
:01B8D600224F
:0BB1BD00901A24E0FBA3E0FAA3E0F9E5
:0BB1C800901A2EEBF0A3EAF0A3E9F0D0
:10B1D300901A2EE0FBA3E0FAA3E0F990000E120C04
:10B1E30074901A31EBF0A3EAF0A3E9F0901A2EE081
:10B1F300FBA3E0FAA3E0F9900011120845FF901AAF
:10B2030034E5F0F0A3EFF0900024120845FF901A04
:10B2130036E5F0F0A3EFF07D1012D479EFB401110D
:10B22300901A2EE0FBA3E0FAA3E0F9E4FDFC12DAA6
:10B2330027901A2EE0FBA3E0FAA3E0F99000207414
:10B243003C12072F901A31E0FBA3E0FAA3E0F9C008
:10B2530003C002C001901A2EE0FBA3E0FAA3E0F9B9
:10B2630090000E120CA4901A34E0FCA3E0FD901A97
:10B273002EE0FBA3E0FAA3E0F9900011EC8DF012AD
:10B283000921901A36E0FDA3E0900024CD8DF01241
:02B2930009218F
:01B295002296
:0BDB7D00901A24E0FBA3E0FAA3E0F9FB
:10DB8800900030120AB9900034120B039000221250
:10DB980006BD901A2EB402057414F080037404F0C4
:08DBA800901A2EE0FD12DCAB27
:01DBB0002252
:0FE1FE007E007F207D007B017A1B7986021182D3
:0B9C5800901BF5EBF0A3EAF0A3E9F08D
:109C6300901BFB74A5F01206A4FFC394E0500302FB
:109C73009D80EFD394EF4003029D80901BF5E0FBA2
:109C8300A3E0FAA3E0F8AC02AD037B017A1B797E73
:109C93007E007F0412115EEF7003029D80901BF51E
:109CA30012C6C6901BF8EBF0A3EAF0A3E9F04A60F2
:109CB3001B901BF8E0FBA3E0FAA3E0F99000067405
:109CC300011206EA901BFB7402F0806912DB10900C
:109CD3001BF8EBF0A3EAF0A3E9F04A6058E4FF9025
:109CE3001BF5E0FBA3E0FAA3E0F98F827583001272
:109CF30006BDFE901BF8E0FBA3E0FAA3E0F98F8218
:109D0300758300EE12072F0FEFB404D3901BF8E016
:109D1300FBA3E0FAA3E0F9900007E412072F9000F9
:109D230004E4F5F0120921900006740112072F9044
:109D33001BFB7401F0901BFBE064017040901BF867
:109D4300E0FBA3E0FAA3E0F912A2D4901BFBEFF02F
:109D5300D364809480901BF8E0FBA3E0FAA3E0F9BE
:109D6300400512D8068016E412071D901BF8E0FB8D
:109D7300A3E0FAA3E0F9900006E412072F901BFB7F
:029D8300E0FFFF
:019D850022BB
:0BD0EE00901C0AEBF0A3EAF0A3E9F0AD
:10D0F900A374A5F0901C0AE0FBA3E0FAA3E0F8AC46
:10D1090002AD037B017A1B797E7E007F0412115EDA
:10D11900EF603A901C0A12C6C6E94A6030900006D0
:10D129001206BD60289000071206BDFF6401600465
:10D13900EFB4021990000674FF1206EA9000061275
:10D1490006BD700312071D901C0D7401F0901C0D93
:02D15900E0FFF5
:01D15B0022B1
:108EEF00E4901A22F012D6D1901A18EFF0641160A4
:108EFF0004E0B4120FC3901B25E09408901B24E0EC
:108F0F0094005006901A227401F0901A22E0600328
:108F1F00028FDA12D6D1901A19EFF012D6D1901A19
:108F2F001AEFF012D6D1901A1BEFF0E4901A20F03E
:108F3F00A3F012D6D1901A20E0FCA3E0241CF582F6
:108F4F00741A3CF583EFF0901A21E004F07006904C
:108F5F001A20E004F0C3901A21E09404901A20E044
:108F6F00940040CE901A18E0FFA3E0FD7B017A1A1F
:108F7F00791C12B36CAD07AC06ECFF901A1AE0B572
:108F8F000705A3E06D6002803C901A18E0B4111839
:108F9F0078317C1B7D017B017A1B797E7E007F04FB
:108FAF0012115EEF6002801D901A18E0B4121C7847
:108FBF001C7C1A7D017B017A1B79317E007F0412A4
:108FCF00115EEF6006901A227401F0901A22E06091
:108FDF000302908D901A18E06411705E901A20F0C1
:108FEF00A3F0901A20E0FEA3E0FFC39404EE9400D8
:108FFF00400302908DEF7803C333CE33CED8F924DC
:10900F0086F9741B3EFA7B01901A23EBF0A3EAF06A
:10901F00A3E9F09000071206BDB4020E901A23E0E8
:10902F00FBA3E0FAA3E0F912D806901A21E004F0AE
:10903F0070B0901A20E004F080A8901A18E0641223
:10904F00703C7B017A1A791C12C6CE901A23EBF072
:10905F00A3EAF0A3E9F04A6025901A23E0FBA3E00E
:10906F00FAA3E0F99000071206BDB40111900007B2
:0E907F00740212072F900004E4F5F01209218C
:01908D0022C0
:08C6C600E0FBA3E0FAA3E0F998
:0BC6CE00901A90EBF0A3EAF0A3E9F053
:10C6D900E4A3F0A3F0901A93E0FEA3E0FFC394044F
:10C6E900EE9400505EEF7803C333CE33CED8F924ED
:10C6F90086F9741B3EFA7B01C003C002901A90E0D0
:10C70900FBA3E0FAA3E0F8AC02AD03D002D0037EAC
:10C71900007F0412115EEF701A901A93E0FEA3E0F5
:10C729007803C333CE33CED8F92486F9741B3EFA85
:10C739007B0122901A94E004F0709A901A93E00415
:09C74900F080927B007A00790077
:01C7520022C4
:10D96900E4FDFCEDCEECCE7803C333CE33CED8F94B
:10D979002486F9741B3EFA7B019000071206BDB498
:10D98900011490000412084545F0600A90000474DF
:10D99900FFF5F01208B50DBD00010CED64044C70E3
:01D9A900C2BB
:01D9AA00225A
:10CB7800E4901A1AF0A3F0901A1AE0FEA3E0FFC39B
:10CB88009404EE94005065EF7803C333CE33CED8C7
:10CB9800F92486F9741B3EFA7B01901A17EBF0A36F
:10CBA800EAF0A3E9F09000071206BDB4012E901A2E
:10CBB80017E0FBA3E0FAA3E0F9900004120845454A
:10CBC800F0701912A2D4EF6013901A17E0FBA3E0DB
:10CBD800FAA3E0F9900007740212072F901A1BE0DD
:0CCBE80004F07093901A1AE004F0808BA7
:01CBF400221E
:10A2D400901A2074A5F0E94A700302A3DBC001E4DC
:10A2E400901A9AF0A3F0A37402F0E4A3F0F9A3C9BE
:10A2F400F0A3F0A3E9F0E4A3F0A3F0D001FDFC1275
:10A30400623F901A1CEFF0C364809480500302A350
:10A31400DBE0FF3395E0FE7C007D3D120751747A4B
:10A324002FF974123EFA7B01A3EBF0A3EAF0A3E940
:10A33400F02404F9E43AFAE4FD7F1212B36C901AA3
:10A3440022EEF0A3EFF0901A1DE0FBA3E0FAA3E0E5
:10A35400F9901A4DE4F0A37408F07D0212799AEF93
:10A36400606D7F1212E098E4FF12E098901A22E0E8
:10A37400FF12E098901A22A3E0FF12E098E4901AEA
:10A3840021F0901A21E0FFC364809484502A901A2B
:10A394001DE0FBA3E0FAA3E02404F9E43AFAEF3366
:10A3A40095E0FEE92FF9EA3EFA1206A4FF12E098BE
:10A3B400901A21E004F080CA901A1DE0FBA3E0FA91
:10A3C400A3E0F9E4FDFC12DA27901A207401F0905E
:0CA3D4001A1CE0FF12BC55901A20E0FF9C
:01A3E000225A
:10DB1000E4FDFCEDAE047803C333CE33CED8F9FF79
:10DB20002486F582741B3EF583E0700B74862FF912
:10DB3000741B3EFA7B01220DBD00010CED64044C08
:08DB400070D17B007A0079002E
:01DB480022BA
:0BB36C00901A26EBF0A3EAF0A3E9F032
:10B37700EFFEEDFFE4FCFDA3120B6F901A29E0F836
:10B38700A3E0F9A3E0FAA3E0FBC000C001C002C03C
:10B3970003901A26E0FBA3E0FAA3E0F9900001125C
:10B3A70006BDFD1206A4FEEDFFE4FCFDD003D002AE
:10B3B700D001D000EB2FFFEA3EFEED39FDEC38FC63
:10B3C700901A29120B6F901A29E0F8A3E0F9A3E06D
:10B3D700FAA3E0FBC000C001C002C003901A26E038
:10B3E700FBA3E0FAA3E0F99000021206BDFE90006D
:10B3F700031206BDFDEDFFE4FCFDD003D002D00132
:10B40700D000EB2FFFEA3EFEED39FDEC38FC901A39
:10B4170029120B6F901A29E0FCA3E0FDA3E0FEA31D
:10B42700E0FF12CFA0901A29120B6F901A29E0FCA7
:09B43700A3E0FDA3E0FEA3E0FF89
:01B4400022E9
:0BD80600901A26EBF0A3EAF0A3E9F073
:10D8110012E229EE540FFE901BA9E07C002FFFECD1
:10D821003ECF2401CF3400FED3EF94E8EE940340C1
:10D83100047E037FE8901A26E0FBA3E0FAA3E0F957
:10D84100900007740112072F900004EE8FF0020977
:01D8510021B5
:100026000203E7E86480F8E933E83360110460F01E
:10003600ED33EC337009E8FCE9FDEAFEEBFF220440
:1000460060DED3EB9FEA9EE99DE8C2E78CF0C2F73B
:1000560095F0400CE8CCF8E9CDF9EACEFAEBCFFB07
:100066001203B285D0F05804700320D5B3E80470AB
:10007600075002B2D50203F192D5EC0460F7E4CC46
:10008600C0E0C398F8603B94186008400DD0E0FBD0
:100096000203C9E4FBFAC9FC8028E830E406E4C997
:1000A600FBE4CAFCE830E305E4C9CACBFCE8540724
:1000B6006010F8C3E913F9EA13FAEB13FBEC13FC2F
:1000C600D8F130F52FC3E49CFCEF9BFFEE9AFEEDD2
:1000D60099FDD0E0FBEF4E4D4C701222DB0302037C
:1000E600EEEC2CFCEF33FFEE33FEED33FDED30E7A7
:1000F600EB0203C9EF2BFFEE3AFEED39FDD0E0FB34
:1001060050130BBB00030203F1ED13FDEE13FEEFDC
:0801160013FFEC13FC0203C906
:10011E00EC4D6011E8497017ED33EC3304600DE4DB
:10012E00FCFFFEFD22E933E8330470F80203E71208
:10013E0003B258046009E4CC248150062850090209
:10014E0003F12840030203EEC0E0EB4A7044B9808D
:10015E0006D0E0FB0203DDEF4E701CBD8008EBFF06
:10016E00EAFEE9FD80EBE98DF0A4FEE5F002020760
:10017E00E9CDF9EAFEEBFFEF89F0A4FCE5F0CE89BC
:10018E00F0A42EFFE435F0CD89F0A42DFEE435F079
:10019E008067EF4E7005BD80D780C3EF8BF0A4ACA7
:1001AE00F0EE8BF0A42CFCE435F0F8EF8AF0A42CE2
:1001BE00E5F038FCE433CB8DF0A42CFCE5F03BF8F5
:1001CE00EE8AF0A42CFCE5F038F8E433CF89F0A4E5
:1001DE002CFCE5F038CF3400CE89F0A42FFFE5F0EB
:1001EE003EFEE433C98DF0A42EFEE5F039CD8AF043
:1001FE00A42FFFE5F03EFEE43DFD33D0E0FB5007BB
:10020E000BBB000F0203F1EC2CFCEF33FFEE33FEC1
:06021E00ED33FD0203C9EF
:100224000203F1EC5D046005E8590470030203E77E
:100234001203B2580460F6EC4860F2EC7004FDFE60
:10024400FF22C860DB2481C85009C39860025006AD
:100254000203EE9850CAF582E9294B4A7005AB8235
:100264000203DD75F0007C1A7880C3EF9BEE9AEDF3
:1002740099400DC3EF9BFFEE9AFEED99FDE842F025
:10028400DC23ACF0D0E0FFD0E0FED0E0FDAB822078
:10029400E7101BEB60BAEC2CFCEF33FFEE33FEED02
:1002A40033FD0203C9E803F830E705C0F075F00038
:1002B400EF2FFFEE33FEED33FD40B830E7C280AAE6
:1002C40074F8CC6480CCC86480C8F58204604FC3E1
:1002D400EB9FF5F0EA9E42F0E99D42F0E89C45F080
:1002E400603C501DE5825FFFE582D313CB5BCBF40A
:1002F4002B5582FB50280ABA002409B90020088033
:100304001DE5825BFBE582D313CF5FCFF4C3132FCC
:100314005582FF50090EBE00050DBD00010CC3EB54
:100324009FF5F0EA9E42F0E99D42F0E89C45F060BA
:0903340007CC4820E701B3EC22DC
:10033D0075F020800E75F010800575F0087D007E3B
:10034D00007F003392D530D503120A5EEC33401096
:10035D00EF33FFEE33FEED33FDEC33FCD5F0ED2244
:0E036D00E5F0247EA2D513CC92E7CDCEFF2280
:10037B00EDD2E7CD33EC3392D524814006E4FFFE7A
:10038B00FDFC22FCE4CFCECDCC24E0501174FF80D9
:10039B00EDC3CC13CCCD13CDCE13CECF13CF047076
:0703AB00F030D5DE020A5E0E
:10471400E52724D8F582E43419F583E005272290AF
:1047240019D53007039019D8E475F001120BE5028E
:1047340006A42000E97F2ED2008018EF540F2490A5
:10474400D43440D4FF30040BEF24BFB41A00500318
:104754002461FFE52860021528052BE52B7002056E
:104764002A30070E9019D5E475F001120BE5EF021B
:10477400071D02DDCE7403D2078003E4C207F527C8
:104784009019D5120BFCE4F528F52AF52BE52860E1
:10479400077F2012475780F57529FFC201C200C266
:1047A40002C203C205C206C208124723FF700D30BD
:1047B40007057F00124768AF2BAE2A22B4255FC2DB
:1047C400D5C204124723FF24D0B40A00501A75F04E
:1047D4000A782830D50508B6FF0106C6A426F620B7
:1047E400D5047002D20380D924CFB41A00EF500448
:1047F400C2E5D204024A5AD20180C6D20080C0D295
:104804000280BCD2D580BAD20580B47F201247572B
:104814002002077401B5280040F1124714FF124723
:1048240057024791D208D2068095124714FB1247CB
:1048340014FA124714F94A4B700679587A4B7BFFE5
:1048440020022EE528602A7E008E827583001206DF
:10485400BD60060EEE652970F0C2D5EBC0E0EAC07B
:10486400E0E9C0E0EE124ABBD0E0F9D0E0FAD0E0D3
:10487400FB1206A4FF60AAEBC0E0EAC0E0E9C0E0D6
:10488400124757D0E02401F9D0E03400FAD0E0FB1D
:10489400E5290460DCD529D98087D20280A2124A96
:1048A4009D60F7E5297001041203FCA929600DE558
:1048B40029600914F529124B45EF60F3EA30E70249
:1048C400F404C3995079EAF425290430E701E40497
:1048D400F529800D124A9D60C1EA05292529120394
:1048E400FCEA901A04F030E701E4252904D52904F0
:1048F40020050114124ABBE4C0E0124B45901A048F
:10490400E0601320E70714F012473F802204F0D040
:10491400E014C0E07F0012473FE5296007124736E4
:104924001529800B300503124736D0E0024791D099
:10493400E00480C4124A9D609EE529041203FC90A1
:104944001A04EAF0E5292005026001042404124A4D
:01495400BBA7
:1049550074FF04C0E0124B4512473FE529200502CC
:104965006003124736D0E0B529E87F4512474990E4
:104975001A04E07F2B30E7047F2DF404C0E01247D2
:1049850057D0E075F00A84C0F0124740D0E01247D6
:1049950040024791791080027908C206C208800852
:1049A500D2D5790A8004790AC2D5E529047002F5C1
:1049B50029E4FAFDFEFF124714FC7B0820011312BF
:1049C5004714FD7B1030000A124714FE124714FFEE
:1049D5007B20EC3382D592D55013C3E43000069F7B
:1049E500FFE49EFEE42001039DFDE49CFCE4CBF87E
:1049F500C201EC700CCFCECDCCE824F8F870F38072
:104A050017C3EF33FFEE33FEED33FDEC33FCEB3331
:104A1500FB994002FB0FD8E9EB300105F8D0E0C463
:104A250048B201C0E00AEC4D4E4F78207B0070C2C1
:104A3500EAB5290040BCC0E0124ABDD0F0D0E02064
:104A45000104C4C0E0C4B201C0F0124740D0F0D5A3
:104A5500F0EB024791120CFD482E5349995847FF38
:104A65004C47FB42499D4F49A54449A54948144334
:104A750049AB5548D84649384548A2474B78504830
:104A8500032D48072E482A2B480B234828204B6125
:104A95002A47C34800004822E529B4FF03752906C3
:104AA500124714FC124714FD124714FE124714FF57
:104AB5009019FD020439790AA2D52003143005099D
:104AC500B910020404B9080104A2D5200602500158
:104AD500042002689202B528005034C0E07F2030DF
:104AE50003197F30A20272067205500F124B14C2D1
:104AF50002C206C205C2087F30800F300503E9C037
:104B0500E0124757300503D0E0F9D0E0B528CC30A6
:104B150005177F30B9100C1247577F583004077FAF
:104B2500788003B908031247573002057F2D0247E5
:104B3500577F202008F87F2B2006F322920280CF92
:104B45007F00B40700500B24FDF582E43419F5838A
:104B5500E0FF22286E756C6C2900D20112471430D3
:104B650001F8C201782830D50108F60247C32D5057
:104B75004349581247142403B405004001E4904BFF
:104B85007393124748743A124748D20375280402B2
:024B950049993C
:10A8CE009019CD120B6F74FFFFFEFDFC9019CDE0B9
:10A8DE00F8A3E0F9A3E0FAA3E0FBC3120A82603802
:10A8EE007F807E967D187C4B9019CDE0F8A3E0F921
:10A8FE00A3E0FAA3E0FB1202C46002501B7F807E2D
:10A90E00967D187CCB9019CDE0F8A3E0F9A3E0FA80
:10A91E00A3E0FB1202C4500F9019CDE0FCA3E0FDA2
:10A92E00A3E0FEA3E0FF229019CDE0FCA3E0FDA37F
:10A93E00E0FEA3E0FF12037B9019D1120B6F90196A
:10A94E00D1E0FCA3E0FDA3E0FEA3E0FFEC12033D8B
:10A95E00C8ECC8C9EDC9CAEECACBEFCB9019CDE091
:10A96E00FCA3E0FDA3E0FEA3E0FF120029E4FBFA46
:10A97E00F9F81202C4602640249019D1E0FCA3E03D
:10A98E00FDA3E0FEA3E0FFEF24FFFFEE34FFFEED9C
:10A99E0034FFFDEC34FFFC9019D1120B6F9019D1DE
:10A9AE00E0FCA3E0FDA3E0FEA3E0FFEC12033D22DA
:1003B200E9D2E7C933E833F892D5EDD2E7CD33EC91
:0703C20033FC5002B2D5220A
:1003C900EC30E7100FBF000C0EBE00080DBD000495
:1003D9000BEB6014A2D5EB13FCED92E7FD2274FF41
:1003E900FCFDFEFF22E480F8A2D574FF13FC7D809A
:0303F900E480EFAE
:1003FC00F920E73624F950037907E4F42402FBE5ED
:10040C0082158270021583DBF6E024FB501BE96039
:10041C0014E4F0E582158270021583E004F0B40A4E
:0D042C0008E4F0D9EE7401F00A22C2D522D6
:10043900ED33EC3392D5FA602AB4FF33EDC2E77B92
:10044900FF60067A04795EE4227A04796720D5048C
:100459007A047962224E614E002B494E46002D499D
:100469004E4600E47A08F0A3DAFC7B00740722C048
:1004790083C082ECC0E0EDC0E0EEC0E0EFC0E0EA8E
:1004890075F010A4CAABF075F04DA42BFBE435F060
:10049900FCEA2410FAEB34C5FBEC34D9FCEDC2E7D5
:1004A900FF75F056A4F42411C5F0F434C58FF0A4F7
:1004B9002AE5F03BE43CF020E71412056ED0E0FF9A
:1004C900D0E0FED0E0FDD0E0FC1202278014F40455
:1004D90012056ED0E0FFD0E0FED0E0FDD0E0FC12C6
:1004E900011ED082D083E0FAEDD2E7CD33EC33247C
:1004F90082FBE4C3CF33CFCE33CECD33CD33DBF361
:100509007B0775F00A846004F0A31B0AE5F0F0A3E9
:100519008FF0740AA4FFACF08EF0740AA42CFEAC20
:10052900F050010C8DF0740AA42CFDE435F0F0A311
:05053900DBDE74072267
:10053E003F8000004120000042C80000447A0000C5
:10054E00461C400047C35000497424004B18968047
:10055E004CBEBC205A0E1BCA6753C21C749DC5AE3E
:10056E00FB60065407601C232312059CEB54386075
:10057E000912058812059712011EECF8EDF9EEFA34
:10058E00EFCB22EB12059780F1543803241C900513
:10059E003EFE93FC0EEE93FD0EEE930ECE93FF22D7
:10C5230002BA49E493A3F8E493A34003F68001F22B
:10C5330008DFF48029E493A3F85407240CC8C33319
:10C54300C4540F4420C8834004F456800146F6DFE8
:10C55300E4800B010204081020408090D298E47E0E
:10C56300019360BCA3FF543F30E509541FFEE493DD
:10C57300A360010ECF54C025E060A840B8E493A3A4
:10C58300FAE493A3F8E493A3C8C582C8CAC583CACF
:10C59300F0A3C8C582C8CAC583CADFE9DEE780BE87
:01D2F8000035
:1005AE00E709F608DFFA8046E709F208DFFA803E2F
:1005BE0088828C83E709F0A3DFFA8032E309F6081C
:1005CE00DFFA8078E309F208DFFA807088828C8384
:1005DE00E309F0A3DFFA806489828A83E0A3F60838
:1005EE00DFFA805889828A83E0A3F208DFFA804C12
:1005FE0080D280FA80C680D4806980F280338010E9
:10060E0080A680EA809A80A880DA80E280CA803351
:10061E0089828A83ECFAE493A3C8C582C8CCC583C9
:10062E00CCF0A3C8C582C8CCC583CCDFE9DEE78099
:10063E000D89828A83E493A3F608DFF9ECFAA9F018
:10064E00EDFB2289828A83ECFAE0A3C8C582C8CC6E
:10065E00C583CCF0A3C8C582C8CCC583CCDFEADE87
:10066E00E880DB89828A83E493A3F208DFF980CCE9
:10067E0088F0EF60010E4E60C388F0ED2402B404E2
:10068E000050B9F582EB2402B4040050AF23234589
:06069E0082239005FE73AB
:1006A400BB010689828A83E0225002E722BBFE0254
:0906B400E32289828A83E4932287
:1006BD00BB010CE58229F582E5833AF583E02250F2
:1006CD0006E92582F8E622BBFE06E92582F8E2223C
:0D06DD00E58229F582E5833AF583E4932256
:1006EA00BB010FF8E58229F582E5833AF583E02814
:1006FA00F0225009C58229F8E58226F622BBFE09B6
:10070A00C58229F8E22582F222F8EA2583F583E9EF
:03071A00932822FF
:10071D00BB010689828A83F0225002F722BBFE01BB
:02072D00F322B5
:10072F00F8BB010DE58229F582E5833AF583E8F000
:10073F00225006E92582C8F622BBFE05E92582C8AC
:02074F00F22294
:10075100EF8DF0A4A8F0CF8CF0A428CE8DF0A42EBC
:02076100FE2276
:10076300BC000BBE0029EF8DF084FFADF022E4CC7A
:10077300F875F008EF2FFFEE33FEEC33FCEE9DEC43
:10078300984005FCEE9DFE0FD5F0E9E4CEFD22ED89
:10079300F8F5F0EE8420D21CFEADF075F008EF2FD3
:1007A300FFED33FD4007985006D5F0F222C398FDC4
:0507B3000FD5F0EA2261
:1007B800C2D5EC30E709B2D5E4C39DFDE49CFCEE5C
:1007C80030E715B2D5E4C39FFFE49EFE120763C36A
:1007D800E49DFDE49CFC800312076330D507C3E465
:0607E8009FFFE49EFE22CB
:1007EE00C5F0F8A3E028F0C5F0F8E5821582700296
:0607FE001583E038F02233
:10080400A3F8E0C5F025F0F0E582158270021583A7
:06081400E0C838F0E82204
:10081A00BB010A89828A83E0F5F0A3E022500687A9
:10082A00F009E71922BBFE07E3F5F009E31922896B
:0B083A00828A83E493F5F0740193229E
:10084500BB0110E58229F582E5833AF583E0F5F0F1
:10085500A3E0225009E92582F886F008E622BBFECE
:100865000AE92582F8E2F5F008E222E5832AF58314
:08087500E993F5F0A3E99322D9
:10087D00BB010789828A830207EE500B09C5F02759
:10088D00F7C5F01937F722BBFE0D09F8E325F0F394
:10089D00C5F019E338F322F889828A837401932510
:0808AD00F0C5F0F8E4933822D5
:1008B500BB010DC58229C582C5833AC5830207EEF2
:1008C5005011C58229F808E5F026F618F5F0E582FD
:1008D50036F622BBFE11C58229F808E225F0F5F0AF
:1008E500F218E23582F222F8E58229F582E5832ABB
:0D08F500F58374019325F0F5F0E4933822AB
:10090200BB010A89828A83F0E5F0A3F0225006F740
:0F09120009A7F01922BBFE06F3E5F009F319223D
:10092100F8BB0111E58229F582E5833AF583E8F008
:10093100E5F0A3F0225009E92582C8F608A6F022C5
:0D094100BBFE09E92582C8F2E5F008F222AC
:0D094E00EF2BFFEE3AFEED39FDEC38FC22F8
:0E095B00C3EF9BFFEE9AFEED99FDEC98FC2297
:1009690075F008758200EF2FFFEE33FECD33CDCC45
:1009790033CCC58233C5829BED9AEC99E5829840C8
:100989000CF582EE9BFEED9AFDEC99FC0FD5F0D6A5
:10099900E4CEFBE4CDFAE4CCF9A88222B800C1B9CF
:1009A9000059BA002DEC8BF084CFCECDFCE5F0CB0D
:1009B900F97818EF2FFFEE33FEED33FDEC33FCEB46
:1009C90033FB10D703994004EB99FB0FD8E5E4F901
:1009D900FA227818EF2FFFEE33FEED33FDEC33FCEE
:1009E900C933C910D7059BE99A4007EC9BFCE99AE2
:1009F900F90FD8E0E4C9FAE4CCFB2275F010EF2F27
:100A0900FFEE33FEED33FDCC33CCC833C810D70726
:100A19009BEC9AE899400AED9BFDEC9AFCE899F861
:0E0A29000FD5F0DAE4CDFBE4CCFAE4C8F922F4
:0D0A3700EF5BFFEE5AFEED59FDEC58FC227E
:0D0A4400EF4BFFEE4AFEED49FDEC48FC22B1
:0D0A5100CFF4CFCEF4CECDF4CDCCF4CC223A
:0E0A5E00C3E49FFFE49EFEE49DFDE49CFC22A9
:100A6C00EB9FF5F0EA9E42F0E99D42F0EC6480C801
:060A7C0064809845F022A1
:100A8200EB9FF5F0EA9E42F0E99D42F0E89C45F0CA
:010A92002241
:100A9300E8600FECC313FCED13FDEE13FEEF13FF41
:030AA300D8F12265
:100AA600E8600FEFC333FFEE33FEED33FDEC33FCAE
:030AB600D8F12252
:100AB900BB010DE58229F582E5833AF583020B270F
:100AC9005007E92582F80211AEBBFE07E92582F835
:100AD9000211BAE58229F582E5833AF5830211C646
:100AE900BB010789828A83020B6F5005E9F802125C
:0A0AF90000BBFE05E9F802120C2212
:100B0300BB010DE58229F582E5833AF583020B6F7C
:100B13005007E92582F8021200BBFE07E92582F897
:040B230002120C228C
:0C0B2700E0FCA3E0FDA3E0FEA3E0FF2241
:0C0B3300E0F8A3E0F9A3E0FAA3E0FB2245
:100B3F00BB010DE58229F582E5833AF583020B337C
:100B4F005007E92582F80211D6BBFE07E92582F886
:100B5F000211E3E58229F582E5833AF5830211F06C
:0C0B6F00ECF0A3EDF0A3EEF0A3EFF022F9
:100B7B00A8828583F0D083D082120B92120B921233
:100B8B000B92120B92E473E493A3C583C5F0C58358
:100B9B00C8C582C8F0A3C583C5F0C583C8C582C8C4
:010BAB002227
:100BAC00BB010DE58229F582E5833AF583020B7BC7
:100BBC005007E92582F8021218BBFE07E92582F8D6
:040BCC0002123122BE
:0C0BD000A42582F582E5F03583F5832230
:090BDC00E0FBA3E0FAA3E0F9221A
:100BE500F8E0FBA3A3E0F925F0F0E5821582700299
:070BF5001583E0FA38F0223D
:090BFC00EBF0A3EAF0A3E9F022FA
:100C0500BB010789828A83020BDC5005E9F80212D1
:100C15004ABBFE05E9F802125C89828A8302126EDC
:100C2500BB011A89828A83D0F0D0E0F8D0E0F9D0F0
:100C3500E0FAD0E0FBE8C0E0C0F0020BFC5016E99A
:100C4500F8D083D082D0E0F9D0E0FAD0E0FBC082C2
:100C5500C083021253BBFE16E9F8D083D082D0E0E0
:0F0C6500F9D0E0FAD0E0FBC082C0830212652212
:100C7400BB010DE58229F582E5833AF583020BDC9D
:100C84005007E92582F802124ABBFE07E92582F8DB
:100C940002125CE58229F582E5833AF58302126E3D
:100CA400BB0120E58229F582E5833AF583D0F0D0B3
:100CB400E0F8D0E0F9D0E0FAD0E0FBE8C0E0C0F022
:100CC400020BFC5018E92582F8D083D082D0E0F9D9
:100CD400D0E0FAD0E0FBC082C083021253BBFE18FE
:100CE400E92582F8D083D082D0E0F9D0E0FAD0E0D0
:090CF400FBC082C08302126522DC
:100CFD00D083D082F8E4937012740193700DA3A386
:100D0D0093F8740193F5828883E473740293686099
:060D1D00EFA3A3A380DF99
:100D2300E5112582F582E5103583F583B510048539
:100D330082112210AF06858211F51022858211F5EA
:040D430010D2AF22F9
:0D0D4700E5112582F582E5103583F5832244
:10DDCE00EFB40A07740D12DDD9740A309811A899B0
:10DDDE00B8130CC2983098FDA899C298B811F630B5
:07DDEE0099FDC299F599228D
:100D5400E3F5F009E208B5F06D606B80F3E3F5F0BC
:100D640009E608B5F060605E80F387F009E608B52F
:100D7400F054605280F487F009E208B5F048604608
:100D840080F488828C8387F009E0A3B5F03860365C
:100D940080F488828C8387F009E493A3B5F02760FC
:100DA4002580F388828C83E3F5F009E0A3B5F0167F
:100DB400601480F388828C83E3F5F009E493A3B58F
:100DC400F004600280F2020E7F808580E7808E80CE
:100DD400D2803C8015806C807E809B80B5808B8027
:100DE400A1804F8070803A020E8B89828A83ECFA4C
:100DF400E493F5F0A3C8C582C8CCC583CCE493A31F
:100E0400C8C582C8CCC583CCB5F070606E80E1895A
:100E1400828A83E493F5F0A3E208B5F05E605C8017
:100E2400F289828A83E0F5F0A3E608B5F04D604BC1
:100E340080F389828A83E0F5F0A3E208B5F03C6090
:100E44003A80F389828A83E493F5F0A3E608B5F047
:100E54002A602880F2805389828A83ECFAE493F52D
:100E6400F0A3C8C582C8CCC583CCE0A3C8C582C8DA
:100E7400CCC583CCB5F004600280E27FFFB5F002FC
:100E84000F2240027F012289828A83ECFAE0F5F086
:100E9400A3C8C582C8CCC583CCE0A3C8C582C8CCCE
:100EA400C583CCB5F0D560D380E389828A83ECFA1C
:100EB400E0F5F0A3C8C582C8CCC583CCE493A3C82D
:100EC400C582C8CCC583CCB5F0B160AF80E288F0F0
:100ED400ED2402B4040050A3F582EB2402B4040010
:0B0EE40050992323458223900DCD730D
:100EEF00E709F60870FA8046E709F20870FA803EC3
:100EFF0088828C83E709F0A370FA807EE309F608F5
:100F0F0070FA8076E309F20870FA806E88828C831B
:100F1F00E309F0A370FA806289828A83E0A3F6085E
:100F2F0070FA805689828A83E0A3F20870FA804AA9
:100F3F0080D280FA80C680D4806580F280318010A4
:100F4F0080A680EA809A80A880DA80E280CA803109
:100F5F0089828A83ECFAE493A3C8C582C8CCC5837F
:100F6F00CCF0A3C8C582C8CCC583CC70E9800D89ED
:100F7F00828A83E493A3F60870F9ECFAA9F0EDFBEB
:100F8F002289828A83ECFAE0A3C8C582C8CCC583C4
:100F9F00CCF0A3C8C582C8CCC583CC70EA80DD89EC
:100FAF00828A83E493A3F20870F980CE88F0ED244F
:100FBF0002B4040050C4F582EB2402B4040050BA0A
:090FCF002323458223900F3F7398
:10D1C9009019D5EBF0A3EAF0A3E9F0E49019DDF0AA
:10D1D900A3F09019DB74FFF5F012080445F0603CE8
:10D1E9009019D8E0FBA3E0FAA3E0F91206A4FF9096
:10D1F90019D5E0FBA3E0FAA3E0F99019DDE475F095
:10D209000112080485F082F583EF12072FEF60C23F
:10D219009019D9E475F0011207EE80B69019D5E09E
:08D22900FBA3E0FAA3E0F922E7
:10E13800E4FFFE1206A4600C0FEF70010E09E970EF
:05E14800F20A80EF2245
:10CC71009019D5EBF0A3EAF0A3E9F0A3EBF0A3EA56
:10CC8100F0A3E9F09019D8E0FBA3E0FAA3E0F912D0
:10CC910006A4600C9019D9E475F0011207EE80E446
:10CCA1009019D8E0FBA3E0FAA3E0F91206A46D7095
:10CCB10001229019D5E0FBA3E0FAA3E0F9EBC0E073
:10CCC100EAC0E0E9C0E0A3E0FBA374FFF5F01208BD
:10CCD10004FAD082D083D0E06B7009E5F0658270F0
:0ACCE10003EA658370BAFBFAF9223A
:100FD800E3F5F009E208B5F06BDFF58067E3F5F0BB
:100FE80009E608B5F05EDFF5805A87F009E608B52E
:100FF800F052DFF6804E87F009E208B5F046DFF6DA
:10100800804288828C8387F009E0A3B5F036DFF64A
:10101800803288828C8387F009E493A3B5F025DFBA
:10102800F5802188828C83E3F5F009E0A3B5F014FC
:10103800DFF5801088828C83E3F5F009E493A3B58B
:10104800F002DFF4021107808780E9809080D48065
:101058003E8015806E807E809D80B7808D80A380C5
:10106800518074803C02111389828A83ECFAE493DC
:10107800F5F0A3C8C582C8CCC583CCE493A3C8C582
:1010880082C8CCC583CCB5F076DFE3DEE180708919
:10109800828A83E493F5F0A3E208B5F062DFF48076
:1010A8005E89828A83E0F5F0A3E608B5F051DFF5A2
:1010B800804D89828A83E0F5F0A3E208B5F040DF2D
:1010C800F5803C89828A83E493F5F0A3E608B5F0BD
:1010D8002EDFF4802A8002805789828A83ECFAE422
:1010E80093F5F0A3C8C582C8CCC583CCE0A3C8C516
:1010F80082C8CCC583CCB5F006DFE4DEE280007F91
:10110800FFB5F0020F2240027F012289828A83EC18
:10111800FAE0F5F0A3C8C582C8CCC583CCE0A3C863
:10112800C582C8CCC583CCB5F0D5DFE5DEE380CF7A
:1011380089828A83ECFAE0F5F0A3C8C582C8CCC5D9
:1011480083CCE493A3C8C582C8CCC583CCB5F0AF23
:10115800DFE4DEE280A988F0EF60010E4E60ABEDBF
:101168002402B404005098F582EB2402B404005021
:0A1178008E232345822390104F734D
:10118200EF4E6012EF60010EEDBB010B89828A8384
:10119200F0A3DFFCDEFA2289F05007F709DFFCA991
:0C11A200F022BBFEFCF309DFFCA9F022E8
:0C11AE00E6FC08E6FD08E6FE08E6FF226D
:0C11BA00E2FC08E2FD08E2FE08E2FF2271
:1011C600E493FC740193FD740293FE740393FF226F
:0D11D600E6FB08E6F908E6FA08E6CBF82289
:0D11E300E2FB08E2F908E2FA08E2CBF8228C
:1011F000E493F8740193F9740293FA740393FB2255
:0C120000ECF608EDF608EEF608EFF6221A
:0C120C00ECF208EDF208EEF208EFF2221E
:10121800D083D082E493F608740193F6087402939D
:09122800F608740393F6740473D4
:10123100D083D082E493F208740193F2087402938C
:09124100F208740393F2740473C3
:09124A00E6FB08E6FA08E6F922C9
:09125300EBF608EAF608E9F622C0
:09125C00E2FB08E2FA08E2F922C3
:09126500EBF208EAF208E9F222BA
:0C126E00E493FB740193FA740293F922DC
:00000001FF
